{"abi":[{"type":"constructor","inputs":[],"stateMutability":"nonpayable"},{"type":"function","name":"AUDITOR_ROLE","inputs":[],"outputs":[{"name":"","type":"bytes32","internalType":"bytes32"}],"stateMutability":"view"},{"type":"function","name":"DEFAULT_ADMIN_ROLE","inputs":[],"outputs":[{"name":"","type":"bytes32","internalType":"bytes32"}],"stateMutability":"view"},{"type":"function","name":"getReport","inputs":[{"name":"id","type":"uint256","internalType":"uint256"}],"outputs":[{"name":"","type":"tuple","internalType":"struct AuditRegistry.Report","components":[{"name":"industryId","type":"uint256","internalType":"uint256"},{"name":"reportHash","type":"bytes32","internalType":"bytes32"},{"name":"auditorSignature","type":"bytes","internalType":"bytes"},{"name":"timestamp","type":"uint256","internalType":"uint256"}]}],"stateMutability":"view"},{"type":"function","name":"getRoleAdmin","inputs":[{"name":"role","type":"bytes32","internalType":"bytes32"}],"outputs":[{"name":"","type":"bytes32","internalType":"bytes32"}],"stateMutability":"view"},{"type":"function","name":"grantRole","inputs":[{"name":"role","type":"bytes32","internalType":"bytes32"},{"name":"account","type":"address","internalType":"address"}],"outputs":[],"stateMutability":"nonpayable"},{"type":"function","name":"hasRole","inputs":[{"name":"role","type":"bytes32","internalType":"bytes32"},{"name":"account","type":"address","internalType":"address"}],"outputs":[{"name":"","type":"bool","internalType":"bool"}],"stateMutability":"view"},{"type":"function","name":"renounceRole","inputs":[{"name":"role","type":"bytes32","internalType":"bytes32"},{"name":"callerConfirmation","type":"address","internalType":"address"}],"outputs":[],"stateMutability":"nonpayable"},{"type":"function","name":"reports","inputs":[{"name":"","type":"uint256","internalType":"uint256"}],"outputs":[{"name":"industryId","type":"uint256","internalType":"uint256"},{"name":"reportHash","type":"bytes32","internalType":"bytes32"},{"name":"auditorSignature","type":"bytes","internalType":"bytes"},{"name":"timestamp","type":"uint256","internalType":"uint256"}],"stateMutability":"view"},{"type":"function","name":"revokeRole","inputs":[{"name":"role","type":"bytes32","internalType":"bytes32"},{"name":"account","type":"address","internalType":"address"}],"outputs":[],"stateMutability":"nonpayable"},{"type":"function","name":"storeReport","inputs":[{"name":"industryId","type":"uint256","internalType":"uint256"},{"name":"reportHash","type":"bytes32","internalType":"bytes32"},{"name":"auditorSig","type":"bytes","internalType":"bytes"}],"outputs":[],"stateMutability":"nonpayable"},{"type":"function","name":"supportsInterface","inputs":[{"name":"interfaceId","type":"bytes4","internalType":"bytes4"}],"outputs":[{"name":"","type":"bool","internalType":"bool"}],"stateMutability":"view"},{"type":"function","name":"verifyReport","inputs":[{"name":"hash","type":"bytes32","internalType":"bytes32"}],"outputs":[{"name":"","type":"bool","internalType":"bool"}],"stateMutability":"view"},{"type":"event","name":"RoleAdminChanged","inputs":[{"name":"role","type":"bytes32","indexed":true,"internalType":"bytes32"},{"name":"previousAdminRole","type":"bytes32","indexed":true,"internalType":"bytes32"},{"name":"newAdminRole","type":"bytes32","indexed":true,"internalType":"bytes32"}],"anonymous":false},{"type":"event","name":"RoleGranted","inputs":[{"name":"role","type":"bytes32","indexed":true,"internalType":"bytes32"},{"name":"account","type":"address","indexed":true,"internalType":"address"},{"name":"sender","type":"address","indexed":true,"internalType":"address"}],"anonymous":false},{"type":"event","name":"RoleRevoked","inputs":[{"name":"role","type":"bytes32","indexed":true,"internalType":"bytes32"},{"name":"account","type":"address","indexed":true,"internalType":"address"},{"name":"sender","type":"address","indexed":true,"internalType":"address"}],"anonymous":false},{"type":"error","name":"AccessControlBadConfirmation","inputs":[]},{"type":"error","name":"AccessControlUnauthorizedAccount","inputs":[{"name":"account","type":"address","internalType":"address"},{"name":"neededRole","type":"bytes32","internalType":"bytes32"}]}],"bytecode":{"object":"0x608060405234801561000f575f5ffd5b506100225f5f1b3361005960201b60201c565b506100537f59a1c48e5837ad7a7f3dcedcbe129bf3249ec4fbf651fd4f5e2600ead39fe2f53361005960201b60201c565b506101b8565b5f61006a838361014e60201b60201c565b6101445760015f5f8581526020019081526020015f205f015f8473ffffffffffffffffffffffffffffffffffffffff1673ffffffffffffffffffffffffffffffffffffffff1681526020019081526020015f205f6101000a81548160ff0219169083151502179055506100e16101b160201b60201c565b73ffffffffffffffffffffffffffffffffffffffff168273ffffffffffffffffffffffffffffffffffffffff16847f2f8788117e7eff1d82e926ec794901d17c78024a50270940304540a733656f0d60405160405180910390a460019050610148565b5f90505b92915050565b5f5f5f8481526020019081526020015f205f015f8373ffffffffffffffffffffffffffffffffffffffff1673ffffffffffffffffffffffffffffffffffffffff1681526020019081526020015f205f9054906101000a900460ff16905092915050565b5f33905090565b6112e2806101c55f395ff3fe608060405234801561000f575f5ffd5b50600436106100b2575f3560e01c80634e7f9b191161006f5780634e7f9b191461019a5780636e1d616e146101ca57806391d14854146101e8578063a217fddf14610218578063c942adf714610236578063d547741f14610269576100b2565b806301ffc9a7146100b65780631fd22601146100e6578063248a9ca3146101165780632f2ff15d1461014657806336568abe1461016257806346d110901461017e575b5f5ffd5b6100d060048036038101906100cb9190610a4b565b610285565b6040516100dd9190610a90565b60405180910390f35b61010060048036038101906100fb9190610adc565b6102fe565b60405161010d9190610a90565b60405180910390f35b610130600480360381019061012b9190610adc565b61035c565b60405161013d9190610b16565b60405180910390f35b610160600480360381019061015b9190610b89565b610378565b005b61017c60048036038101906101779190610b89565b61039a565b005b61019860048036038101906101939190610d36565b610415565b005b6101b460048036038101906101af9190610da2565b6104c2565b6040516101c19190610eab565b60405180910390f35b6101d26105a9565b6040516101df9190610b16565b60405180910390f35b61020260048036038101906101fd9190610b89565b6105cd565b60405161020f9190610a90565b60405180910390f35b610220610630565b60405161022d9190610b16565b60405180910390f35b610250600480360381019061024b9190610da2565b610636565b6040516102609493929190610f22565b60405180910390f35b610283600480360381019061027e9190610b89565b6106f7565b005b5f7f7965db0b000000000000000000000000000000000000000000000000000000007bffffffffffffffffffffffffffffffffffffffffffffffffffffffff1916827bffffffffffffffffffffffffffffffffffffffffffffffffffffffff191614806102f757506102f682610719565b5b9050919050565b5f5f5f90505b60018054905081101561035257826001828154811061032657610325610f6c565b5b905f5260205f2090600402016001015403610345576001915050610357565b8080600101915050610304565b505f90505b919050565b5f5f5f8381526020019081526020015f20600101549050919050565b6103818261035c565b61038a81610782565b6103948383610796565b50505050565b6103a261087f565b73ffffffffffffffffffffffffffffffffffffffff168173ffffffffffffffffffffffffffffffffffffffff1614610406576040517f6697b23200000000000000000000000000000000000000000000000000000000815260040160405180910390fd5b6104108282610886565b505050565b7f59a1c48e5837ad7a7f3dcedcbe129bf3249ec4fbf651fd4f5e2600ead39fe2f561043f81610782565b6001604051806080016040528086815260200185815260200184815260200142815250908060018154018082558091505060019003905f5260205f2090600402015f909190919091505f820151815f01556020820151816001015560408201518160020190816104af91906111a7565b5060608201518160030155505050505050565b6104ca6109c0565b600182815481106104de576104dd610f6c565b5b905f5260205f2090600402016040518060800160405290815f82015481526020016001820154815260200160028201805461051890610fc6565b80601f016020809104026020016040519081016040528092919081815260200182805461054490610fc6565b801561058f5780601f106105665761010080835404028352916020019161058f565b820191905f5260205f20905b81548152906001019060200180831161057257829003601f168201915b505050505081526020016003820154815250509050919050565b7f59a1c48e5837ad7a7f3dcedcbe129bf3249ec4fbf651fd4f5e2600ead39fe2f581565b5f5f5f8481526020019081526020015f205f015f8373ffffffffffffffffffffffffffffffffffffffff1673ffffffffffffffffffffffffffffffffffffffff1681526020019081526020015f205f9054906101000a900460ff16905092915050565b5f5f1b81565b60018181548110610645575f80fd5b905f5260205f2090600402015f91509050805f01549080600101549080600201805461067090610fc6565b80601f016020809104026020016040519081016040528092919081815260200182805461069c90610fc6565b80156106e75780601f106106be576101008083540402835291602001916106e7565b820191905f5260205f20905b8154815290600101906020018083116106ca57829003601f168201915b5050505050908060030154905084565b6107008261035c565b61070981610782565b6107138383610886565b50505050565b5f7f01ffc9a7000000000000000000000000000000000000000000000000000000007bffffffffffffffffffffffffffffffffffffffffffffffffffffffff1916827bffffffffffffffffffffffffffffffffffffffffffffffffffffffff1916149050919050565b6107938161078e61087f565b61096f565b50565b5f6107a183836105cd565b6108755760015f5f8581526020019081526020015f205f015f8473ffffffffffffffffffffffffffffffffffffffff1673ffffffffffffffffffffffffffffffffffffffff1681526020019081526020015f205f6101000a81548160ff02191690831515021790555061081261087f565b73ffffffffffffffffffffffffffffffffffffffff168273ffffffffffffffffffffffffffffffffffffffff16847f2f8788117e7eff1d82e926ec794901d17c78024a50270940304540a733656f0d60405160405180910390a460019050610879565b5f90505b92915050565b5f33905090565b5f61089183836105cd565b15610965575f5f5f8581526020019081526020015f205f015f8473ffffffffffffffffffffffffffffffffffffffff1673ffffffffffffffffffffffffffffffffffffffff1681526020019081526020015f205f6101000a81548160ff02191690831515021790555061090261087f565b73ffffffffffffffffffffffffffffffffffffffff168273ffffffffffffffffffffffffffffffffffffffff16847ff6391f5c32d9c69d2a47ea670b442974b53935d1edc7fd64eb21e047a839171b60405160405180910390a460019050610969565b5f90505b92915050565b61097982826105cd565b6109bc5780826040517fe2517d3f0000000000000000000000000000000000000000000000000000000081526004016109b3929190611285565b60405180910390fd5b5050565b60405180608001604052805f81526020015f8152602001606081526020015f81525090565b5f604051905090565b5f5ffd5b5f5ffd5b5f7fffffffff0000000000000000000000000000000000000000000000000000000082169050919050565b610a2a816109f6565b8114610a34575f5ffd5b50565b5f81359050610a4581610a21565b92915050565b5f60208284031215610a6057610a5f6109ee565b5b5f610a6d84828501610a37565b91505092915050565b5f8115159050919050565b610a8a81610a76565b82525050565b5f602082019050610aa35f830184610a81565b92915050565b5f819050919050565b610abb81610aa9565b8114610ac5575f5ffd5b50565b5f81359050610ad681610ab2565b92915050565b5f60208284031215610af157610af06109ee565b5b5f610afe84828501610ac8565b91505092915050565b610b1081610aa9565b82525050565b5f602082019050610b295f830184610b07565b92915050565b5f73ffffffffffffffffffffffffffffffffffffffff82169050919050565b5f610b5882610b2f565b9050919050565b610b6881610b4e565b8114610b72575f5ffd5b50565b5f81359050610b8381610b5f565b92915050565b5f5f60408385031215610b9f57610b9e6109ee565b5b5f610bac85828601610ac8565b9250506020610bbd85828601610b75565b9150509250929050565b5f819050919050565b610bd981610bc7565b8114610be3575f5ffd5b50565b5f81359050610bf481610bd0565b92915050565b5f5ffd5b5f5ffd5b5f601f19601f8301169050919050565b7f4e487b71000000000000000000000000000000000000000000000000000000005f52604160045260245ffd5b610c4882610c02565b810181811067ffffffffffffffff82111715610c6757610c66610c12565b5b80604052505050565b5f610c796109e5565b9050610c858282610c3f565b919050565b5f67ffffffffffffffff821115610ca457610ca3610c12565b5b610cad82610c02565b9050602081019050919050565b828183375f83830152505050565b5f610cda610cd584610c8a565b610c70565b905082815260208101848484011115610cf657610cf5610bfe565b5b610d01848285610cba565b509392505050565b5f82601f830112610d1d57610d1c610bfa565b5b8135610d2d848260208601610cc8565b91505092915050565b5f5f5f60608486031215610d4d57610d4c6109ee565b5b5f610d5a86828701610be6565b9350506020610d6b86828701610ac8565b925050604084013567ffffffffffffffff811115610d8c57610d8b6109f2565b5b610d9886828701610d09565b9150509250925092565b5f60208284031215610db757610db66109ee565b5b5f610dc484828501610be6565b91505092915050565b610dd681610bc7565b82525050565b610de581610aa9565b82525050565b5f81519050919050565b5f82825260208201905092915050565b8281835e5f83830152505050565b5f610e1d82610deb565b610e278185610df5565b9350610e37818560208601610e05565b610e4081610c02565b840191505092915050565b5f608083015f830151610e605f860182610dcd565b506020830151610e736020860182610ddc565b5060408301518482036040860152610e8b8282610e13565b9150506060830151610ea06060860182610dcd565b508091505092915050565b5f6020820190508181035f830152610ec38184610e4b565b905092915050565b610ed481610bc7565b82525050565b5f82825260208201905092915050565b5f610ef482610deb565b610efe8185610eda565b9350610f0e818560208601610e05565b610f1781610c02565b840191505092915050565b5f608082019050610f355f830187610ecb565b610f426020830186610b07565b8181036040830152610f548185610eea565b9050610f636060830184610ecb565b95945050505050565b7f4e487b71000000000000000000000000000000000000000000000000000000005f52603260045260245ffd5b7f4e487b71000000000000000000000000000000000000000000000000000000005f52602260045260245ffd5b5f6002820490506001821680610fdd57607f821691505b602082108103610ff057610fef610f99565b5b50919050565b5f819050815f5260205f209050919050565b5f6020601f8301049050919050565b5f82821b905092915050565b5f600883026110527fffffffffffffffffffffffffffffffffffffffffffffffffffffffffffffffff82611017565b61105c8683611017565b95508019841693508086168417925050509392505050565b5f819050919050565b5f61109761109261108d84610bc7565b611074565b610bc7565b9050919050565b5f819050919050565b6110b08361107d565b6110c46110bc8261109e565b848454611023565b825550505050565b5f5f905090565b6110db6110cc565b6110e68184846110a7565b505050565b5f5b8281101561110c576111015f8284016110d3565b6001810190506110ed565b505050565b601f82111561115f578282111561115e5761112b81610ff6565b61113483611008565b61113d85611008565b602086101561114a575f90505b808301611159828403826110eb565b505050505b5b505050565b5f82821c905092915050565b5f61117f5f1984600802611164565b1980831691505092915050565b5f6111978383611170565b9150826002028217905092915050565b6111b082610deb565b67ffffffffffffffff8111156111c9576111c8610c12565b5b6111d38254610fc6565b6111de828285611111565b5f60209050601f83116001811461120f575f84156111fd578287015190505b611207858261118c565b86555061126e565b601f19841661121d86610ff6565b5f5b828110156112445784890151825560018201915060208501945060208101905061121f565b86831015611261578489015161125d601f891682611170565b8355505b6001600288020188555050505b505050505050565b61127f81610b4e565b82525050565b5f6040820190506112985f830185611276565b6112a56020830184610b07565b939250505056fea2646970667358221220645b88afa2668b0ac26dfa718c4806e1ad1ec88006ff39ac31b4aa78f947f6e064736f6c63430008210033","linkReferences":{}},"methodIdentifiers":{"AUDITOR_ROLE()":"6e1d616e","DEFAULT_ADMIN_ROLE()":"a217fddf","getReport(uint256)":"4e7f9b19","getRoleAdmin(bytes32)":"248a9ca3","grantRole(bytes32,address)":"2f2ff15d","hasRole(bytes32,address)":"91d14854","renounceRole(bytes32,address)":"36568abe","reports(uint256)":"c942adf7","revokeRole(bytes32,address)":"d547741f","storeReport(uint256,bytes32,bytes)":"46d11090","supportsInterface(bytes4)":"01ffc9a7","verifyReport(bytes32)":"1fd22601"},"id":30}