{"abi":[{"type":"constructor","inputs":[],"stateMutability":"nonpayable"},{"type":"function","name":"AUDITOR_ROLE","inputs":[],"outputs":[{"name":"","type":"bytes32","internalType":"bytes32"}],"stateMutability":"view"},{"type":"function","name":"DEFAULT_ADMIN_ROLE","inputs":[],"outputs":[{"name":"","type":"bytes32","internalType":"bytes32"}],"stateMutability":"view"},{"type":"function","name":"getReport","inputs":[{"name":"id","type":"uint256","internalType":"uint256"}],"outputs":[{"name":"","type":"tuple","internalType":"struct AuditRegistry.Report","components":[{"name":"industryId","type":"uint256","internalType":"uint256"},{"name":"reportHash","type":"bytes32","internalType":"bytes32"},{"name":"auditorSignature","type":"bytes","internalType":"bytes"},{"name":"timestamp","type":"uint256","internalType":"uint256"},{"name":"verificationStatus","type":"string","internalType":"string"}]}],"stateMutability":"view"},{"type":"function","name":"getRoleAdmin","inputs":[{"name":"role","type":"bytes32","internalType":"bytes32"}],"outputs":[{"name":"","type":"bytes32","internalType":"bytes32"}],"stateMutability":"view"},{"type":"function","name":"grantRole","inputs":[{"name":"role","type":"bytes32","internalType":"bytes32"},{"name":"account","type":"address","internalType":"address"}],"outputs":[],"stateMutability":"nonpayable"},{"type":"function","name":"hasRole","inputs":[{"name":"role","type":"bytes32","internalType":"bytes32"},{"name":"account","type":"address","internalType":"address"}],"outputs":[{"name":"","type":"bool","internalType":"bool"}],"stateMutability":"view"},{"type":"function","name":"renounceRole","inputs":[{"name":"role","type":"bytes32","internalType":"bytes32"},{"name":"callerConfirmation","type":"address","internalType":"address"}],"outputs":[],"stateMutability":"nonpayable"},{"type":"function","name":"reports","inputs":[{"name":"","type":"uint256","internalType":"uint256"}],"outputs":[{"name":"industryId","type":"uint256","internalType":"uint256"},{"name":"reportHash","type":"bytes32","internalType":"bytes32"},{"name":"auditorSignature","type":"bytes","internalType":"bytes"},{"name":"timestamp","type":"uint256","internalType":"uint256"},{"name":"verificationStatus","type":"string","internalType":"string"}],"stateMutability":"view"},{"type":"function","name":"revokeRole","inputs":[{"name":"role","type":"bytes32","internalType":"bytes32"},{"name":"account","type":"address","internalType":"address"}],"outputs":[],"stateMutability":"nonpayable"},{"type":"function","name":"storeReport","inputs":[{"name":"industryId","type":"uint256","internalType":"uint256"},{"name":"reportHash","type":"bytes32","internalType":"bytes32"},{"name":"auditorSig","type":"bytes","internalType":"bytes"},{"name":"verificationStatus","type":"string","internalType":"string"}],"outputs":[],"stateMutability":"nonpayable"},{"type":"function","name":"supportsInterface","inputs":[{"name":"interfaceId","type":"bytes4","internalType":"bytes4"}],"outputs":[{"name":"","type":"bool","internalType":"bool"}],"stateMutability":"view"},{"type":"function","name":"verifyReport","inputs":[{"name":"hash","type":"bytes32","internalType":"bytes32"}],"outputs":[{"name":"","type":"bool","internalType":"bool"}],"stateMutability":"view"},{"type":"event","name":"RoleAdminChanged","inputs":[{"name":"role","type":"bytes32","indexed":true,"internalType":"bytes32"},{"name":"previousAdminRole","type":"bytes32","indexed":true,"internalType":"bytes32"},{"name":"newAdminRole","type":"bytes32","indexed":true,"internalType":"bytes32"}],"anonymous":false},{"type":"event","name":"RoleGranted","inputs":[{"name":"role","type":"bytes32","indexed":true,"internalType":"bytes32"},{"name":"account","type":"address","indexed":true,"internalType":"address"},{"name":"sender","type":"address","indexed":true,"internalType":"address"}],"anonymous":false},{"type":"event","name":"RoleRevoked","inputs":[{"name":"role","type":"bytes32","indexed":true,"internalType":"bytes32"},{"name":"account","type":"address","indexed":true,"internalType":"address"},{"name":"sender","type":"address","indexed":true,"internalType":"address"}],"anonymous":false},{"type":"error","name":"AccessControlBadConfirmation","inputs":[]},{"type":"error","name":"AccessControlUnauthorizedAccount","inputs":[{"name":"account","type":"address","internalType":"address"},{"name":"neededRole","type":"bytes32","internalType":"bytes32"}]}],"bytecode":{"object":"0x608060405234801561000f575f5ffd5b506100225f5f1b3361005960201b60201c565b506100537f59a1c48e5837ad7a7f3dcedcbe129bf3249ec4fbf651fd4f5e2600ead39fe2f53361005960201b60201c565b506101b8565b5f61006a838361014e60201b60201c565b6101445760015f5f8581526020019081526020015f205f015f8473ffffffffffffffffffffffffffffffffffffffff1673ffffffffffffffffffffffffffffffffffffffff1681526020019081526020015f205f6101000a81548160ff0219169083151502179055506100e16101b160201b60201c565b73ffffffffffffffffffffffffffffffffffffffff168273ffffffffffffffffffffffffffffffffffffffff16847f2f8788117e7eff1d82e926ec794901d17c78024a50270940304540a733656f0d60405160405180910390a460019050610148565b5f90505b92915050565b5f5f5f8481526020019081526020015f205f015f8373ffffffffffffffffffffffffffffffffffffffff1673ffffffffffffffffffffffffffffffffffffffff1681526020019081526020015f205f9054906101000a900460ff16905092915050565b5f33905090565b6116ee806101c55f395ff3fe608060405234801561000f575f5ffd5b50600436106100b2575f3560e01c80634e7f9b191161006f5780634e7f9b191461019a5780636e1d616e146101ca57806391d14854146101e8578063a217fddf14610218578063c942adf714610236578063d547741f1461026a576100b2565b806301ffc9a7146100b65780631fd22601146100e6578063248a9ca3146101165780632f2ff15d1461014657806336568abe1461016257806342477c6d1461017e575b5f5ffd5b6100d060048036038101906100cb9190610b8c565b610286565b6040516100dd9190610bd1565b60405180910390f35b61010060048036038101906100fb9190610c1d565b6102ff565b60405161010d9190610bd1565b60405180910390f35b610130600480360381019061012b9190610c1d565b61035d565b60405161013d9190610c57565b60405180910390f35b610160600480360381019061015b9190610cca565b610379565b005b61017c60048036038101906101779190610cca565b61039b565b005b61019860048036038101906101939190610f15565b610416565b005b6101b460048036038101906101af9190610fb1565b6104e0565b6040516101c19190611126565b60405180910390f35b6101d2610657565b6040516101df9190610c57565b60405180910390f35b61020260048036038101906101fd9190610cca565b61067b565b60405161020f9190610bd1565b60405180910390f35b6102206106de565b60405161022d9190610c57565b60405180910390f35b610250600480360381019061024b9190610fb1565b6106e4565b6040516102619594939291906111e5565b60405180910390f35b610284600480360381019061027f9190610cca565b610831565b005b5f7f7965db0b000000000000000000000000000000000000000000000000000000007bffffffffffffffffffffffffffffffffffffffffffffffffffffffff1916827bffffffffffffffffffffffffffffffffffffffffffffffffffffffff191614806102f857506102f782610853565b5b9050919050565b5f5f5f90505b60018054905081101561035357826001828154811061032757610326611244565b5b905f5260205f2090600502016001015403610346576001915050610358565b8080600101915050610305565b505f90505b919050565b5f5f5f8381526020019081526020015f20600101549050919050565b6103828261035d565b61038b816108bc565b61039583836108d0565b50505050565b6103a36109b9565b73ffffffffffffffffffffffffffffffffffffffff168173ffffffffffffffffffffffffffffffffffffffff1614610407576040517f6697b23200000000000000000000000000000000000000000000000000000000815260040160405180910390fd5b61041182826109c0565b505050565b7f59a1c48e5837ad7a7f3dcedcbe129bf3249ec4fbf651fd4f5e2600ead39fe2f5610440816108bc565b60016040518060a0016040528087815260200186815260200185815260200142815260200184815250908060018154018082558091505060019003905f5260205f2090600502015f909190919091505f820151815f01556020820151816001015560408201518160020190816104b6919061147f565b506060820151816003015560808201518160040190816104d691906115b3565b5050505050505050565b6104e8610afa565b600182815481106104fc576104fb611244565b5b905f5260205f2090600502016040518060a00160405290815f8201548152602001600182015481526020016002820180546105369061129e565b80601f01602080910402602001604051908101604052809291908181526020018280546105629061129e565b80156105ad5780601f10610584576101008083540402835291602001916105ad565b820191905f5260205f20905b81548152906001019060200180831161059057829003601f168201915b50505050508152602001600382015481526020016004820180546105d09061129e565b80601f01602080910402602001604051908101604052809291908181526020018280546105fc9061129e565b80156106475780601f1061061e57610100808354040283529160200191610647565b820191905f5260205f20905b81548152906001019060200180831161062a57829003601f168201915b5050505050815250509050919050565b7f59a1c48e5837ad7a7f3dcedcbe129bf3249ec4fbf651fd4f5e2600ead39fe2f581565b5f5f5f8481526020019081526020015f205f015f8373ffffffffffffffffffffffffffffffffffffffff1673ffffffffffffffffffffffffffffffffffffffff1681526020019081526020015f205f9054906101000a900460ff16905092915050565b5f5f1b81565b600181815481106106f3575f80fd5b905f5260205f2090600502015f91509050805f01549080600101549080600201805461071e9061129e565b80601f016020809104026020016040519081016040528092919081815260200182805461074a9061129e565b80156107955780601f1061076c57610100808354040283529160200191610795565b820191905f5260205f20905b81548152906001019060200180831161077857829003601f168201915b5050505050908060030154908060040180546107b09061129e565b80601f01602080910402602001604051908101604052809291908181526020018280546107dc9061129e565b80156108275780601f106107fe57610100808354040283529160200191610827565b820191905f5260205f20905b81548152906001019060200180831161080a57829003601f168201915b5050505050905085565b61083a8261035d565b610843816108bc565b61084d83836109c0565b50505050565b5f7f01ffc9a7000000000000000000000000000000000000000000000000000000007bffffffffffffffffffffffffffffffffffffffffffffffffffffffff1916827bffffffffffffffffffffffffffffffffffffffffffffffffffffffff1916149050919050565b6108cd816108c86109b9565b610aa9565b50565b5f6108db838361067b565b6109af5760015f5f8581526020019081526020015f205f015f8473ffffffffffffffffffffffffffffffffffffffff1673ffffffffffffffffffffffffffffffffffffffff1681526020019081526020015f205f6101000a81548160ff02191690831515021790555061094c6109b9565b73ffffffffffffffffffffffffffffffffffffffff168273ffffffffffffffffffffffffffffffffffffffff16847f2f8788117e7eff1d82e926ec794901d17c78024a50270940304540a733656f0d60405160405180910390a4600190506109b3565b5f90505b92915050565b5f33905090565b5f6109cb838361067b565b15610a9f575f5f5f8581526020019081526020015f205f015f8473ffffffffffffffffffffffffffffffffffffffff1673ffffffffffffffffffffffffffffffffffffffff1681526020019081526020015f205f6101000a81548160ff021916908315150217905550610a3c6109b9565b73ffffffffffffffffffffffffffffffffffffffff168273ffffffffffffffffffffffffffffffffffffffff16847ff6391f5c32d9c69d2a47ea670b442974b53935d1edc7fd64eb21e047a839171b60405160405180910390a460019050610aa3565b5f90505b92915050565b610ab3828261067b565b610af65780826040517fe2517d3f000000000000000000000000000000000000000000000000000000008152600401610aed929190611691565b60405180910390fd5b5050565b6040518060a001604052805f81526020015f8152602001606081526020015f8152602001606081525090565b5f604051905090565b5f5ffd5b5f5ffd5b5f7fffffffff0000000000000000000000000000000000000000000000000000000082169050919050565b610b6b81610b37565b8114610b75575f5ffd5b50565b5f81359050610b8681610b62565b92915050565b5f60208284031215610ba157610ba0610b2f565b5b5f610bae84828501610b78565b91505092915050565b5f8115159050919050565b610bcb81610bb7565b82525050565b5f602082019050610be45f830184610bc2565b92915050565b5f819050919050565b610bfc81610bea565b8114610c06575f5ffd5b50565b5f81359050610c1781610bf3565b92915050565b5f60208284031215610c3257610c31610b2f565b5b5f610c3f84828501610c09565b91505092915050565b610c5181610bea565b82525050565b5f602082019050610c6a5f830184610c48565b92915050565b5f73ffffffffffffffffffffffffffffffffffffffff82169050919050565b5f610c9982610c70565b9050919050565b610ca981610c8f565b8114610cb3575f5ffd5b50565b5f81359050610cc481610ca0565b92915050565b5f5f60408385031215610ce057610cdf610b2f565b5b5f610ced85828601610c09565b9250506020610cfe85828601610cb6565b9150509250929050565b5f819050919050565b610d1a81610d08565b8114610d24575f5ffd5b50565b5f81359050610d3581610d11565b92915050565b5f5ffd5b5f5ffd5b5f601f19601f8301169050919050565b7f4e487b71000000000000000000000000000000000000000000000000000000005f52604160045260245ffd5b610d8982610d43565b810181811067ffffffffffffffff82111715610da857610da7610d53565b5b80604052505050565b5f610dba610b26565b9050610dc68282610d80565b919050565b5f67ffffffffffffffff821115610de557610de4610d53565b5b610dee82610d43565b9050602081019050919050565b828183375f83830152505050565b5f610e1b610e1684610dcb565b610db1565b905082815260208101848484011115610e3757610e36610d3f565b5b610e42848285610dfb565b509392505050565b5f82601f830112610e5e57610e5d610d3b565b5b8135610e6e848260208601610e09565b91505092915050565b5f67ffffffffffffffff821115610e9157610e90610d53565b5b610e9a82610d43565b9050602081019050919050565b5f610eb9610eb484610e77565b610db1565b905082815260208101848484011115610ed557610ed4610d3f565b5b610ee0848285610dfb565b509392505050565b5f82601f830112610efc57610efb610d3b565b5b8135610f0c848260208601610ea7565b91505092915050565b5f5f5f5f60808587031215610f2d57610f2c610b2f565b5b5f610f3a87828801610d27565b9450506020610f4b87828801610c09565b935050604085013567ffffffffffffffff811115610f6c57610f6b610b33565b5b610f7887828801610e4a565b925050606085013567ffffffffffffffff811115610f9957610f98610b33565b5b610fa587828801610ee8565b91505092959194509250565b5f60208284031215610fc657610fc5610b2f565b5b5f610fd384828501610d27565b91505092915050565b610fe581610d08565b82525050565b610ff481610bea565b82525050565b5f81519050919050565b5f82825260208201905092915050565b8281835e5f83830152505050565b5f61102c82610ffa565b6110368185611004565b9350611046818560208601611014565b61104f81610d43565b840191505092915050565b5f81519050919050565b5f82825260208201905092915050565b5f61107e8261105a565b6110888185611064565b9350611098818560208601611014565b6110a181610d43565b840191505092915050565b5f60a083015f8301516110c15f860182610fdc565b5060208301516110d46020860182610feb565b50604083015184820360408601526110ec8282611022565b91505060608301516111016060860182610fdc565b50608083015184820360808601526111198282611074565b9150508091505092915050565b5f6020820190508181035f83015261113e81846110ac565b905092915050565b61114f81610d08565b82525050565b5f82825260208201905092915050565b5f61116f82610ffa565b6111798185611155565b9350611189818560208601611014565b61119281610d43565b840191505092915050565b5f82825260208201905092915050565b5f6111b78261105a565b6111c1818561119d565b93506111d1818560208601611014565b6111da81610d43565b840191505092915050565b5f60a0820190506111f85f830188611146565b6112056020830187610c48565b81810360408301526112178186611165565b90506112266060830185611146565b818103608083015261123881846111ad565b90509695505050505050565b7f4e487b71000000000000000000000000000000000000000000000000000000005f52603260045260245ffd5b7f4e487b71000000000000000000000000000000000000000000000000000000005f52602260045260245ffd5b5f60028204905060018216806112b557607f821691505b6020821081036112c8576112c7611271565b5b50919050565b5f819050815f5260205f209050919050565b5f6020601f8301049050919050565b5f82821b905092915050565b5f6008830261132a7fffffffffffffffffffffffffffffffffffffffffffffffffffffffffffffffff826112ef565b61133486836112ef565b95508019841693508086168417925050509392505050565b5f819050919050565b5f61136f61136a61136584610d08565b61134c565b610d08565b9050919050565b5f819050919050565b61138883611355565b61139c61139482611376565b8484546112fb565b825550505050565b5f5f905090565b6113b36113a4565b6113be81848461137f565b505050565b5f5b828110156113e4576113d95f8284016113ab565b6001810190506113c5565b505050565b601f821115611437578282111561143657611403816112ce565b61140c836112e0565b611415856112e0565b6020861015611422575f90505b808301611431828403826113c3565b505050505b5b505050565b5f82821c905092915050565b5f6114575f198460080261143c565b1980831691505092915050565b5f61146f8383611448565b9150826002028217905092915050565b61148882610ffa565b67ffffffffffffffff8111156114a1576114a0610d53565b5b6114ab825461129e565b6114b68282856113e9565b5f60209050601f8311600181146114e7575f84156114d5578287015190505b6114df8582611464565b865550611546565b601f1984166114f5866112ce565b5f5b8281101561151c578489015182556001820191506020850194506020810190506114f7565b868310156115395784890151611535601f891682611448565b8355505b6001600288020188555050505b505050505050565b5f819050815f5260205f209050919050565b601f8211156115ae57828211156115ad5761157a8161154e565b611583836112e0565b61158c856112e0565b6020861015611599575f90505b8083016115a8828403826113c3565b505050505b5b505050565b6115bc8261105a565b67ffffffffffffffff8111156115d5576115d4610d53565b5b6115df825461129e565b6115ea828285611560565b5f60209050601f83116001811461161b575f8415611609578287015190505b6116138582611464565b86555061167a565b601f1984166116298661154e565b5f5b828110156116505784890151825560018201915060208501945060208101905061162b565b8683101561166d5784890151611669601f891682611448565b8355505b6001600288020188555050505b505050505050565b61168b81610c8f565b82525050565b5f6040820190506116a45f830185611682565b6116b16020830184610c48565b939250505056fea26469706673582212208764ff71891024d850b1d74d2819e950785f8c2c093f678b8a49aeb138251e6564736f6c63430008210033","linkReferences":{}},"methodIdentifiers":{"AUDITOR_ROLE()":"6e1d616e","DEFAULT_ADMIN_ROLE()":"a217fddf","getReport(uint256)":"4e7f9b19","getRoleAdmin(bytes32)":"248a9ca3","grantRole(bytes32,address)":"2f2ff15d","hasRole(bytes32,address)":"91d14854","renounceRole(bytes32,address)":"36568abe","reports(uint256)":"c942adf7","revokeRole(bytes32,address)":"d547741f","storeReport(uint256,bytes32,bytes,string)":"42477c6d","supportsInterface(bytes4)":"01ffc9a7","verifyReport(bytes32)":"1fd22601"},"id":27}