{"abi":[{"type":"constructor","inputs":[],"stateMutability":"nonpayable"},{"type":"function","name":"AUDITOR_ROLE","inputs":[],"outputs":[{"name":"","type":"bytes32","internalType":"bytes32"}],"stateMutability":"view"},{"type":"function","name":"DEFAULT_ADMIN_ROLE","inputs":[],"outputs":[{"name":"","type":"bytes32","internalType":"bytes32"}],"stateMutability":"view"},{"type":"function","name":"GOV_ROLE","inputs":[],"outputs":[{"name":"","type":"bytes32","internalType":"bytes32"}],"stateMutability":"view"},{"type":"function","name":"INDUSTRY_ROLE","inputs":[],"outputs":[{"name":"","type":"bytes32","internalType":"bytes32"}],"stateMutability":"view"},{"type":"function","name":"getRoleAdmin","inputs":[{"name":"role","type":"bytes32","internalType":"bytes32"}],"outputs":[{"name":"","type":"bytes32","internalType":"bytes32"}],"stateMutability":"view"},{"type":"function","name":"grantAuditor","inputs":[{"name":"user","type":"address","internalType":"address"}],"outputs":[],"stateMutability":"nonpayable"},{"type":"function","name":"grantGov","inputs":[{"name":"user","type":"address","internalType":"address"}],"outputs":[],"stateMutability":"nonpayable"},{"type":"function","name":"grantIndustry","inputs":[{"name":"user","type":"address","internalType":"address"}],"outputs":[],"stateMutability":"nonpayable"},{"type":"function","name":"grantRole","inputs":[{"name":"role","type":"bytes32","internalType":"bytes32"},{"name":"account","type":"address","internalType":"address"}],"outputs":[],"stateMutability":"nonpayable"},{"type":"function","name":"hasRole","inputs":[{"name":"role","type":"bytes32","internalType":"bytes32"},{"name":"account","type":"address","internalType":"address"}],"outputs":[{"name":"","type":"bool","internalType":"bool"}],"stateMutability":"view"},{"type":"function","name":"renounceRole","inputs":[{"name":"role","type":"bytes32","internalType":"bytes32"},{"name":"callerConfirmation","type":"address","internalType":"address"}],"outputs":[],"stateMutability":"nonpayable"},{"type":"function","name":"revokeRole","inputs":[{"name":"role","type":"bytes32","internalType":"bytes32"},{"name":"account","type":"address","internalType":"address"}],"outputs":[],"stateMutability":"nonpayable"},{"type":"function","name":"revokeUser","inputs":[{"name":"role","type":"bytes32","internalType":"bytes32"},{"name":"user","type":"address","internalType":"address"}],"outputs":[],"stateMutability":"nonpayable"},{"type":"function","name":"supportsInterface","inputs":[{"name":"interfaceId","type":"bytes4","internalType":"bytes4"}],"outputs":[{"name":"","type":"bool","internalType":"bool"}],"stateMutability":"view"},{"type":"event","name":"RoleAdminChanged","inputs":[{"name":"role","type":"bytes32","indexed":true,"internalType":"bytes32"},{"name":"previousAdminRole","type":"bytes32","indexed":true,"internalType":"bytes32"},{"name":"newAdminRole","type":"bytes32","indexed":true,"internalType":"bytes32"}],"anonymous":false},{"type":"event","name":"RoleGranted","inputs":[{"name":"role","type":"bytes32","indexed":true,"internalType":"bytes32"},{"name":"account","type":"address","indexed":true,"internalType":"address"},{"name":"sender","type":"address","indexed":true,"internalType":"address"}],"anonymous":false},{"type":"event","name":"RoleRevoked","inputs":[{"name":"role","type":"bytes32","indexed":true,"internalType":"bytes32"},{"name":"account","type":"address","indexed":true,"internalType":"address"},{"name":"sender","type":"address","indexed":true,"internalType":"address"}],"anonymous":false},{"type":"error","name":"AccessControlBadConfirmation","inputs":[]},{"type":"error","name":"AccessControlUnauthorizedAccount","inputs":[{"name":"account","type":"address","internalType":"address"},{"name":"neededRole","type":"bytes32","internalType":"bytes32"}]}],"bytecode":{"object":"0x608060405234801561000f575f5ffd5b506100225f5f1b3361002860201b60201c565b50610187565b5f610039838361011d60201b60201c565b6101135760015f5f8581526020019081526020015f205f015f8473ffffffffffffffffffffffffffffffffffffffff1673ffffffffffffffffffffffffffffffffffffffff1681526020019081526020015f205f6101000a81548160ff0219169083151502179055506100b061018060201b60201c565b73ffffffffffffffffffffffffffffffffffffffff168273ffffffffffffffffffffffffffffffffffffffff16847f2f8788117e7eff1d82e926ec794901d17c78024a50270940304540a733656f0d60405160405180910390a460019050610117565b5f90505b92915050565b5f5f5f8481526020019081526020015f205f015f8373ffffffffffffffffffffffffffffffffffffffff1673ffffffffffffffffffffffffffffffffffffffff1681526020019081526020015f205f9054906101000a900460ff16905092915050565b5f33905090565b610abd806101945f395ff3fe608060405234801561000f575f5ffd5b50600436106100e8575f3560e01c806391d148541161008a578063b628899211610064578063b628899214610248578063be5b9b6014610264578063d547741f14610280578063e55b4f931461029c576100e8565b806391d14854146101dc578063a217fddf1461020c578063b536818a1461022a576100e8565b80632f2ff15d116100c65780632f2ff15d1461016857806336568abe146101845780636d3491ec146101a05780636e1d616e146101be576100e8565b806301ffc9a7146100ec5780630239a9491461011c578063248a9ca314610138575b5f5ffd5b610106600480360381019061010191906108aa565b6102b8565b60405161011391906108ef565b60405180910390f35b61013660048036038101906101319190610962565b610331565b005b610152600480360381019061014d91906109c0565b61036b565b60405161015f91906109fa565b60405180910390f35b610182600480360381019061017d9190610a13565b610387565b005b61019e60048036038101906101999190610a13565b6103a9565b005b6101a8610424565b6040516101b591906109fa565b60405180910390f35b6101c6610448565b6040516101d391906109fa565b60405180910390f35b6101f660048036038101906101f19190610a13565b61046c565b60405161020391906108ef565b60405180910390f35b6102146104cf565b60405161022191906109fa565b60405180910390f35b6102326104d5565b60405161023f91906109fa565b60405180910390f35b610262600480360381019061025d9190610962565b6104f9565b005b61027e60048036038101906102799190610a13565b610533565b005b61029a60048036038101906102959190610a13565b61054e565b005b6102b660048036038101906102b19190610962565b610570565b005b5f7f7965db0b000000000000000000000000000000000000000000000000000000007bffffffffffffffffffffffffffffffffffffffffffffffffffffffff1916827bffffffffffffffffffffffffffffffffffffffffffffffffffffffff1916148061032a5750610329826105aa565b5b9050919050565b5f5f1b61033d81610613565b6103677f067a7283e9fa435a2cc6bf2bc9d402b66be84693c88be7e59ff28ee68238b50583610387565b5050565b5f5f5f8381526020019081526020015f20600101549050919050565b6103908261036b565b61039981610613565b6103a38383610627565b50505050565b6103b1610710565b73ffffffffffffffffffffffffffffffffffffffff168173ffffffffffffffffffffffffffffffffffffffff1614610415576040517f6697b23200000000000000000000000000000000000000000000000000000000815260040160405180910390fd5b61041f8282610717565b505050565b7f067a7283e9fa435a2cc6bf2bc9d402b66be84693c88be7e59ff28ee68238b50581565b7f59a1c48e5837ad7a7f3dcedcbe129bf3249ec4fbf651fd4f5e2600ead39fe2f581565b5f5f5f8481526020019081526020015f205f015f8373ffffffffffffffffffffffffffffffffffffffff1673ffffffffffffffffffffffffffffffffffffffff1681526020019081526020015f205f9054906101000a900460ff16905092915050565b5f5f1b81565b7f0603f2636f0ca34ae3ea5a23bb826e2bd2ffd59fb1c01edc1ba10fba2899d1ba81565b5f5f1b61050581610613565b61052f7f0603f2636f0ca34ae3ea5a23bb826e2bd2ffd59fb1c01edc1ba10fba2899d1ba83610387565b5050565b5f5f1b61053f81610613565b610549838361054e565b505050565b6105578261036b565b61056081610613565b61056a8383610717565b50505050565b5f5f1b61057c81610613565b6105a67f59a1c48e5837ad7a7f3dcedcbe129bf3249ec4fbf651fd4f5e2600ead39fe2f583610387565b5050565b5f7f01ffc9a7000000000000000000000000000000000000000000000000000000007bffffffffffffffffffffffffffffffffffffffffffffffffffffffff1916827bffffffffffffffffffffffffffffffffffffffffffffffffffffffff1916149050919050565b6106248161061f610710565b610800565b50565b5f610632838361046c565b6107065760015f5f8581526020019081526020015f205f015f8473ffffffffffffffffffffffffffffffffffffffff1673ffffffffffffffffffffffffffffffffffffffff1681526020019081526020015f205f6101000a81548160ff0219169083151502179055506106a3610710565b73ffffffffffffffffffffffffffffffffffffffff168273ffffffffffffffffffffffffffffffffffffffff16847f2f8788117e7eff1d82e926ec794901d17c78024a50270940304540a733656f0d60405160405180910390a46001905061070a565b5f90505b92915050565b5f33905090565b5f610722838361046c565b156107f6575f5f5f8581526020019081526020015f205f015f8473ffffffffffffffffffffffffffffffffffffffff1673ffffffffffffffffffffffffffffffffffffffff1681526020019081526020015f205f6101000a81548160ff021916908315150217905550610793610710565b73ffffffffffffffffffffffffffffffffffffffff168273ffffffffffffffffffffffffffffffffffffffff16847ff6391f5c32d9c69d2a47ea670b442974b53935d1edc7fd64eb21e047a839171b60405160405180910390a4600190506107fa565b5f90505b92915050565b61080a828261046c565b61084d5780826040517fe2517d3f000000000000000000000000000000000000000000000000000000008152600401610844929190610a60565b60405180910390fd5b5050565b5f5ffd5b5f7fffffffff0000000000000000000000000000000000000000000000000000000082169050919050565b61088981610855565b8114610893575f5ffd5b50565b5f813590506108a481610880565b92915050565b5f602082840312156108bf576108be610851565b5b5f6108cc84828501610896565b91505092915050565b5f8115159050919050565b6108e9816108d5565b82525050565b5f6020820190506109025f8301846108e0565b92915050565b5f73ffffffffffffffffffffffffffffffffffffffff82169050919050565b5f61093182610908565b9050919050565b61094181610927565b811461094b575f5ffd5b50565b5f8135905061095c81610938565b92915050565b5f6020828403121561097757610976610851565b5b5f6109848482850161094e565b91505092915050565b5f819050919050565b61099f8161098d565b81146109a9575f5ffd5b50565b5f813590506109ba81610996565b92915050565b5f602082840312156109d5576109d4610851565b5b5f6109e2848285016109ac565b91505092915050565b6109f48161098d565b82525050565b5f602082019050610a0d5f8301846109eb565b92915050565b5f5f60408385031215610a2957610a28610851565b5b5f610a36858286016109ac565b9250506020610a478582860161094e565b9150509250929050565b610a5a81610927565b82525050565b5f604082019050610a735f830185610a51565b610a8060208301846109eb565b939250505056fea2646970667358221220186fff6aed962bfdb903f789d606596139f33a5c4fb028b9ee1643ad63fea88e64736f6c63430008210033","linkReferences":{}},"methodIdentifiers":{"AUDITOR_ROLE()":"6e1d616e","DEFAULT_ADMIN_ROLE()":"a217fddf","GOV_ROLE()":"b536818a","INDUSTRY_ROLE()":"6d3491ec","getRoleAdmin(bytes32)":"248a9ca3","grantAuditor(address)":"e55b4f93","grantGov(address)":"b6288992","grantIndustry(address)":"0239a949","grantRole(bytes32,address)":"2f2ff15d","hasRole(bytes32,address)":"91d14854","renounceRole(bytes32,address)":"36568abe","revokeRole(bytes32,address)":"d547741f","revokeUser(bytes32,address)":"be5b9b60","supportsInterface(bytes4)":"01ffc9a7"},"id":29}