{"project/contracts/CarbonCredit.sol":{"CarbonCredit":{"abi":[{"inputs":[],"stateMutability":"nonpayable","type":"constructor"},{"inputs":[],"name":"AccessControlBadConfirmation","type":"error"},{"inputs":[{"internalType":"address","name":"account","type":"address"},{"internalType":"bytes32","name":"neededRole","type":"bytes32"}],"name":"AccessControlUnauthorizedAccount","type":"error"},{"inputs":[{"internalType":"address","name":"spender","type":"address"},{"internalType":"uint256","name":"allowance","type":"uint256"},{"internalType":"uint256","name":"needed","type":"uint256"}],"name":"ERC20InsufficientAllowance","type":"error"},{"inputs":[{"internalType":"address","name":"sender","type":"address"},{"internalType":"uint256","name":"balance","type":"uint256"},{"internalType":"uint256","name":"needed","type":"uint256"}],"name":"ERC20InsufficientBalance","type":"error"},{"inputs":[{"internalType":"address","name":"approver","type":"address"}],"name":"ERC20InvalidApprover","type":"error"},{"inputs":[{"internalType":"address","name":"receiver","type":"address"}],"name":"ERC20InvalidReceiver","type":"error"},{"inputs":[{"internalType":"address","name":"sender","type":"address"}],"name":"ERC20InvalidSender","type":"error"},{"inputs":[{"internalType":"address","name":"spender","type":"address"}],"name":"ERC20InvalidSpender","type":"error"},{"anonymous":false,"inputs":[{"indexed":true,"internalType":"address","name":"owner","type":"address"},{"indexed":true,"internalType":"address","name":"spender","type":"address"},{"indexed":false,"internalType":"uint256","name":"value","type":"uint256"}],"name":"Approval","type":"event"},{"anonymous":false,"inputs":[{"indexed":true,"internalType":"bytes32","name":"role","type":"bytes32"},{"indexed":true,"internalType":"bytes32","name":"previousAdminRole","type":"bytes32"},{"indexed":true,"internalType":"bytes32","name":"newAdminRole","type":"bytes32"}],"name":"RoleAdminChanged","type":"event"},{"anonymous":false,"inputs":[{"indexed":true,"internalType":"bytes32","name":"role","type":"bytes32"},{"indexed":true,"internalType":"address","name":"account","type":"address"},{"indexed":true,"internalType":"address","name":"sender","type":"address"}],"name":"RoleGranted","type":"event"},{"anonymous":false,"inputs":[{"indexed":true,"internalType":"bytes32","name":"role","type":"bytes32"},{"indexed":true,"internalType":"address","name":"account","type":"address"},{"indexed":true,"internalType":"address","name":"sender","type":"address"}],"name":"RoleRevoked","type":"event"},{"anonymous":false,"inputs":[{"indexed":true,"internalType":"address","name":"from","type":"address"},{"indexed":true,"internalType":"address","name":"to","type":"address"},{"indexed":false,"internalType":"uint256","name":"value","type":"uint256"}],"name":"Transfer","type":"event"},{"inputs":[],"name":"DEFAULT_ADMIN_ROLE","outputs":[{"internalType":"bytes32","name":"","type":"bytes32"}],"stateMutability":"view","type":"function"},{"inputs":[],"name":"MINTER_ROLE","outputs":[{"internalType":"bytes32","name":"","type":"bytes32"}],"stateMutability":"view","type":"function"},{"inputs":[{"internalType":"address","name":"owner","type":"address"},{"internalType":"address","name":"spender","type":"address"}],"name":"allowance","outputs":[{"internalType":"uint256","name":"","type":"uint256"}],"stateMutability":"view","type":"function"},{"inputs":[{"internalType":"address","name":"spender","type":"address"},{"internalType":"uint256","name":"value","type":"uint256"}],"name":"approve","outputs":[{"internalType":"bool","name":"","type":"bool"}],"stateMutability":"nonpayable","type":"function"},{"inputs":[{"internalType":"address","name":"account","type":"address"}],"name":"balanceOf","outputs":[{"internalType":"uint256","name":"","type":"uint256"}],"stateMutability":"view","type":"function"},{"inputs":[{"internalType":"uint256","name":"value","type":"uint256"}],"name":"burn","outputs":[],"stateMutability":"nonpayable","type":"function"},{"inputs":[{"internalType":"address","name":"account","type":"address"},{"internalType":"uint256","name":"value","type":"uint256"}],"name":"burnFrom","outputs":[],"stateMutability":"nonpayable","type":"function"},{"inputs":[],"name":"decimals","outputs":[{"internalType":"uint8","name":"","type":"uint8"}],"stateMutability":"view","type":"function"},{"inputs":[{"internalType":"bytes32","name":"role","type":"bytes32"}],"name":"getRoleAdmin","outputs":[{"internalType":"bytes32","name":"","type":"bytes32"}],"stateMutability":"view","type":"function"},{"inputs":[{"internalType":"bytes32","name":"role","type":"bytes32"},{"internalType":"address","name":"account","type":"address"}],"name":"grantRole","outputs":[],"stateMutability":"nonpayable","type":"function"},{"inputs":[{"internalType":"bytes32","name":"role","type":"bytes32"},{"internalType":"address","name":"account","type":"address"}],"name":"hasRole","outputs":[{"internalType":"bool","name":"","type":"bool"}],"stateMutability":"view","type":"function"},{"inputs":[{"internalType":"address","name":"to","type":"address"},{"internalType":"uint256","name":"amount","type":"uint256"}],"name":"issueCredits","outputs":[],"stateMutability":"nonpayable","type":"function"},{"inputs":[],"name":"name","outputs":[{"internalType":"string","name":"","type":"string"}],"stateMutability":"view","type":"function"},{"inputs":[{"internalType":"bytes32","name":"role","type":"bytes32"},{"internalType":"address","name":"callerConfirmation","type":"address"}],"name":"renounceRole","outputs":[],"stateMutability":"nonpayable","type":"function"},{"inputs":[{"internalType":"address","name":"account","type":"address"},{"internalType":"uint256","name":"amount","type":"uint256"}],"name":"retireCredits","outputs":[],"stateMutability":"nonpayable","type":"function"},{"inputs":[{"internalType":"bytes32","name":"role","type":"bytes32"},{"internalType":"address","name":"account","type":"address"}],"name":"revokeRole","outputs":[],"stateMutability":"nonpayable","type":"function"},{"inputs":[{"internalType":"bytes4","name":"interfaceId","type":"bytes4"}],"name":"supportsInterface","outputs":[{"internalType":"bool","name":"","type":"bool"}],"stateMutability":"view","type":"function"},{"inputs":[],"name":"symbol","outputs":[{"internalType":"string","name":"","type":"string"}],"stateMutability":"view","type":"function"},{"inputs":[],"name":"totalSupply","outputs":[{"internalType":"uint256","name":"","type":"uint256"}],"stateMutability":"view","type":"function"},{"inputs":[{"internalType":"address","name":"to","type":"address"},{"internalType":"uint256","name":"value","type":"uint256"}],"name":"transfer","outputs":[{"internalType":"bool","name":"","type":"bool"}],"stateMutability":"nonpayable","type":"function"},{"inputs":[{"internalType":"address","name":"from","type":"address"},{"internalType":"address","name":"to","type":"address"},{"internalType":"uint256","name":"value","type":"uint256"}],"name":"transferFrom","outputs":[{"internalType":"bool","name":"","type":"bool"}],"stateMutability":"nonpayable","type":"function"}],"evm":{"bytecode":{"linkReferences":{},"object":"608060405234801562000010575f80fd5b506040518060400160405280601681526020017f45636f436861696e20436172626f6e20437265646974000000000000000000008152506040518060400160405280600381526020017f434352000000000000000000000000000000000000000000000000000000000081525081600390816200008e9190620004bc565b508060049081620000a09190620004bc565b505050620000b75f801b33620000f160201b60201c565b50620000ea7f9f2df0fed2c77648de5860a4cc508cd0818c85b8b8a1ab4ceeef8d981c8956a633620000f160201b60201c565b50620005a0565b5f620001048383620001ed60201b60201c565b620001e357600160055f8581526020019081526020015f205f015f8473ffffffffffffffffffffffffffffffffffffffff1673ffffffffffffffffffffffffffffffffffffffff1681526020019081526020015f205f6101000a81548160ff0219169083151502179055506200017f6200025160201b60201c565b73ffffffffffffffffffffffffffffffffffffffff168273ffffffffffffffffffffffffffffffffffffffff16847f2f8788117e7eff1d82e926ec794901d17c78024a50270940304540a733656f0d60405160405180910390a460019050620001e7565b5f90505b92915050565b5f60055f8481526020019081526020015f205f015f8373ffffffffffffffffffffffffffffffffffffffff1673ffffffffffffffffffffffffffffffffffffffff1681526020019081526020015f205f9054906101000a900460ff16905092915050565b5f33905090565b5f81519050919050565b7f4e487b71000000000000000000000000000000000000000000000000000000005f52604160045260245ffd5b7f4e487b71000000000000000000000000000000000000000000000000000000005f52602260045260245ffd5b5f6002820490506001821680620002d457607f821691505b602082108103620002ea57620002e96200028f565b5b50919050565b5f819050815f5260205f209050919050565b5f6020601f8301049050919050565b5f82821b905092915050565b5f600883026200034e7fffffffffffffffffffffffffffffffffffffffffffffffffffffffffffffffff8262000311565b6200035a868362000311565b95508019841693508086168417925050509392505050565b5f819050919050565b5f819050919050565b5f620003a46200039e620003988462000372565b6200037b565b62000372565b9050919050565b5f819050919050565b620003bf8362000384565b620003d7620003ce82620003ab565b8484546200031d565b825550505050565b5f90565b620003ed620003df565b620003fa818484620003b4565b505050565b5b818110156200042157620004155f82620003e3565b60018101905062000400565b5050565b601f82111562000470576200043a81620002f0565b620004458462000302565b8101602085101562000455578190505b6200046d620004648562000302565b830182620003ff565b50505b505050565b5f82821c905092915050565b5f620004925f198460080262000475565b1980831691505092915050565b5f620004ac838362000481565b9150826002028217905092915050565b620004c78262000258565b67ffffffffffffffff811115620004e357620004e262000262565b5b620004ef8254620002bc565b620004fc82828562000425565b5f60209050601f83116001811462000532575f84156200051d578287015190505b6200052985826200049f565b86555062000598565b601f1984166200054286620002f0565b5f5b828110156200056b5784890151825560018201915060208501945060208101905062000544565b868310156200058b578489015162000587601f89168262000481565b8355505b6001600288020188555050505b505050505050565b6118ad80620005ae5f395ff3fe608060405234801561000f575f80fd5b5060043610610135575f3560e01c806336568abe116100b657806395d89b411161007a57806395d89b411461035b578063a217fddf14610379578063a9059cbb14610397578063d5391393146103c7578063d547741f146103e5578063dd62ed3e1461040157610135565b806336568abe146102a757806342966c68146102c357806370a08231146102df57806379cc67901461030f57806391d148541461032b57610135565b806323b872dd116100fd57806323b872dd146101f1578063248a9ca3146102215780632f2ff15d14610251578063313ce5671461026d57806331b00f7a1461028b57610135565b806301ffc9a71461013957806306fdde0314610169578063095ea7b314610187578063177bd971146101b757806318160ddd146101d3575b5f80fd5b610153600480360381019061014e91906112f7565b610431565b604051610160919061133c565b60405180910390f35b6101716104aa565b60405161017e91906113df565b60405180910390f35b6101a1600480360381019061019c919061148c565b61053a565b6040516101ae919061133c565b60405180910390f35b6101d160048036038101906101cc919061148c565b61055c565b005b6101db6105eb565b6040516101e891906114d9565b60405180910390f35b61020b600480360381019061020691906114f2565b6105f4565b604051610218919061133c565b60405180910390f35b61023b60048036038101906102369190611575565b610622565b60405161024891906115af565b60405180910390f35b61026b600480360381019061026691906115c8565b61063f565b005b610275610661565b6040516102829190611621565b60405180910390f35b6102a560048036038101906102a0919061148c565b610669565b005b6102c160048036038101906102bc91906115c8565b6106a2565b005b6102dd60048036038101906102d8919061163a565b61071d565b005b6102f960048036038101906102f49190611665565b610731565b60405161030691906114d9565b60405180910390f35b6103296004803603810190610324919061148c565b610776565b005b610345600480360381019061034091906115c8565b610796565b604051610352919061133c565b60405180910390f35b6103636107fa565b60405161037091906113df565b60405180910390f35b61038161088a565b60405161038e91906115af565b60405180910390f35b6103b160048036038101906103ac919061148c565b610890565b6040516103be919061133c565b60405180910390f35b6103cf6108b2565b6040516103dc91906115af565b60405180910390f35b6103ff60048036038101906103fa91906115c8565b6108d6565b005b61041b60048036038101906104169190611690565b6108f8565b60405161042891906114d9565b60405180910390f35b5f7f7965db0b000000000000000000000000000000000000000000000000000000007bffffffffffffffffffffffffffffffffffffffffffffffffffffffff1916827bffffffffffffffffffffffffffffffffffffffffffffffffffffffff191614806104a357506104a28261097a565b5b9050919050565b6060600380546104b9906116fb565b80601f01602080910402602001604051908101604052809291908181526020018280546104e5906116fb565b80156105305780601f1061050757610100808354040283529160200191610530565b820191905f5260205f20905b81548152906001019060200180831161051357829003601f168201915b5050505050905090565b5f806105446109e3565b90506105518185856109ea565b600191505092915050565b3373ffffffffffffffffffffffffffffffffffffffff168273ffffffffffffffffffffffffffffffffffffffff16148061059e575061059d5f801b33610796565b5b6105dd576040517f08c379a00000000000000000000000000000000000000000000000000000000081526004016105d490611775565b60405180910390fd5b6105e782826109fc565b5050565b5f600254905090565b5f806105fe6109e3565b905061060b858285610a7b565b610616858585610b0e565b60019150509392505050565b5f60055f8381526020019081526020015f20600101549050919050565b61064882610622565b61065181610bfe565b61065b8383610c12565b50505050565b5f6012905090565b7f9f2df0fed2c77648de5860a4cc508cd0818c85b8b8a1ab4ceeef8d981c8956a661069381610bfe565b61069d8383610cfc565b505050565b6106aa6109e3565b73ffffffffffffffffffffffffffffffffffffffff168173ffffffffffffffffffffffffffffffffffffffff161461070e576040517f6697b23200000000000000000000000000000000000000000000000000000000815260040160405180910390fd5b6107188282610d7b565b505050565b61072e6107286109e3565b826109fc565b50565b5f805f8373ffffffffffffffffffffffffffffffffffffffff1673ffffffffffffffffffffffffffffffffffffffff1681526020019081526020015f20549050919050565b610788826107826109e3565b83610a7b565b61079282826109fc565b5050565b5f60055f8481526020019081526020015f205f015f8373ffffffffffffffffffffffffffffffffffffffff1673ffffffffffffffffffffffffffffffffffffffff1681526020019081526020015f205f9054906101000a900460ff16905092915050565b606060048054610809906116fb565b80601f0160208091040260200160405190810160405280929190818152602001828054610835906116fb565b80156108805780601f1061085757610100808354040283529160200191610880565b820191905f5260205f20905b81548152906001019060200180831161086357829003601f168201915b5050505050905090565b5f801b81565b5f8061089a6109e3565b90506108a7818585610b0e565b600191505092915050565b7f9f2df0fed2c77648de5860a4cc508cd0818c85b8b8a1ab4ceeef8d981c8956a681565b6108df82610622565b6108e881610bfe565b6108f28383610d7b565b50505050565b5f60015f8473ffffffffffffffffffffffffffffffffffffffff1673ffffffffffffffffffffffffffffffffffffffff1681526020019081526020015f205f8373ffffffffffffffffffffffffffffffffffffffff1673ffffffffffffffffffffffffffffffffffffffff1681526020019081526020015f2054905092915050565b5f7f01ffc9a7000000000000000000000000000000000000000000000000000000007bffffffffffffffffffffffffffffffffffffffffffffffffffffffff1916827bffffffffffffffffffffffffffffffffffffffffffffffffffffffff1916149050919050565b5f33905090565b6109f78383836001610e65565b505050565b5f73ffffffffffffffffffffffffffffffffffffffff168273ffffffffffffffffffffffffffffffffffffffff1603610a6c575f6040517f96c6fd1e000000000000000000000000000000000000000000000000000000008152600401610a6391906117a2565b60405180910390fd5b610a77825f83611034565b5050565b5f610a8684846108f8565b90507fffffffffffffffffffffffffffffffffffffffffffffffffffffffffffffffff811015610b085781811015610af9578281836040517ffb8f41b2000000000000000000000000000000000000000000000000000000008152600401610af0939291906117bb565b60405180910390fd5b610b0784848484035f610e65565b5b50505050565b5f73ffffffffffffffffffffffffffffffffffffffff168373ffffffffffffffffffffffffffffffffffffffff1603610b7e575f6040517f96c6fd1e000000000000000000000000000000000000000000000000000000008152600401610b7591906117a2565b60405180910390fd5b5f73ffffffffffffffffffffffffffffffffffffffff168273ffffffffffffffffffffffffffffffffffffffff1603610bee575f6040517fec442f05000000000000000000000000000000000000000000000000000000008152600401610be591906117a2565b60405180910390fd5b610bf9838383611034565b505050565b610c0f81610c0a6109e3565b61124d565b50565b5f610c1d8383610796565b610cf257600160055f8581526020019081526020015f205f015f8473ffffffffffffffffffffffffffffffffffffffff1673ffffffffffffffffffffffffffffffffffffffff1681526020019081526020015f205f6101000a81548160ff021916908315150217905550610c8f6109e3565b73ffffffffffffffffffffffffffffffffffffffff168273ffffffffffffffffffffffffffffffffffffffff16847f2f8788117e7eff1d82e926ec794901d17c78024a50270940304540a733656f0d60405160405180910390a460019050610cf6565b5f90505b92915050565b5f73ffffffffffffffffffffffffffffffffffffffff168273ffffffffffffffffffffffffffffffffffffffff1603610d6c575f6040517fec442f05000000000000000000000000000000000000000000000000000000008152600401610d6391906117a2565b60405180910390fd5b610d775f8383611034565b5050565b5f610d868383610796565b15610e5b575f60055f8581526020019081526020015f205f015f8473ffffffffffffffffffffffffffffffffffffffff1673ffffffffffffffffffffffffffffffffffffffff1681526020019081526020015f205f6101000a81548160ff021916908315150217905550610df86109e3565b73ffffffffffffffffffffffffffffffffffffffff168273ffffffffffffffffffffffffffffffffffffffff16847ff6391f5c32d9c69d2a47ea670b442974b53935d1edc7fd64eb21e047a839171b60405160405180910390a460019050610e5f565b5f90505b92915050565b5f73ffffffffffffffffffffffffffffffffffffffff168473ffffffffffffffffffffffffffffffffffffffff1603610ed5575f6040517fe602df05000000000000000000000000000000000000000000000000000000008152600401610ecc91906117a2565b60405180910390fd5b5f73ffffffffffffffffffffffffffffffffffffffff168373ffffffffffffffffffffffffffffffffffffffff1603610f45575f6040517f94280d62000000000000000000000000000000000000000000000000000000008152600401610f3c91906117a2565b60405180910390fd5b8160015f8673ffffffffffffffffffffffffffffffffffffffff1673ffffffffffffffffffffffffffffffffffffffff1681526020019081526020015f205f8573ffffffffffffffffffffffffffffffffffffffff1673ffffffffffffffffffffffffffffffffffffffff1681526020019081526020015f2081905550801561102e578273ffffffffffffffffffffffffffffffffffffffff168473ffffffffffffffffffffffffffffffffffffffff167f8c5be1e5ebec7d5bd14f71427d1e84f3dd0314c0f7b2291e5b200ac8c7c3b9258460405161102591906114d9565b60405180910390a35b50505050565b5f73ffffffffffffffffffffffffffffffffffffffff168373ffffffffffffffffffffffffffffffffffffffff1603611084578060025f828254611078919061181d565b92505081905550611152565b5f805f8573ffffffffffffffffffffffffffffffffffffffff1673ffffffffffffffffffffffffffffffffffffffff1681526020019081526020015f205490508181101561110d578381836040517fe450d38c000000000000000000000000000000000000000000000000000000008152600401611104939291906117bb565b60405180910390fd5b8181035f808673ffffffffffffffffffffffffffffffffffffffff1673ffffffffffffffffffffffffffffffffffffffff1681526020019081526020015f2081905550505b5f73ffffffffffffffffffffffffffffffffffffffff168273ffffffffffffffffffffffffffffffffffffffff1603611199578060025f82825403925050819055506111e3565b805f808473ffffffffffffffffffffffffffffffffffffffff1673ffffffffffffffffffffffffffffffffffffffff1681526020019081526020015f205f82825401925050819055505b8173ffffffffffffffffffffffffffffffffffffffff168373ffffffffffffffffffffffffffffffffffffffff167fddf252ad1be2c89b69c2b068fc378daa952ba7f163c4a11628f55a4df523b3ef8360405161124091906114d9565b60405180910390a3505050565b6112578282610796565b61129a5780826040517fe2517d3f000000000000000000000000000000000000000000000000000000008152600401611291929190611850565b60405180910390fd5b5050565b5f80fd5b5f7fffffffff0000000000000000000000000000000000000000000000000000000082169050919050565b6112d6816112a2565b81146112e0575f80fd5b50565b5f813590506112f1816112cd565b92915050565b5f6020828403121561130c5761130b61129e565b5b5f611319848285016112e3565b91505092915050565b5f8115159050919050565b61133681611322565b82525050565b5f60208201905061134f5f83018461132d565b92915050565b5f81519050919050565b5f82825260208201905092915050565b5f5b8381101561138c578082015181840152602081019050611371565b5f8484015250505050565b5f601f19601f8301169050919050565b5f6113b182611355565b6113bb818561135f565b93506113cb81856020860161136f565b6113d481611397565b840191505092915050565b5f6020820190508181035f8301526113f781846113a7565b905092915050565b5f73ffffffffffffffffffffffffffffffffffffffff82169050919050565b5f611428826113ff565b9050919050565b6114388161141e565b8114611442575f80fd5b50565b5f813590506114538161142f565b92915050565b5f819050919050565b61146b81611459565b8114611475575f80fd5b50565b5f8135905061148681611462565b92915050565b5f80604083850312156114a2576114a161129e565b5b5f6114af85828601611445565b92505060206114c085828601611478565b9150509250929050565b6114d381611459565b82525050565b5f6020820190506114ec5f8301846114ca565b92915050565b5f805f606084860312156115095761150861129e565b5b5f61151686828701611445565b935050602061152786828701611445565b925050604061153886828701611478565b9150509250925092565b5f819050919050565b61155481611542565b811461155e575f80fd5b50565b5f8135905061156f8161154b565b92915050565b5f6020828403121561158a5761158961129e565b5b5f61159784828501611561565b91505092915050565b6115a981611542565b82525050565b5f6020820190506115c25f8301846115a0565b92915050565b5f80604083850312156115de576115dd61129e565b5b5f6115eb85828601611561565b92505060206115fc85828601611445565b9150509250929050565b5f60ff82169050919050565b61161b81611606565b82525050565b5f6020820190506116345f830184611612565b92915050565b5f6020828403121561164f5761164e61129e565b5b5f61165c84828501611478565b91505092915050565b5f6020828403121561167a5761167961129e565b5b5f61168784828501611445565b91505092915050565b5f80604083850312156116a6576116a561129e565b5b5f6116b385828601611445565b92505060206116c485828601611445565b9150509250929050565b7f4e487b71000000000000000000000000000000000000000000000000000000005f52602260045260245ffd5b5f600282049050600182168061171257607f821691505b602082108103611725576117246116ce565b5b50919050565b7f4e6f7420617574686f72697a656420746f2072657469726500000000000000005f82015250565b5f61175f60188361135f565b915061176a8261172b565b602082019050919050565b5f6020820190508181035f83015261178c81611753565b9050919050565b61179c8161141e565b82525050565b5f6020820190506117b55f830184611793565b92915050565b5f6060820190506117ce5f830186611793565b6117db60208301856114ca565b6117e860408301846114ca565b949350505050565b7f4e487b71000000000000000000000000000000000000000000000000000000005f52601160045260245ffd5b5f61182782611459565b915061183283611459565b925082820190508082111561184a576118496117f0565b5b92915050565b5f6040820190506118635f830185611793565b61187060208301846115a0565b939250505056fea2646970667358221220d7c132dbcfb43ba3ae354a1dcca154c8b400d4ff67ed967a642aaf3524949ffa64736f6c63430008180033","opcodes":"PUSH1 0x80 PUSH1 0x40 MSTORE CALLVALUE DUP1 ISZERO PUSH3 0x10 JUMPI PUSH0 DUP1 REVERT JUMPDEST POP PUSH1 0x40 MLOAD DUP1 PUSH1 0x40 ADD PUSH1 0x40 MSTORE DUP1 PUSH1 0x16 DUP2 MSTORE PUSH1 0x20 ADD PUSH32 0x45636F436861696E20436172626F6E2043726564697400000000000000000000 DUP2 MSTORE POP PUSH1 0x40 MLOAD DUP1 PUSH1 0x40 ADD PUSH1 0x40 MSTORE DUP1 PUSH1 0x3 DUP2 MSTORE PUSH1 0x20 ADD PUSH32 0x4343520000000000000000000000000000000000000000000000000000000000 DUP2 MSTORE POP DUP2 PUSH1 0x3 SWAP1 DUP2 PUSH3 0x8E SWAP2 SWAP1 PUSH3 0x4BC JUMP JUMPDEST POP DUP1 PUSH1 0x4 SWAP1 DUP2 PUSH3 0xA0 SWAP2 SWAP1 PUSH3 0x4BC JUMP JUMPDEST POP POP POP PUSH3 0xB7 PUSH0 DUP1 SHL CALLER PUSH3 0xF1 PUSH1 0x20 SHL PUSH1 0x20 SHR JUMP JUMPDEST POP PUSH3 0xEA PUSH32 0x9F2DF0FED2C77648DE5860A4CC508CD0818C85B8B8A1AB4CEEEF8D981C8956A6 CALLER PUSH3 0xF1 PUSH1 0x20 SHL PUSH1 0x20 SHR JUMP JUMPDEST POP PUSH3 0x5A0 JUMP JUMPDEST PUSH0 PUSH3 0x104 DUP4 DUP4 PUSH3 0x1ED PUSH1 0x20 SHL PUSH1 0x20 SHR JUMP JUMPDEST PUSH3 0x1E3 JUMPI PUSH1 0x1 PUSH1 0x5 PUSH0 DUP6 DUP2 MSTORE PUSH1 0x20 ADD SWAP1 DUP2 MSTORE PUSH1 0x20 ADD PUSH0 KECCAK256 PUSH0 ADD PUSH0 DUP5 PUSH20 0xFFFFFFFFFFFFFFFFFFFFFFFFFFFFFFFFFFFFFFFF AND PUSH20 0xFFFFFFFFFFFFFFFFFFFFFFFFFFFFFFFFFFFFFFFF AND DUP2 MSTORE PUSH1 0x20 ADD SWAP1 DUP2 MSTORE PUSH1 0x20 ADD PUSH0 KECCAK256 PUSH0 PUSH2 0x100 EXP DUP2 SLOAD DUP2 PUSH1 0xFF MUL NOT AND SWAP1 DUP4 ISZERO ISZERO MUL OR SWAP1 SSTORE POP PUSH3 0x17F PUSH3 0x251 PUSH1 0x20 SHL PUSH1 0x20 SHR JUMP JUMPDEST PUSH20 0xFFFFFFFFFFFFFFFFFFFFFFFFFFFFFFFFFFFFFFFF AND DUP3 PUSH20 0xFFFFFFFFFFFFFFFFFFFFFFFFFFFFFFFFFFFFFFFF AND DUP5 PUSH32 0x2F8788117E7EFF1D82E926EC794901D17C78024A50270940304540A733656F0D PUSH1 0x40 MLOAD PUSH1 0x40 MLOAD DUP1 SWAP2 SUB SWAP1 LOG4 PUSH1 0x1 SWAP1 POP PUSH3 0x1E7 JUMP JUMPDEST PUSH0 SWAP1 POP JUMPDEST SWAP3 SWAP2 POP POP JUMP JUMPDEST PUSH0 PUSH1 0x5 PUSH0 DUP5 DUP2 MSTORE PUSH1 0x20 ADD SWAP1 DUP2 MSTORE PUSH1 0x20 ADD PUSH0 KECCAK256 PUSH0 ADD PUSH0 DUP4 PUSH20 0xFFFFFFFFFFFFFFFFFFFFFFFFFFFFFFFFFFFFFFFF AND PUSH20 0xFFFFFFFFFFFFFFFFFFFFFFFFFFFFFFFFFFFFFFFF AND DUP2 MSTORE PUSH1 0x20 ADD SWAP1 DUP2 MSTORE PUSH1 0x20 ADD PUSH0 KECCAK256 PUSH0 SWAP1 SLOAD SWAP1 PUSH2 0x100 EXP SWAP1 DIV PUSH1 0xFF AND SWAP1 POP SWAP3 SWAP2 POP POP JUMP JUMPDEST PUSH0 CALLER SWAP1 POP SWAP1 JUMP JUMPDEST PUSH0 DUP2 MLOAD SWAP1 POP SWAP2 SWAP1 POP JUMP JUMPDEST PUSH32 0x4E487B7100000000000000000000000000000000000000000000000000000000 PUSH0 MSTORE PUSH1 0x41 PUSH1 0x4 MSTORE PUSH1 0x24 PUSH0 REVERT JUMPDEST PUSH32 0x4E487B7100000000000000000000000000000000000000000000000000000000 PUSH0 MSTORE PUSH1 0x22 PUSH1 0x4 MSTORE PUSH1 0x24 PUSH0 REVERT JUMPDEST PUSH0 PUSH1 0x2 DUP3 DIV SWAP1 POP PUSH1 0x1 DUP3 AND DUP1 PUSH3 0x2D4 JUMPI PUSH1 0x7F DUP3 AND SWAP2 POP JUMPDEST PUSH1 0x20 DUP3 LT DUP2 SUB PUSH3 0x2EA JUMPI PUSH3 0x2E9 PUSH3 0x28F JUMP JUMPDEST JUMPDEST POP SWAP2 SWAP1 POP JUMP JUMPDEST PUSH0 DUP2 SWAP1 POP DUP2 PUSH0 MSTORE PUSH1 0x20 PUSH0 KECCAK256 SWAP1 POP SWAP2 SWAP1 POP JUMP JUMPDEST PUSH0 PUSH1 0x20 PUSH1 0x1F DUP4 ADD DIV SWAP1 POP SWAP2 SWAP1 POP JUMP JUMPDEST PUSH0 DUP3 DUP3 SHL SWAP1 POP SWAP3 SWAP2 POP POP JUMP JUMPDEST PUSH0 PUSH1 0x8 DUP4 MUL PUSH3 0x34E PUSH32 0xFFFFFFFFFFFFFFFFFFFFFFFFFFFFFFFFFFFFFFFFFFFFFFFFFFFFFFFFFFFFFFFF DUP3 PUSH3 0x311 JUMP JUMPDEST PUSH3 0x35A DUP7 DUP4 PUSH3 0x311 JUMP JUMPDEST SWAP6 POP DUP1 NOT DUP5 AND SWAP4 POP DUP1 DUP7 AND DUP5 OR SWAP3 POP POP POP SWAP4 SWAP3 POP POP POP JUMP JUMPDEST PUSH0 DUP2 SWAP1 POP SWAP2 SWAP1 POP JUMP JUMPDEST PUSH0 DUP2 SWAP1 POP SWAP2 SWAP1 POP JUMP JUMPDEST PUSH0 PUSH3 0x3A4 PUSH3 0x39E PUSH3 0x398 DUP5 PUSH3 0x372 JUMP JUMPDEST PUSH3 0x37B JUMP JUMPDEST PUSH3 0x372 JUMP JUMPDEST SWAP1 POP SWAP2 SWAP1 POP JUMP JUMPDEST PUSH0 DUP2 SWAP1 POP SWAP2 SWAP1 POP JUMP JUMPDEST PUSH3 0x3BF DUP4 PUSH3 0x384 JUMP JUMPDEST PUSH3 0x3D7 PUSH3 0x3CE DUP3 PUSH3 0x3AB JUMP JUMPDEST DUP5 DUP5 SLOAD PUSH3 0x31D JUMP JUMPDEST DUP3 SSTORE POP POP POP POP JUMP JUMPDEST PUSH0 SWAP1 JUMP JUMPDEST PUSH3 0x3ED PUSH3 0x3DF JUMP JUMPDEST PUSH3 0x3FA DUP2 DUP5 DUP5 PUSH3 0x3B4 JUMP JUMPDEST POP POP POP JUMP JUMPDEST JUMPDEST DUP2 DUP2 LT ISZERO PUSH3 0x421 JUMPI PUSH3 0x415 PUSH0 DUP3 PUSH3 0x3E3 JUMP JUMPDEST PUSH1 0x1 DUP2 ADD SWAP1 POP PUSH3 0x400 JUMP JUMPDEST POP POP JUMP JUMPDEST PUSH1 0x1F DUP3 GT ISZERO PUSH3 0x470 JUMPI PUSH3 0x43A DUP2 PUSH3 0x2F0 JUMP JUMPDEST PUSH3 0x445 DUP5 PUSH3 0x302 JUMP JUMPDEST DUP2 ADD PUSH1 0x20 DUP6 LT ISZERO PUSH3 0x455 JUMPI DUP2 SWAP1 POP JUMPDEST PUSH3 0x46D PUSH3 0x464 DUP6 PUSH3 0x302 JUMP JUMPDEST DUP4 ADD DUP3 PUSH3 0x3FF JUMP JUMPDEST POP POP JUMPDEST POP POP POP JUMP JUMPDEST PUSH0 DUP3 DUP3 SHR SWAP1 POP SWAP3 SWAP2 POP POP JUMP JUMPDEST PUSH0 PUSH3 0x492 PUSH0 NOT DUP5 PUSH1 0x8 MUL PUSH3 0x475 JUMP JUMPDEST NOT DUP1 DUP4 AND SWAP2 POP POP SWAP3 SWAP2 POP POP JUMP JUMPDEST PUSH0 PUSH3 0x4AC DUP4 DUP4 PUSH3 0x481 JUMP JUMPDEST SWAP2 POP DUP3 PUSH1 0x2 MUL DUP3 OR SWAP1 POP SWAP3 SWAP2 POP POP JUMP JUMPDEST PUSH3 0x4C7 DUP3 PUSH3 0x258 JUMP JUMPDEST PUSH8 0xFFFFFFFFFFFFFFFF DUP2 GT ISZERO PUSH3 0x4E3 JUMPI PUSH3 0x4E2 PUSH3 0x262 JUMP JUMPDEST JUMPDEST PUSH3 0x4EF DUP3 SLOAD PUSH3 0x2BC JUMP JUMPDEST PUSH3 0x4FC DUP3 DUP3 DUP6 PUSH3 0x425 JUMP JUMPDEST PUSH0 PUSH1 0x20 SWAP1 POP PUSH1 0x1F DUP4 GT PUSH1 0x1 DUP2 EQ PUSH3 0x532 JUMPI PUSH0 DUP5 ISZERO PUSH3 0x51D JUMPI DUP3 DUP8 ADD MLOAD SWAP1 POP JUMPDEST PUSH3 0x529 DUP6 DUP3 PUSH3 0x49F JUMP JUMPDEST DUP7 SSTORE POP PUSH3 0x598 JUMP JUMPDEST PUSH1 0x1F NOT DUP5 AND PUSH3 0x542 DUP7 PUSH3 0x2F0 JUMP JUMPDEST PUSH0 JUMPDEST DUP3 DUP2 LT ISZERO PUSH3 0x56B JUMPI DUP5 DUP10 ADD MLOAD DUP3 SSTORE PUSH1 0x1 DUP3 ADD SWAP2 POP PUSH1 0x20 DUP6 ADD SWAP5 POP PUSH1 0x20 DUP2 ADD SWAP1 POP PUSH3 0x544 JUMP JUMPDEST DUP7 DUP4 LT ISZERO PUSH3 0x58B JUMPI DUP5 DUP10 ADD MLOAD PUSH3 0x587 PUSH1 0x1F DUP10 AND DUP3 PUSH3 0x481 JUMP JUMPDEST DUP4 SSTORE POP JUMPDEST PUSH1 0x1 PUSH1 0x2 DUP9 MUL ADD DUP9 SSTORE POP POP POP JUMPDEST POP POP POP POP POP POP JUMP JUMPDEST PUSH2 0x18AD DUP1 PUSH3 0x5AE PUSH0 CODECOPY PUSH0 RETURN INVALID PUSH1 0x80 PUSH1 0x40 MSTORE CALLVALUE DUP1 ISZERO PUSH2 0xF JUMPI PUSH0 DUP1 REVERT JUMPDEST POP PUSH1 0x4 CALLDATASIZE LT PUSH2 0x135 JUMPI PUSH0 CALLDATALOAD PUSH1 0xE0 SHR DUP1 PUSH4 0x36568ABE GT PUSH2 0xB6 JUMPI DUP1 PUSH4 0x95D89B41 GT PUSH2 0x7A JUMPI DUP1 PUSH4 0x95D89B41 EQ PUSH2 0x35B JUMPI DUP1 PUSH4 0xA217FDDF EQ PUSH2 0x379 JUMPI DUP1 PUSH4 0xA9059CBB EQ PUSH2 0x397 JUMPI DUP1 PUSH4 0xD5391393 EQ PUSH2 0x3C7 JUMPI DUP1 PUSH4 0xD547741F EQ PUSH2 0x3E5 JUMPI DUP1 PUSH4 0xDD62ED3E EQ PUSH2 0x401 JUMPI PUSH2 0x135 JUMP JUMPDEST DUP1 PUSH4 0x36568ABE EQ PUSH2 0x2A7 JUMPI DUP1 PUSH4 0x42966C68 EQ PUSH2 0x2C3 JUMPI DUP1 PUSH4 0x70A08231 EQ PUSH2 0x2DF JUMPI DUP1 PUSH4 0x79CC6790 EQ PUSH2 0x30F JUMPI DUP1 PUSH4 0x91D14854 EQ PUSH2 0x32B JUMPI PUSH2 0x135 JUMP JUMPDEST DUP1 PUSH4 0x23B872DD GT PUSH2 0xFD JUMPI DUP1 PUSH4 0x23B872DD EQ PUSH2 0x1F1 JUMPI DUP1 PUSH4 0x248A9CA3 EQ PUSH2 0x221 JUMPI DUP1 PUSH4 0x2F2FF15D EQ PUSH2 0x251 JUMPI DUP1 PUSH4 0x313CE567 EQ PUSH2 0x26D JUMPI DUP1 PUSH4 0x31B00F7A EQ PUSH2 0x28B JUMPI PUSH2 0x135 JUMP JUMPDEST DUP1 PUSH4 0x1FFC9A7 EQ PUSH2 0x139 JUMPI DUP1 PUSH4 0x6FDDE03 EQ PUSH2 0x169 JUMPI DUP1 PUSH4 0x95EA7B3 EQ PUSH2 0x187 JUMPI DUP1 PUSH4 0x177BD971 EQ PUSH2 0x1B7 JUMPI DUP1 PUSH4 0x18160DDD EQ PUSH2 0x1D3 JUMPI JUMPDEST PUSH0 DUP1 REVERT JUMPDEST PUSH2 0x153 PUSH1 0x4 DUP1 CALLDATASIZE SUB DUP2 ADD SWAP1 PUSH2 0x14E SWAP2 SWAP1 PUSH2 0x12F7 JUMP JUMPDEST PUSH2 0x431 JUMP JUMPDEST PUSH1 0x40 MLOAD PUSH2 0x160 SWAP2 SWAP1 PUSH2 0x133C JUMP JUMPDEST PUSH1 0x40 MLOAD DUP1 SWAP2 SUB SWAP1 RETURN JUMPDEST PUSH2 0x171 PUSH2 0x4AA JUMP JUMPDEST PUSH1 0x40 MLOAD PUSH2 0x17E SWAP2 SWAP1 PUSH2 0x13DF JUMP JUMPDEST PUSH1 0x40 MLOAD DUP1 SWAP2 SUB SWAP1 RETURN JUMPDEST PUSH2 0x1A1 PUSH1 0x4 DUP1 CALLDATASIZE SUB DUP2 ADD SWAP1 PUSH2 0x19C SWAP2 SWAP1 PUSH2 0x148C JUMP JUMPDEST PUSH2 0x53A JUMP JUMPDEST PUSH1 0x40 MLOAD PUSH2 0x1AE SWAP2 SWAP1 PUSH2 0x133C JUMP JUMPDEST PUSH1 0x40 MLOAD DUP1 SWAP2 SUB SWAP1 RETURN JUMPDEST PUSH2 0x1D1 PUSH1 0x4 DUP1 CALLDATASIZE SUB DUP2 ADD SWAP1 PUSH2 0x1CC SWAP2 SWAP1 PUSH2 0x148C JUMP JUMPDEST PUSH2 0x55C JUMP JUMPDEST STOP JUMPDEST PUSH2 0x1DB PUSH2 0x5EB JUMP JUMPDEST PUSH1 0x40 MLOAD PUSH2 0x1E8 SWAP2 SWAP1 PUSH2 0x14D9 JUMP JUMPDEST PUSH1 0x40 MLOAD DUP1 SWAP2 SUB SWAP1 RETURN JUMPDEST PUSH2 0x20B PUSH1 0x4 DUP1 CALLDATASIZE SUB DUP2 ADD SWAP1 PUSH2 0x206 SWAP2 SWAP1 PUSH2 0x14F2 JUMP JUMPDEST PUSH2 0x5F4 JUMP JUMPDEST PUSH1 0x40 MLOAD PUSH2 0x218 SWAP2 SWAP1 PUSH2 0x133C JUMP JUMPDEST PUSH1 0x40 MLOAD DUP1 SWAP2 SUB SWAP1 RETURN JUMPDEST PUSH2 0x23B PUSH1 0x4 DUP1 CALLDATASIZE SUB DUP2 ADD SWAP1 PUSH2 0x236 SWAP2 SWAP1 PUSH2 0x1575 JUMP JUMPDEST PUSH2 0x622 JUMP JUMPDEST PUSH1 0x40 MLOAD PUSH2 0x248 SWAP2 SWAP1 PUSH2 0x15AF JUMP JUMPDEST PUSH1 0x40 MLOAD DUP1 SWAP2 SUB SWAP1 RETURN JUMPDEST PUSH2 0x26B PUSH1 0x4 DUP1 CALLDATASIZE SUB DUP2 ADD SWAP1 PUSH2 0x266 SWAP2 SWAP1 PUSH2 0x15C8 JUMP JUMPDEST PUSH2 0x63F JUMP JUMPDEST STOP JUMPDEST PUSH2 0x275 PUSH2 0x661 JUMP JUMPDEST PUSH1 0x40 MLOAD PUSH2 0x282 SWAP2 SWAP1 PUSH2 0x1621 JUMP JUMPDEST PUSH1 0x40 MLOAD DUP1 SWAP2 SUB SWAP1 RETURN JUMPDEST PUSH2 0x2A5 PUSH1 0x4 DUP1 CALLDATASIZE SUB DUP2 ADD SWAP1 PUSH2 0x2A0 SWAP2 SWAP1 PUSH2 0x148C JUMP JUMPDEST PUSH2 0x669 JUMP JUMPDEST STOP JUMPDEST PUSH2 0x2C1 PUSH1 0x4 DUP1 CALLDATASIZE SUB DUP2 ADD SWAP1 PUSH2 0x2BC SWAP2 SWAP1 PUSH2 0x15C8 JUMP JUMPDEST PUSH2 0x6A2 JUMP JUMPDEST STOP JUMPDEST PUSH2 0x2DD PUSH1 0x4 DUP1 CALLDATASIZE SUB DUP2 ADD SWAP1 PUSH2 0x2D8 SWAP2 SWAP1 PUSH2 0x163A JUMP JUMPDEST PUSH2 0x71D JUMP JUMPDEST STOP JUMPDEST PUSH2 0x2F9 PUSH1 0x4 DUP1 CALLDATASIZE SUB DUP2 ADD SWAP1 PUSH2 0x2F4 SWAP2 SWAP1 PUSH2 0x1665 JUMP JUMPDEST PUSH2 0x731 JUMP JUMPDEST PUSH1 0x40 MLOAD PUSH2 0x306 SWAP2 SWAP1 PUSH2 0x14D9 JUMP JUMPDEST PUSH1 0x40 MLOAD DUP1 SWAP2 SUB SWAP1 RETURN JUMPDEST PUSH2 0x329 PUSH1 0x4 DUP1 CALLDATASIZE SUB DUP2 ADD SWAP1 PUSH2 0x324 SWAP2 SWAP1 PUSH2 0x148C JUMP JUMPDEST PUSH2 0x776 JUMP JUMPDEST STOP JUMPDEST PUSH2 0x345 PUSH1 0x4 DUP1 CALLDATASIZE SUB DUP2 ADD SWAP1 PUSH2 0x340 SWAP2 SWAP1 PUSH2 0x15C8 JUMP JUMPDEST PUSH2 0x796 JUMP JUMPDEST PUSH1 0x40 MLOAD PUSH2 0x352 SWAP2 SWAP1 PUSH2 0x133C JUMP JUMPDEST PUSH1 0x40 MLOAD DUP1 SWAP2 SUB SWAP1 RETURN JUMPDEST PUSH2 0x363 PUSH2 0x7FA JUMP JUMPDEST PUSH1 0x40 MLOAD PUSH2 0x370 SWAP2 SWAP1 PUSH2 0x13DF JUMP JUMPDEST PUSH1 0x40 MLOAD DUP1 SWAP2 SUB SWAP1 RETURN JUMPDEST PUSH2 0x381 PUSH2 0x88A JUMP JUMPDEST PUSH1 0x40 MLOAD PUSH2 0x38E SWAP2 SWAP1 PUSH2 0x15AF JUMP JUMPDEST PUSH1 0x40 MLOAD DUP1 SWAP2 SUB SWAP1 RETURN JUMPDEST PUSH2 0x3B1 PUSH1 0x4 DUP1 CALLDATASIZE SUB DUP2 ADD SWAP1 PUSH2 0x3AC SWAP2 SWAP1 PUSH2 0x148C JUMP JUMPDEST PUSH2 0x890 JUMP JUMPDEST PUSH1 0x40 MLOAD PUSH2 0x3BE SWAP2 SWAP1 PUSH2 0x133C JUMP JUMPDEST PUSH1 0x40 MLOAD DUP1 SWAP2 SUB SWAP1 RETURN JUMPDEST PUSH2 0x3CF PUSH2 0x8B2 JUMP JUMPDEST PUSH1 0x40 MLOAD PUSH2 0x3DC SWAP2 SWAP1 PUSH2 0x15AF JUMP JUMPDEST PUSH1 0x40 MLOAD DUP1 SWAP2 SUB SWAP1 RETURN JUMPDEST PUSH2 0x3FF PUSH1 0x4 DUP1 CALLDATASIZE SUB DUP2 ADD SWAP1 PUSH2 0x3FA SWAP2 SWAP1 PUSH2 0x15C8 JUMP JUMPDEST PUSH2 0x8D6 JUMP JUMPDEST STOP JUMPDEST PUSH2 0x41B PUSH1 0x4 DUP1 CALLDATASIZE SUB DUP2 ADD SWAP1 PUSH2 0x416 SWAP2 SWAP1 PUSH2 0x1690 JUMP JUMPDEST PUSH2 0x8F8 JUMP JUMPDEST PUSH1 0x40 MLOAD PUSH2 0x428 SWAP2 SWAP1 PUSH2 0x14D9 JUMP JUMPDEST PUSH1 0x40 MLOAD DUP1 SWAP2 SUB SWAP1 RETURN JUMPDEST PUSH0 PUSH32 0x7965DB0B00000000000000000000000000000000000000000000000000000000 PUSH28 0xFFFFFFFFFFFFFFFFFFFFFFFFFFFFFFFFFFFFFFFFFFFFFFFFFFFFFFFF NOT AND DUP3 PUSH28 0xFFFFFFFFFFFFFFFFFFFFFFFFFFFFFFFFFFFFFFFFFFFFFFFFFFFFFFFF NOT AND EQ DUP1 PUSH2 0x4A3 JUMPI POP PUSH2 0x4A2 DUP3 PUSH2 0x97A JUMP JUMPDEST JUMPDEST SWAP1 POP SWAP2 SWAP1 POP JUMP JUMPDEST PUSH1 0x60 PUSH1 0x3 DUP1 SLOAD PUSH2 0x4B9 SWAP1 PUSH2 0x16FB JUMP JUMPDEST DUP1 PUSH1 0x1F ADD PUSH1 0x20 DUP1 SWAP2 DIV MUL PUSH1 0x20 ADD PUSH1 0x40 MLOAD SWAP1 DUP2 ADD PUSH1 0x40 MSTORE DUP1 SWAP3 SWAP2 SWAP1 DUP2 DUP2 MSTORE PUSH1 0x20 ADD DUP3 DUP1 SLOAD PUSH2 0x4E5 SWAP1 PUSH2 0x16FB JUMP JUMPDEST DUP1 ISZERO PUSH2 0x530 JUMPI DUP1 PUSH1 0x1F LT PUSH2 0x507 JUMPI PUSH2 0x100 DUP1 DUP4 SLOAD DIV MUL DUP4 MSTORE SWAP2 PUSH1 0x20 ADD SWAP2 PUSH2 0x530 JUMP JUMPDEST DUP3 ADD SWAP2 SWAP1 PUSH0 MSTORE PUSH1 0x20 PUSH0 KECCAK256 SWAP1 JUMPDEST DUP2 SLOAD DUP2 MSTORE SWAP1 PUSH1 0x1 ADD SWAP1 PUSH1 0x20 ADD DUP1 DUP4 GT PUSH2 0x513 JUMPI DUP3 SWAP1 SUB PUSH1 0x1F AND DUP3 ADD SWAP2 JUMPDEST POP POP POP POP POP SWAP1 POP SWAP1 JUMP JUMPDEST PUSH0 DUP1 PUSH2 0x544 PUSH2 0x9E3 JUMP JUMPDEST SWAP1 POP PUSH2 0x551 DUP2 DUP6 DUP6 PUSH2 0x9EA JUMP JUMPDEST PUSH1 0x1 SWAP2 POP POP SWAP3 SWAP2 POP POP JUMP JUMPDEST CALLER PUSH20 0xFFFFFFFFFFFFFFFFFFFFFFFFFFFFFFFFFFFFFFFF AND DUP3 PUSH20 0xFFFFFFFFFFFFFFFFFFFFFFFFFFFFFFFFFFFFFFFF AND EQ DUP1 PUSH2 0x59E JUMPI POP PUSH2 0x59D PUSH0 DUP1 SHL CALLER PUSH2 0x796 JUMP JUMPDEST JUMPDEST PUSH2 0x5DD JUMPI PUSH1 0x40 MLOAD PUSH32 0x8C379A000000000000000000000000000000000000000000000000000000000 DUP2 MSTORE PUSH1 0x4 ADD PUSH2 0x5D4 SWAP1 PUSH2 0x1775 JUMP JUMPDEST PUSH1 0x40 MLOAD DUP1 SWAP2 SUB SWAP1 REVERT JUMPDEST PUSH2 0x5E7 DUP3 DUP3 PUSH2 0x9FC JUMP JUMPDEST POP POP JUMP JUMPDEST PUSH0 PUSH1 0x2 SLOAD SWAP1 POP SWAP1 JUMP JUMPDEST PUSH0 DUP1 PUSH2 0x5FE PUSH2 0x9E3 JUMP JUMPDEST SWAP1 POP PUSH2 0x60B DUP6 DUP3 DUP6 PUSH2 0xA7B JUMP JUMPDEST PUSH2 0x616 DUP6 DUP6 DUP6 PUSH2 0xB0E JUMP JUMPDEST PUSH1 0x1 SWAP2 POP POP SWAP4 SWAP3 POP POP POP JUMP JUMPDEST PUSH0 PUSH1 0x5 PUSH0 DUP4 DUP2 MSTORE PUSH1 0x20 ADD SWAP1 DUP2 MSTORE PUSH1 0x20 ADD PUSH0 KECCAK256 PUSH1 0x1 ADD SLOAD SWAP1 POP SWAP2 SWAP1 POP JUMP JUMPDEST PUSH2 0x648 DUP3 PUSH2 0x622 JUMP JUMPDEST PUSH2 0x651 DUP2 PUSH2 0xBFE JUMP JUMPDEST PUSH2 0x65B DUP4 DUP4 PUSH2 0xC12 JUMP JUMPDEST POP POP POP POP JUMP JUMPDEST PUSH0 PUSH1 0x12 SWAP1 POP SWAP1 JUMP JUMPDEST PUSH32 0x9F2DF0FED2C77648DE5860A4CC508CD0818C85B8B8A1AB4CEEEF8D981C8956A6 PUSH2 0x693 DUP2 PUSH2 0xBFE JUMP JUMPDEST PUSH2 0x69D DUP4 DUP4 PUSH2 0xCFC JUMP JUMPDEST POP POP POP JUMP JUMPDEST PUSH2 0x6AA PUSH2 0x9E3 JUMP JUMPDEST PUSH20 0xFFFFFFFFFFFFFFFFFFFFFFFFFFFFFFFFFFFFFFFF AND DUP2 PUSH20 0xFFFFFFFFFFFFFFFFFFFFFFFFFFFFFFFFFFFFFFFF AND EQ PUSH2 0x70E JUMPI PUSH1 0x40 MLOAD PUSH32 0x6697B23200000000000000000000000000000000000000000000000000000000 DUP2 MSTORE PUSH1 0x4 ADD PUSH1 0x40 MLOAD DUP1 SWAP2 SUB SWAP1 REVERT JUMPDEST PUSH2 0x718 DUP3 DUP3 PUSH2 0xD7B JUMP JUMPDEST POP POP POP JUMP JUMPDEST PUSH2 0x72E PUSH2 0x728 PUSH2 0x9E3 JUMP JUMPDEST DUP3 PUSH2 0x9FC JUMP JUMPDEST POP JUMP JUMPDEST PUSH0 DUP1 PUSH0 DUP4 PUSH20 0xFFFFFFFFFFFFFFFFFFFFFFFFFFFFFFFFFFFFFFFF AND PUSH20 0xFFFFFFFFFFFFFFFFFFFFFFFFFFFFFFFFFFFFFFFF AND DUP2 MSTORE PUSH1 0x20 ADD SWAP1 DUP2 MSTORE PUSH1 0x20 ADD PUSH0 KECCAK256 SLOAD SWAP1 POP SWAP2 SWAP1 POP JUMP JUMPDEST PUSH2 0x788 DUP3 PUSH2 0x782 PUSH2 0x9E3 JUMP JUMPDEST DUP4 PUSH2 0xA7B JUMP JUMPDEST PUSH2 0x792 DUP3 DUP3 PUSH2 0x9FC JUMP JUMPDEST POP POP JUMP JUMPDEST PUSH0 PUSH1 0x5 PUSH0 DUP5 DUP2 MSTORE PUSH1 0x20 ADD SWAP1 DUP2 MSTORE PUSH1 0x20 ADD PUSH0 KECCAK256 PUSH0 ADD PUSH0 DUP4 PUSH20 0xFFFFFFFFFFFFFFFFFFFFFFFFFFFFFFFFFFFFFFFF AND PUSH20 0xFFFFFFFFFFFFFFFFFFFFFFFFFFFFFFFFFFFFFFFF AND DUP2 MSTORE PUSH1 0x20 ADD SWAP1 DUP2 MSTORE PUSH1 0x20 ADD PUSH0 KECCAK256 PUSH0 SWAP1 SLOAD SWAP1 PUSH2 0x100 EXP SWAP1 DIV PUSH1 0xFF AND SWAP1 POP SWAP3 SWAP2 POP POP JUMP JUMPDEST PUSH1 0x60 PUSH1 0x4 DUP1 SLOAD PUSH2 0x809 SWAP1 PUSH2 0x16FB JUMP JUMPDEST DUP1 PUSH1 0x1F ADD PUSH1 0x20 DUP1 SWAP2 DIV MUL PUSH1 0x20 ADD PUSH1 0x40 MLOAD SWAP1 DUP2 ADD PUSH1 0x40 MSTORE DUP1 SWAP3 SWAP2 SWAP1 DUP2 DUP2 MSTORE PUSH1 0x20 ADD DUP3 DUP1 SLOAD PUSH2 0x835 SWAP1 PUSH2 0x16FB JUMP JUMPDEST DUP1 ISZERO PUSH2 0x880 JUMPI DUP1 PUSH1 0x1F LT PUSH2 0x857 JUMPI PUSH2 0x100 DUP1 DUP4 SLOAD DIV MUL DUP4 MSTORE SWAP2 PUSH1 0x20 ADD SWAP2 PUSH2 0x880 JUMP JUMPDEST DUP3 ADD SWAP2 SWAP1 PUSH0 MSTORE PUSH1 0x20 PUSH0 KECCAK256 SWAP1 JUMPDEST DUP2 SLOAD DUP2 MSTORE SWAP1 PUSH1 0x1 ADD SWAP1 PUSH1 0x20 ADD DUP1 DUP4 GT PUSH2 0x863 JUMPI DUP3 SWAP1 SUB PUSH1 0x1F AND DUP3 ADD SWAP2 JUMPDEST POP POP POP POP POP SWAP1 POP SWAP1 JUMP JUMPDEST PUSH0 DUP1 SHL DUP2 JUMP JUMPDEST PUSH0 DUP1 PUSH2 0x89A PUSH2 0x9E3 JUMP JUMPDEST SWAP1 POP PUSH2 0x8A7 DUP2 DUP6 DUP6 PUSH2 0xB0E JUMP JUMPDEST PUSH1 0x1 SWAP2 POP POP SWAP3 SWAP2 POP POP JUMP JUMPDEST PUSH32 0x9F2DF0FED2C77648DE5860A4CC508CD0818C85B8B8A1AB4CEEEF8D981C8956A6 DUP2 JUMP JUMPDEST PUSH2 0x8DF DUP3 PUSH2 0x622 JUMP JUMPDEST PUSH2 0x8E8 DUP2 PUSH2 0xBFE JUMP JUMPDEST PUSH2 0x8F2 DUP4 DUP4 PUSH2 0xD7B JUMP JUMPDEST POP POP POP POP JUMP JUMPDEST PUSH0 PUSH1 0x1 PUSH0 DUP5 PUSH20 0xFFFFFFFFFFFFFFFFFFFFFFFFFFFFFFFFFFFFFFFF AND PUSH20 0xFFFFFFFFFFFFFFFFFFFFFFFFFFFFFFFFFFFFFFFF AND DUP2 MSTORE PUSH1 0x20 ADD SWAP1 DUP2 MSTORE PUSH1 0x20 ADD PUSH0 KECCAK256 PUSH0 DUP4 PUSH20 0xFFFFFFFFFFFFFFFFFFFFFFFFFFFFFFFFFFFFFFFF AND PUSH20 0xFFFFFFFFFFFFFFFFFFFFFFFFFFFFFFFFFFFFFFFF AND DUP2 MSTORE PUSH1 0x20 ADD SWAP1 DUP2 MSTORE PUSH1 0x20 ADD PUSH0 KECCAK256 SLOAD SWAP1 POP SWAP3 SWAP2 POP POP JUMP JUMPDEST PUSH0 PUSH32 0x1FFC9A700000000000000000000000000000000000000000000000000000000 PUSH28 0xFFFFFFFFFFFFFFFFFFFFFFFFFFFFFFFFFFFFFFFFFFFFFFFFFFFFFFFF NOT AND DUP3 PUSH28 0xFFFFFFFFFFFFFFFFFFFFFFFFFFFFFFFFFFFFFFFFFFFFFFFFFFFFFFFF NOT AND EQ SWAP1 POP SWAP2 SWAP1 POP JUMP JUMPDEST PUSH0 CALLER SWAP1 POP SWAP1 JUMP JUMPDEST PUSH2 0x9F7 DUP4 DUP4 DUP4 PUSH1 0x1 PUSH2 0xE65 JUMP JUMPDEST POP POP POP JUMP JUMPDEST PUSH0 PUSH20 0xFFFFFFFFFFFFFFFFFFFFFFFFFFFFFFFFFFFFFFFF AND DUP3 PUSH20 0xFFFFFFFFFFFFFFFFFFFFFFFFFFFFFFFFFFFFFFFF AND SUB PUSH2 0xA6C JUMPI PUSH0 PUSH1 0x40 MLOAD PUSH32 0x96C6FD1E00000000000000000000000000000000000000000000000000000000 DUP2 MSTORE PUSH1 0x4 ADD PUSH2 0xA63 SWAP2 SWAP1 PUSH2 0x17A2 JUMP JUMPDEST PUSH1 0x40 MLOAD DUP1 SWAP2 SUB SWAP1 REVERT JUMPDEST PUSH2 0xA77 DUP3 PUSH0 DUP4 PUSH2 0x1034 JUMP JUMPDEST POP POP JUMP JUMPDEST PUSH0 PUSH2 0xA86 DUP5 DUP5 PUSH2 0x8F8 JUMP JUMPDEST SWAP1 POP PUSH32 0xFFFFFFFFFFFFFFFFFFFFFFFFFFFFFFFFFFFFFFFFFFFFFFFFFFFFFFFFFFFFFFFF DUP2 LT ISZERO PUSH2 0xB08 JUMPI DUP2 DUP2 LT ISZERO PUSH2 0xAF9 JUMPI DUP3 DUP2 DUP4 PUSH1 0x40 MLOAD PUSH32 0xFB8F41B200000000000000000000000000000000000000000000000000000000 DUP2 MSTORE PUSH1 0x4 ADD PUSH2 0xAF0 SWAP4 SWAP3 SWAP2 SWAP1 PUSH2 0x17BB JUMP JUMPDEST PUSH1 0x40 MLOAD DUP1 SWAP2 SUB SWAP1 REVERT JUMPDEST PUSH2 0xB07 DUP5 DUP5 DUP5 DUP5 SUB PUSH0 PUSH2 0xE65 JUMP JUMPDEST JUMPDEST POP POP POP POP JUMP JUMPDEST PUSH0 PUSH20 0xFFFFFFFFFFFFFFFFFFFFFFFFFFFFFFFFFFFFFFFF AND DUP4 PUSH20 0xFFFFFFFFFFFFFFFFFFFFFFFFFFFFFFFFFFFFFFFF AND SUB PUSH2 0xB7E JUMPI PUSH0 PUSH1 0x40 MLOAD PUSH32 0x96C6FD1E00000000000000000000000000000000000000000000000000000000 DUP2 MSTORE PUSH1 0x4 ADD PUSH2 0xB75 SWAP2 SWAP1 PUSH2 0x17A2 JUMP JUMPDEST PUSH1 0x40 MLOAD DUP1 SWAP2 SUB SWAP1 REVERT JUMPDEST PUSH0 PUSH20 0xFFFFFFFFFFFFFFFFFFFFFFFFFFFFFFFFFFFFFFFF AND DUP3 PUSH20 0xFFFFFFFFFFFFFFFFFFFFFFFFFFFFFFFFFFFFFFFF AND SUB PUSH2 0xBEE JUMPI PUSH0 PUSH1 0x40 MLOAD PUSH32 0xEC442F0500000000000000000000000000000000000000000000000000000000 DUP2 MSTORE PUSH1 0x4 ADD PUSH2 0xBE5 SWAP2 SWAP1 PUSH2 0x17A2 JUMP JUMPDEST PUSH1 0x40 MLOAD DUP1 SWAP2 SUB SWAP1 REVERT JUMPDEST PUSH2 0xBF9 DUP4 DUP4 DUP4 PUSH2 0x1034 JUMP JUMPDEST POP POP POP JUMP JUMPDEST PUSH2 0xC0F DUP2 PUSH2 0xC0A PUSH2 0x9E3 JUMP JUMPDEST PUSH2 0x124D JUMP JUMPDEST POP JUMP JUMPDEST PUSH0 PUSH2 0xC1D DUP4 DUP4 PUSH2 0x796 JUMP JUMPDEST PUSH2 0xCF2 JUMPI PUSH1 0x1 PUSH1 0x5 PUSH0 DUP6 DUP2 MSTORE PUSH1 0x20 ADD SWAP1 DUP2 MSTORE PUSH1 0x20 ADD PUSH0 KECCAK256 PUSH0 ADD PUSH0 DUP5 PUSH20 0xFFFFFFFFFFFFFFFFFFFFFFFFFFFFFFFFFFFFFFFF AND PUSH20 0xFFFFFFFFFFFFFFFFFFFFFFFFFFFFFFFFFFFFFFFF AND DUP2 MSTORE PUSH1 0x20 ADD SWAP1 DUP2 MSTORE PUSH1 0x20 ADD PUSH0 KECCAK256 PUSH0 PUSH2 0x100 EXP DUP2 SLOAD DUP2 PUSH1 0xFF MUL NOT AND SWAP1 DUP4 ISZERO ISZERO MUL OR SWAP1 SSTORE POP PUSH2 0xC8F PUSH2 0x9E3 JUMP JUMPDEST PUSH20 0xFFFFFFFFFFFFFFFFFFFFFFFFFFFFFFFFFFFFFFFF AND DUP3 PUSH20 0xFFFFFFFFFFFFFFFFFFFFFFFFFFFFFFFFFFFFFFFF AND DUP5 PUSH32 0x2F8788117E7EFF1D82E926EC794901D17C78024A50270940304540A733656F0D PUSH1 0x40 MLOAD PUSH1 0x40 MLOAD DUP1 SWAP2 SUB SWAP1 LOG4 PUSH1 0x1 SWAP1 POP PUSH2 0xCF6 JUMP JUMPDEST PUSH0 SWAP1 POP JUMPDEST SWAP3 SWAP2 POP POP JUMP JUMPDEST PUSH0 PUSH20 0xFFFFFFFFFFFFFFFFFFFFFFFFFFFFFFFFFFFFFFFF AND DUP3 PUSH20 0xFFFFFFFFFFFFFFFFFFFFFFFFFFFFFFFFFFFFFFFF AND SUB PUSH2 0xD6C JUMPI PUSH0 PUSH1 0x40 MLOAD PUSH32 0xEC442F0500000000000000000000000000000000000000000000000000000000 DUP2 MSTORE PUSH1 0x4 ADD PUSH2 0xD63 SWAP2 SWAP1 PUSH2 0x17A2 JUMP JUMPDEST PUSH1 0x40 MLOAD DUP1 SWAP2 SUB SWAP1 REVERT JUMPDEST PUSH2 0xD77 PUSH0 DUP4 DUP4 PUSH2 0x1034 JUMP JUMPDEST POP POP JUMP JUMPDEST PUSH0 PUSH2 0xD86 DUP4 DUP4 PUSH2 0x796 JUMP JUMPDEST ISZERO PUSH2 0xE5B JUMPI PUSH0 PUSH1 0x5 PUSH0 DUP6 DUP2 MSTORE PUSH1 0x20 ADD SWAP1 DUP2 MSTORE PUSH1 0x20 ADD PUSH0 KECCAK256 PUSH0 ADD PUSH0 DUP5 PUSH20 0xFFFFFFFFFFFFFFFFFFFFFFFFFFFFFFFFFFFFFFFF AND PUSH20 0xFFFFFFFFFFFFFFFFFFFFFFFFFFFFFFFFFFFFFFFF AND DUP2 MSTORE PUSH1 0x20 ADD SWAP1 DUP2 MSTORE PUSH1 0x20 ADD PUSH0 KECCAK256 PUSH0 PUSH2 0x100 EXP DUP2 SLOAD DUP2 PUSH1 0xFF MUL NOT AND SWAP1 DUP4 ISZERO ISZERO MUL OR SWAP1 SSTORE POP PUSH2 0xDF8 PUSH2 0x9E3 JUMP JUMPDEST PUSH20 0xFFFFFFFFFFFFFFFFFFFFFFFFFFFFFFFFFFFFFFFF AND DUP3 PUSH20 0xFFFFFFFFFFFFFFFFFFFFFFFFFFFFFFFFFFFFFFFF AND DUP5 PUSH32 0xF6391F5C32D9C69D2A47EA670B442974B53935D1EDC7FD64EB21E047A839171B PUSH1 0x40 MLOAD PUSH1 0x40 MLOAD DUP1 SWAP2 SUB SWAP1 LOG4 PUSH1 0x1 SWAP1 POP PUSH2 0xE5F JUMP JUMPDEST PUSH0 SWAP1 POP JUMPDEST SWAP3 SWAP2 POP POP JUMP JUMPDEST PUSH0 PUSH20 0xFFFFFFFFFFFFFFFFFFFFFFFFFFFFFFFFFFFFFFFF AND DUP5 PUSH20 0xFFFFFFFFFFFFFFFFFFFFFFFFFFFFFFFFFFFFFFFF AND SUB PUSH2 0xED5 JUMPI PUSH0 PUSH1 0x40 MLOAD PUSH32 0xE602DF0500000000000000000000000000000000000000000000000000000000 DUP2 MSTORE PUSH1 0x4 ADD PUSH2 0xECC SWAP2 SWAP1 PUSH2 0x17A2 JUMP JUMPDEST PUSH1 0x40 MLOAD DUP1 SWAP2 SUB SWAP1 REVERT JUMPDEST PUSH0 PUSH20 0xFFFFFFFFFFFFFFFFFFFFFFFFFFFFFFFFFFFFFFFF AND DUP4 PUSH20 0xFFFFFFFFFFFFFFFFFFFFFFFFFFFFFFFFFFFFFFFF AND SUB PUSH2 0xF45 JUMPI PUSH0 PUSH1 0x40 MLOAD PUSH32 0x94280D6200000000000000000000000000000000000000000000000000000000 DUP2 MSTORE PUSH1 0x4 ADD PUSH2 0xF3C SWAP2 SWAP1 PUSH2 0x17A2 JUMP JUMPDEST PUSH1 0x40 MLOAD DUP1 SWAP2 SUB SWAP1 REVERT JUMPDEST DUP2 PUSH1 0x1 PUSH0 DUP7 PUSH20 0xFFFFFFFFFFFFFFFFFFFFFFFFFFFFFFFFFFFFFFFF AND PUSH20 0xFFFFFFFFFFFFFFFFFFFFFFFFFFFFFFFFFFFFFFFF AND DUP2 MSTORE PUSH1 0x20 ADD SWAP1 DUP2 MSTORE PUSH1 0x20 ADD PUSH0 KECCAK256 PUSH0 DUP6 PUSH20 0xFFFFFFFFFFFFFFFFFFFFFFFFFFFFFFFFFFFFFFFF AND PUSH20 0xFFFFFFFFFFFFFFFFFFFFFFFFFFFFFFFFFFFFFFFF AND DUP2 MSTORE PUSH1 0x20 ADD SWAP1 DUP2 MSTORE PUSH1 0x20 ADD PUSH0 KECCAK256 DUP2 SWAP1 SSTORE POP DUP1 ISZERO PUSH2 0x102E JUMPI DUP3 PUSH20 0xFFFFFFFFFFFFFFFFFFFFFFFFFFFFFFFFFFFFFFFF AND DUP5 PUSH20 0xFFFFFFFFFFFFFFFFFFFFFFFFFFFFFFFFFFFFFFFF AND PUSH32 0x8C5BE1E5EBEC7D5BD14F71427D1E84F3DD0314C0F7B2291E5B200AC8C7C3B925 DUP5 PUSH1 0x40 MLOAD PUSH2 0x1025 SWAP2 SWAP1 PUSH2 0x14D9 JUMP JUMPDEST PUSH1 0x40 MLOAD DUP1 SWAP2 SUB SWAP1 LOG3 JUMPDEST POP POP POP POP JUMP JUMPDEST PUSH0 PUSH20 0xFFFFFFFFFFFFFFFFFFFFFFFFFFFFFFFFFFFFFFFF AND DUP4 PUSH20 0xFFFFFFFFFFFFFFFFFFFFFFFFFFFFFFFFFFFFFFFF AND SUB PUSH2 0x1084 JUMPI DUP1 PUSH1 0x2 PUSH0 DUP3 DUP3 SLOAD PUSH2 0x1078 SWAP2 SWAP1 PUSH2 0x181D JUMP JUMPDEST SWAP3 POP POP DUP2 SWAP1 SSTORE POP PUSH2 0x1152 JUMP JUMPDEST PUSH0 DUP1 PUSH0 DUP6 PUSH20 0xFFFFFFFFFFFFFFFFFFFFFFFFFFFFFFFFFFFFFFFF AND PUSH20 0xFFFFFFFFFFFFFFFFFFFFFFFFFFFFFFFFFFFFFFFF AND DUP2 MSTORE PUSH1 0x20 ADD SWAP1 DUP2 MSTORE PUSH1 0x20 ADD PUSH0 KECCAK256 SLOAD SWAP1 POP DUP2 DUP2 LT ISZERO PUSH2 0x110D JUMPI DUP4 DUP2 DUP4 PUSH1 0x40 MLOAD PUSH32 0xE450D38C00000000000000000000000000000000000000000000000000000000 DUP2 MSTORE PUSH1 0x4 ADD PUSH2 0x1104 SWAP4 SWAP3 SWAP2 SWAP1 PUSH2 0x17BB JUMP JUMPDEST PUSH1 0x40 MLOAD DUP1 SWAP2 SUB SWAP1 REVERT JUMPDEST DUP2 DUP2 SUB PUSH0 DUP1 DUP7 PUSH20 0xFFFFFFFFFFFFFFFFFFFFFFFFFFFFFFFFFFFFFFFF AND PUSH20 0xFFFFFFFFFFFFFFFFFFFFFFFFFFFFFFFFFFFFFFFF AND DUP2 MSTORE PUSH1 0x20 ADD SWAP1 DUP2 MSTORE PUSH1 0x20 ADD PUSH0 KECCAK256 DUP2 SWAP1 SSTORE POP POP JUMPDEST PUSH0 PUSH20 0xFFFFFFFFFFFFFFFFFFFFFFFFFFFFFFFFFFFFFFFF AND DUP3 PUSH20 0xFFFFFFFFFFFFFFFFFFFFFFFFFFFFFFFFFFFFFFFF AND SUB PUSH2 0x1199 JUMPI DUP1 PUSH1 0x2 PUSH0 DUP3 DUP3 SLOAD SUB SWAP3 POP POP DUP2 SWAP1 SSTORE POP PUSH2 0x11E3 JUMP JUMPDEST DUP1 PUSH0 DUP1 DUP5 PUSH20 0xFFFFFFFFFFFFFFFFFFFFFFFFFFFFFFFFFFFFFFFF AND PUSH20 0xFFFFFFFFFFFFFFFFFFFFFFFFFFFFFFFFFFFFFFFF AND DUP2 MSTORE PUSH1 0x20 ADD SWAP1 DUP2 MSTORE PUSH1 0x20 ADD PUSH0 KECCAK256 PUSH0 DUP3 DUP3 SLOAD ADD SWAP3 POP POP DUP2 SWAP1 SSTORE POP JUMPDEST DUP2 PUSH20 0xFFFFFFFFFFFFFFFFFFFFFFFFFFFFFFFFFFFFFFFF AND DUP4 PUSH20 0xFFFFFFFFFFFFFFFFFFFFFFFFFFFFFFFFFFFFFFFF AND PUSH32 0xDDF252AD1BE2C89B69C2B068FC378DAA952BA7F163C4A11628F55A4DF523B3EF DUP4 PUSH1 0x40 MLOAD PUSH2 0x1240 SWAP2 SWAP1 PUSH2 0x14D9 JUMP JUMPDEST PUSH1 0x40 MLOAD DUP1 SWAP2 SUB SWAP1 LOG3 POP POP POP JUMP JUMPDEST PUSH2 0x1257 DUP3 DUP3 PUSH2 0x796 JUMP JUMPDEST PUSH2 0x129A JUMPI DUP1 DUP3 PUSH1 0x40 MLOAD PUSH32 0xE2517D3F00000000000000000000000000000000000000000000000000000000 DUP2 MSTORE PUSH1 0x4 ADD PUSH2 0x1291 SWAP3 SWAP2 SWAP1 PUSH2 0x1850 JUMP JUMPDEST PUSH1 0x40 MLOAD DUP1 SWAP2 SUB SWAP1 REVERT JUMPDEST POP POP JUMP JUMPDEST PUSH0 DUP1 REVERT JUMPDEST PUSH0 PUSH32 0xFFFFFFFF00000000000000000000000000000000000000000000000000000000 DUP3 AND SWAP1 POP SWAP2 SWAP1 POP JUMP JUMPDEST PUSH2 0x12D6 DUP2 PUSH2 0x12A2 JUMP JUMPDEST DUP2 EQ PUSH2 0x12E0 JUMPI PUSH0 DUP1 REVERT JUMPDEST POP JUMP JUMPDEST PUSH0 DUP2 CALLDATALOAD SWAP1 POP PUSH2 0x12F1 DUP2 PUSH2 0x12CD JUMP JUMPDEST SWAP3 SWAP2 POP POP JUMP JUMPDEST PUSH0 PUSH1 0x20 DUP3 DUP5 SUB SLT ISZERO PUSH2 0x130C JUMPI PUSH2 0x130B PUSH2 0x129E JUMP JUMPDEST JUMPDEST PUSH0 PUSH2 0x1319 DUP5 DUP3 DUP6 ADD PUSH2 0x12E3 JUMP JUMPDEST SWAP2 POP POP SWAP3 SWAP2 POP POP JUMP JUMPDEST PUSH0 DUP2 ISZERO ISZERO SWAP1 POP SWAP2 SWAP1 POP JUMP JUMPDEST PUSH2 0x1336 DUP2 PUSH2 0x1322 JUMP JUMPDEST DUP3 MSTORE POP POP JUMP JUMPDEST PUSH0 PUSH1 0x20 DUP3 ADD SWAP1 POP PUSH2 0x134F PUSH0 DUP4 ADD DUP5 PUSH2 0x132D JUMP JUMPDEST SWAP3 SWAP2 POP POP JUMP JUMPDEST PUSH0 DUP2 MLOAD SWAP1 POP SWAP2 SWAP1 POP JUMP JUMPDEST PUSH0 DUP3 DUP3 MSTORE PUSH1 0x20 DUP3 ADD SWAP1 POP SWAP3 SWAP2 POP POP JUMP JUMPDEST PUSH0 JUMPDEST DUP4 DUP2 LT ISZERO PUSH2 0x138C JUMPI DUP1 DUP3 ADD MLOAD DUP2 DUP5 ADD MSTORE PUSH1 0x20 DUP2 ADD SWAP1 POP PUSH2 0x1371 JUMP JUMPDEST PUSH0 DUP5 DUP5 ADD MSTORE POP POP POP POP JUMP JUMPDEST PUSH0 PUSH1 0x1F NOT PUSH1 0x1F DUP4 ADD AND SWAP1 POP SWAP2 SWAP1 POP JUMP JUMPDEST PUSH0 PUSH2 0x13B1 DUP3 PUSH2 0x1355 JUMP JUMPDEST PUSH2 0x13BB DUP2 DUP6 PUSH2 0x135F JUMP JUMPDEST SWAP4 POP PUSH2 0x13CB DUP2 DUP6 PUSH1 0x20 DUP7 ADD PUSH2 0x136F JUMP JUMPDEST PUSH2 0x13D4 DUP2 PUSH2 0x1397 JUMP JUMPDEST DUP5 ADD SWAP2 POP POP SWAP3 SWAP2 POP POP JUMP JUMPDEST PUSH0 PUSH1 0x20 DUP3 ADD SWAP1 POP DUP2 DUP2 SUB PUSH0 DUP4 ADD MSTORE PUSH2 0x13F7 DUP2 DUP5 PUSH2 0x13A7 JUMP JUMPDEST SWAP1 POP SWAP3 SWAP2 POP POP JUMP JUMPDEST PUSH0 PUSH20 0xFFFFFFFFFFFFFFFFFFFFFFFFFFFFFFFFFFFFFFFF DUP3 AND SWAP1 POP SWAP2 SWAP1 POP JUMP JUMPDEST PUSH0 PUSH2 0x1428 DUP3 PUSH2 0x13FF JUMP JUMPDEST SWAP1 POP SWAP2 SWAP1 POP JUMP JUMPDEST PUSH2 0x1438 DUP2 PUSH2 0x141E JUMP JUMPDEST DUP2 EQ PUSH2 0x1442 JUMPI PUSH0 DUP1 REVERT JUMPDEST POP JUMP JUMPDEST PUSH0 DUP2 CALLDATALOAD SWAP1 POP PUSH2 0x1453 DUP2 PUSH2 0x142F JUMP JUMPDEST SWAP3 SWAP2 POP POP JUMP JUMPDEST PUSH0 DUP2 SWAP1 POP SWAP2 SWAP1 POP JUMP JUMPDEST PUSH2 0x146B DUP2 PUSH2 0x1459 JUMP JUMPDEST DUP2 EQ PUSH2 0x1475 JUMPI PUSH0 DUP1 REVERT JUMPDEST POP JUMP JUMPDEST PUSH0 DUP2 CALLDATALOAD SWAP1 POP PUSH2 0x1486 DUP2 PUSH2 0x1462 JUMP JUMPDEST SWAP3 SWAP2 POP POP JUMP JUMPDEST PUSH0 DUP1 PUSH1 0x40 DUP4 DUP6 SUB SLT ISZERO PUSH2 0x14A2 JUMPI PUSH2 0x14A1 PUSH2 0x129E JUMP JUMPDEST JUMPDEST PUSH0 PUSH2 0x14AF DUP6 DUP3 DUP7 ADD PUSH2 0x1445 JUMP JUMPDEST SWAP3 POP POP PUSH1 0x20 PUSH2 0x14C0 DUP6 DUP3 DUP7 ADD PUSH2 0x1478 JUMP JUMPDEST SWAP2 POP POP SWAP3 POP SWAP3 SWAP1 POP JUMP JUMPDEST PUSH2 0x14D3 DUP2 PUSH2 0x1459 JUMP JUMPDEST DUP3 MSTORE POP POP JUMP JUMPDEST PUSH0 PUSH1 0x20 DUP3 ADD SWAP1 POP PUSH2 0x14EC PUSH0 DUP4 ADD DUP5 PUSH2 0x14CA JUMP JUMPDEST SWAP3 SWAP2 POP POP JUMP JUMPDEST PUSH0 DUP1 PUSH0 PUSH1 0x60 DUP5 DUP7 SUB SLT ISZERO PUSH2 0x1509 JUMPI PUSH2 0x1508 PUSH2 0x129E JUMP JUMPDEST JUMPDEST PUSH0 PUSH2 0x1516 DUP7 DUP3 DUP8 ADD PUSH2 0x1445 JUMP JUMPDEST SWAP4 POP POP PUSH1 0x20 PUSH2 0x1527 DUP7 DUP3 DUP8 ADD PUSH2 0x1445 JUMP JUMPDEST SWAP3 POP POP PUSH1 0x40 PUSH2 0x1538 DUP7 DUP3 DUP8 ADD PUSH2 0x1478 JUMP JUMPDEST SWAP2 POP POP SWAP3 POP SWAP3 POP SWAP3 JUMP JUMPDEST PUSH0 DUP2 SWAP1 POP SWAP2 SWAP1 POP JUMP JUMPDEST PUSH2 0x1554 DUP2 PUSH2 0x1542 JUMP JUMPDEST DUP2 EQ PUSH2 0x155E JUMPI PUSH0 DUP1 REVERT JUMPDEST POP JUMP JUMPDEST PUSH0 DUP2 CALLDATALOAD SWAP1 POP PUSH2 0x156F DUP2 PUSH2 0x154B JUMP JUMPDEST SWAP3 SWAP2 POP POP JUMP JUMPDEST PUSH0 PUSH1 0x20 DUP3 DUP5 SUB SLT ISZERO PUSH2 0x158A JUMPI PUSH2 0x1589 PUSH2 0x129E JUMP JUMPDEST JUMPDEST PUSH0 PUSH2 0x1597 DUP5 DUP3 DUP6 ADD PUSH2 0x1561 JUMP JUMPDEST SWAP2 POP POP SWAP3 SWAP2 POP POP JUMP JUMPDEST PUSH2 0x15A9 DUP2 PUSH2 0x1542 JUMP JUMPDEST DUP3 MSTORE POP POP JUMP JUMPDEST PUSH0 PUSH1 0x20 DUP3 ADD SWAP1 POP PUSH2 0x15C2 PUSH0 DUP4 ADD DUP5 PUSH2 0x15A0 JUMP JUMPDEST SWAP3 SWAP2 POP POP JUMP JUMPDEST PUSH0 DUP1 PUSH1 0x40 DUP4 DUP6 SUB SLT ISZERO PUSH2 0x15DE JUMPI PUSH2 0x15DD PUSH2 0x129E JUMP JUMPDEST JUMPDEST PUSH0 PUSH2 0x15EB DUP6 DUP3 DUP7 ADD PUSH2 0x1561 JUMP JUMPDEST SWAP3 POP POP PUSH1 0x20 PUSH2 0x15FC DUP6 DUP3 DUP7 ADD PUSH2 0x1445 JUMP JUMPDEST SWAP2 POP POP SWAP3 POP SWAP3 SWAP1 POP JUMP JUMPDEST PUSH0 PUSH1 0xFF DUP3 AND SWAP1 POP SWAP2 SWAP1 POP JUMP JUMPDEST PUSH2 0x161B DUP2 PUSH2 0x1606 JUMP JUMPDEST DUP3 MSTORE POP POP JUMP JUMPDEST PUSH0 PUSH1 0x20 DUP3 ADD SWAP1 POP PUSH2 0x1634 PUSH0 DUP4 ADD DUP5 PUSH2 0x1612 JUMP JUMPDEST SWAP3 SWAP2 POP POP JUMP JUMPDEST PUSH0 PUSH1 0x20 DUP3 DUP5 SUB SLT ISZERO PUSH2 0x164F JUMPI PUSH2 0x164E PUSH2 0x129E JUMP JUMPDEST JUMPDEST PUSH0 PUSH2 0x165C DUP5 DUP3 DUP6 ADD PUSH2 0x1478 JUMP JUMPDEST SWAP2 POP POP SWAP3 SWAP2 POP POP JUMP JUMPDEST PUSH0 PUSH1 0x20 DUP3 DUP5 SUB SLT ISZERO PUSH2 0x167A JUMPI PUSH2 0x1679 PUSH2 0x129E JUMP JUMPDEST JUMPDEST PUSH0 PUSH2 0x1687 DUP5 DUP3 DUP6 ADD PUSH2 0x1445 JUMP JUMPDEST SWAP2 POP POP SWAP3 SWAP2 POP POP JUMP JUMPDEST PUSH0 DUP1 PUSH1 0x40 DUP4 DUP6 SUB SLT ISZERO PUSH2 0x16A6 JUMPI PUSH2 0x16A5 PUSH2 0x129E JUMP JUMPDEST JUMPDEST PUSH0 PUSH2 0x16B3 DUP6 DUP3 DUP7 ADD PUSH2 0x1445 JUMP JUMPDEST SWAP3 POP POP PUSH1 0x20 PUSH2 0x16C4 DUP6 DUP3 DUP7 ADD PUSH2 0x1445 JUMP JUMPDEST SWAP2 POP POP SWAP3 POP SWAP3 SWAP1 POP JUMP JUMPDEST PUSH32 0x4E487B7100000000000000000000000000000000000000000000000000000000 PUSH0 MSTORE PUSH1 0x22 PUSH1 0x4 MSTORE PUSH1 0x24 PUSH0 REVERT JUMPDEST PUSH0 PUSH1 0x2 DUP3 DIV SWAP1 POP PUSH1 0x1 DUP3 AND DUP1 PUSH2 0x1712 JUMPI PUSH1 0x7F DUP3 AND SWAP2 POP JUMPDEST PUSH1 0x20 DUP3 LT DUP2 SUB PUSH2 0x1725 JUMPI PUSH2 0x1724 PUSH2 0x16CE JUMP JUMPDEST JUMPDEST POP SWAP2 SWAP1 POP JUMP JUMPDEST PUSH32 0x4E6F7420617574686F72697A656420746F207265746972650000000000000000 PUSH0 DUP3 ADD MSTORE POP JUMP JUMPDEST PUSH0 PUSH2 0x175F PUSH1 0x18 DUP4 PUSH2 0x135F JUMP JUMPDEST SWAP2 POP PUSH2 0x176A DUP3 PUSH2 0x172B JUMP JUMPDEST PUSH1 0x20 DUP3 ADD SWAP1 POP SWAP2 SWAP1 POP JUMP JUMPDEST PUSH0 PUSH1 0x20 DUP3 ADD SWAP1 POP DUP2 DUP2 SUB PUSH0 DUP4 ADD MSTORE PUSH2 0x178C DUP2 PUSH2 0x1753 JUMP JUMPDEST SWAP1 POP SWAP2 SWAP1 POP JUMP JUMPDEST PUSH2 0x179C DUP2 PUSH2 0x141E JUMP JUMPDEST DUP3 MSTORE POP POP JUMP JUMPDEST PUSH0 PUSH1 0x20 DUP3 ADD SWAP1 POP PUSH2 0x17B5 PUSH0 DUP4 ADD DUP5 PUSH2 0x1793 JUMP JUMPDEST SWAP3 SWAP2 POP POP JUMP JUMPDEST PUSH0 PUSH1 0x60 DUP3 ADD SWAP1 POP PUSH2 0x17CE PUSH0 DUP4 ADD DUP7 PUSH2 0x1793 JUMP JUMPDEST PUSH2 0x17DB PUSH1 0x20 DUP4 ADD DUP6 PUSH2 0x14CA JUMP JUMPDEST PUSH2 0x17E8 PUSH1 0x40 DUP4 ADD DUP5 PUSH2 0x14CA JUMP JUMPDEST SWAP5 SWAP4 POP POP POP POP JUMP JUMPDEST PUSH32 0x4E487B7100000000000000000000000000000000000000000000000000000000 PUSH0 MSTORE PUSH1 0x11 PUSH1 0x4 MSTORE PUSH1 0x24 PUSH0 REVERT JUMPDEST PUSH0 PUSH2 0x1827 DUP3 PUSH2 0x1459 JUMP JUMPDEST SWAP2 POP PUSH2 0x1832 DUP4 PUSH2 0x1459 JUMP JUMPDEST SWAP3 POP DUP3 DUP3 ADD SWAP1 POP DUP1 DUP3 GT ISZERO PUSH2 0x184A JUMPI PUSH2 0x1849 PUSH2 0x17F0 JUMP JUMPDEST JUMPDEST SWAP3 SWAP2 POP POP JUMP JUMPDEST PUSH0 PUSH1 0x40 DUP3 ADD SWAP1 POP PUSH2 0x1863 PUSH0 DUP4 ADD DUP6 PUSH2 0x1793 JUMP JUMPDEST PUSH2 0x1870 PUSH1 0x20 DUP4 ADD DUP5 PUSH2 0x15A0 JUMP JUMPDEST SWAP4 SWAP3 POP POP POP JUMP INVALID LOG2 PUSH5 0x6970667358 0x22 SLT KECCAK256 0xD7 0xC1 ORIGIN 0xDB 0xCF 0xB4 EXTCODESIZE LOG3 0xAE CALLDATALOAD BLOBBASEFEE SAR 0xCC LOG1 SLOAD 0xC8 0xB4 STOP 0xD4 SELFDESTRUCT PUSH8 0xED967A642AAF3524 SWAP5 SWAP16 STATICCALL PUSH5 0x736F6C6343 STOP ADDMOD XOR STOP CALLER "},"methodIdentifiers":{"DEFAULT_ADMIN_ROLE()":"a217fddf","MINTER_ROLE()":"d5391393","allowance(address,address)":"dd62ed3e","approve(address,uint256)":"095ea7b3","balanceOf(address)":"70a08231","burn(uint256)":"42966c68","burnFrom(address,uint256)":"79cc6790","decimals()":"313ce567","getRoleAdmin(bytes32)":"248a9ca3","grantRole(bytes32,address)":"2f2ff15d","hasRole(bytes32,address)":"91d14854","issueCredits(address,uint256)":"31b00f7a","name()":"06fdde03","renounceRole(bytes32,address)":"36568abe","retireCredits(address,uint256)":"177bd971","revokeRole(bytes32,address)":"d547741f","supportsInterface(bytes4)":"01ffc9a7","symbol()":"95d89b41","totalSupply()":"18160ddd","transfer(address,uint256)":"a9059cbb","transferFrom(address,address,uint256)":"23b872dd"}}}}}