{"abi":[{"type":"constructor","inputs":[{"name":"_carbonCreditToken","type":"address","internalType":"address"}],"stateMutability":"nonpayable"},{"type":"function","name":"buyCredits","inputs":[{"name":"_listingId","type":"uint256","internalType":"uint256"}],"outputs":[],"stateMutability":"payable"},{"type":"function","name":"cancelListing","inputs":[{"name":"_listingId","type":"uint256","internalType":"uint256"}],"outputs":[],"stateMutability":"nonpayable"},{"type":"function","name":"carbonCreditToken","inputs":[],"outputs":[{"name":"","type":"address","internalType":"contract IERC20"}],"stateMutability":"view"},{"type":"function","name":"listCredits","inputs":[{"name":"_amount","type":"uint256","internalType":"uint256"},{"name":"_pricePerCredit","type":"uint256","internalType":"uint256"}],"outputs":[],"stateMutability":"nonpayable"},{"type":"function","name":"listings","inputs":[{"name":"","type":"uint256","internalType":"uint256"}],"outputs":[{"name":"id","type":"uint256","internalType":"uint256"},{"name":"seller","type":"address","internalType":"address"},{"name":"amount","type":"uint256","internalType":"uint256"},{"name":"pricePerCredit","type":"uint256","internalType":"uint256"},{"name":"active","type":"bool","internalType":"bool"}],"stateMutability":"view"},{"type":"function","name":"nextListingId","inputs":[],"outputs":[{"name":"","type":"uint256","internalType":"uint256"}],"stateMutability":"view"},{"type":"function","name":"owner","inputs":[],"outputs":[{"name":"","type":"address","internalType":"address"}],"stateMutability":"view"},{"type":"function","name":"renounceOwnership","inputs":[],"outputs":[],"stateMutability":"nonpayable"},{"type":"function","name":"transferOwnership","inputs":[{"name":"newOwner","type":"address","internalType":"address"}],"outputs":[],"stateMutability":"nonpayable"},{"type":"event","name":"Cancelled","inputs":[{"name":"listingId","type":"uint256","indexed":true,"internalType":"uint256"}],"anonymous":false},{"type":"event","name":"Listed","inputs":[{"name":"listingId","type":"uint256","indexed":true,"internalType":"uint256"},{"name":"seller","type":"address","indexed":true,"internalType":"address"},{"name":"amount","type":"uint256","indexed":false,"internalType":"uint256"},{"name":"price","type":"uint256","indexed":false,"internalType":"uint256"}],"anonymous":false},{"type":"event","name":"OwnershipTransferred","inputs":[{"name":"previousOwner","type":"address","indexed":true,"internalType":"address"},{"name":"newOwner","type":"address","indexed":true,"internalType":"address"}],"anonymous":false},{"type":"event","name":"Purchased","inputs":[{"name":"listingId","type":"uint256","indexed":true,"internalType":"uint256"},{"name":"buyer","type":"address","indexed":true,"internalType":"address"},{"name":"amount","type":"uint256","indexed":false,"internalType":"uint256"},{"name":"totalCost","type":"uint256","indexed":false,"internalType":"uint256"}],"anonymous":false},{"type":"error","name":"OwnableInvalidOwner","inputs":[{"name":"owner","type":"address","internalType":"address"}]},{"type":"error","name":"OwnableUnauthorizedAccount","inputs":[{"name":"account","type":"address","internalType":"address"}]}],"bytecode":{"object":"0x608060405234801561000f575f5ffd5b50604051611a21380380611a2183398181016040528101906100319190610285565b335f73ffffffffffffffffffffffffffffffffffffffff168173ffffffffffffffffffffffffffffffffffffffff16036100a2575f6040517f1e4fbdf700000000000000000000000000000000000000000000000000000000815260040161009991906102bf565b60405180910390fd5b6100b18161016660201b60201c565b505f73ffffffffffffffffffffffffffffffffffffffff168173ffffffffffffffffffffffffffffffffffffffff1603610120576040517f08c379a000000000000000000000000000000000000000000000000000000000815260040161011790610332565b60405180910390fd5b8060015f6101000a81548173ffffffffffffffffffffffffffffffffffffffff021916908373ffffffffffffffffffffffffffffffffffffffff16021790555050610350565b5f5f5f9054906101000a900473ffffffffffffffffffffffffffffffffffffffff169050815f5f6101000a81548173ffffffffffffffffffffffffffffffffffffffff021916908373ffffffffffffffffffffffffffffffffffffffff1602179055508173ffffffffffffffffffffffffffffffffffffffff168173ffffffffffffffffffffffffffffffffffffffff167f8be0079c531659141344cd1fd0a4f28419497f9722a3daafe3b4186f6b6457e060405160405180910390a35050565b5f5ffd5b5f73ffffffffffffffffffffffffffffffffffffffff82169050919050565b5f6102548261022b565b9050919050565b6102648161024a565b811461026e575f5ffd5b50565b5f8151905061027f8161025b565b92915050565b5f6020828403121561029a57610299610227565b5b5f6102a784828501610271565b91505092915050565b6102b98161024a565b82525050565b5f6020820190506102d25f8301846102b0565b92915050565b5f82825260208201905092915050565b7f696e76616c696420746f6b656e000000000000000000000000000000000000005f82015250565b5f61031c600d836102d8565b9150610327826102e8565b602082019050919050565b5f6020820190508181035f83015261034981610310565b9050919050565b6116c48061035d5f395ff3fe608060405260043610610085575f3560e01c8063715018a611610058578063715018a61461011f5780638da5cb5b14610135578063aaccf1ec1461015f578063de74e57b14610189578063f2fde38b146101c957610085565b80630c4dfe3f14610089578063305a67a8146100a5578063353395e6146100cd57806366dea358146100f5575b5f5ffd5b6100a3600480360381019061009e9190610dc7565b6101f1565b005b3480156100b0575f5ffd5b506100cb60048036038101906100c69190610dc7565b610524565b005b3480156100d8575f5ffd5b506100f360048036038101906100ee9190610df2565b610851565b005b348015610100575f5ffd5b50610109610afb565b6040516101169190610eaa565b60405180910390f35b34801561012a575f5ffd5b50610133610b20565b005b348015610140575f5ffd5b50610149610b33565b6040516101569190610ee3565b60405180910390f35b34801561016a575f5ffd5b50610173610b5a565b6040516101809190610f0b565b60405180910390f35b348015610194575f5ffd5b506101af60048036038101906101aa9190610dc7565b610b60565b6040516101c0959493929190610f3e565b60405180910390f35b3480156101d4575f5ffd5b506101ef60048036038101906101ea9190610fb9565b610bbd565b005b5f60035f8381526020019081526020015f209050806004015f9054906101000a900460ff16610255576040517f08c379a000000000000000000000000000000000000000000000000000000000815260040161024c9061103e565b60405180910390fd5b5f81600201541161029b576040517f08c379a0000000000000000000000000000000000000000000000000000000008152600401610292906110a6565b60405180910390fd5b5f816003015482600201546102b091906110f1565b9050803410156102f5576040517f08c379a00000000000000000000000000000000000000000000000000000000081526004016102ec9061117c565b60405180910390fd5b5f826002015490505f83600201819055505f836004015f6101000a81548160ff0219169083151502179055505f60015f9054906101000a900473ffffffffffffffffffffffffffffffffffffffff1673ffffffffffffffffffffffffffffffffffffffff1663a9059cbb33846040518363ffffffff1660e01b815260040161037e92919061119a565b6020604051808303815f875af115801561039a573d5f5f3e3d5ffd5b505050506040513d601f19601f820116820180604052508101906103be91906111eb565b905080610400576040517f08c379a00000000000000000000000000000000000000000000000000000000081526004016103f790611260565b60405180910390fd5b5f846001015f9054906101000a900473ffffffffffffffffffffffffffffffffffffffff1673ffffffffffffffffffffffffffffffffffffffff1684604051610448906112ab565b5f6040518083038185875af1925050503d805f8114610482576040519150601f19603f3d011682016040523d82523d5f602084013e610487565b606091505b50509050806104cb576040517f08c379a00000000000000000000000000000000000000000000000000000000081526004016104c290611309565b60405180910390fd5b3373ffffffffffffffffffffffffffffffffffffffff16867f2d422c18b05e66a0b22c1c2b24e242e6c19cff65d89543692b3348f7f7ea18d48587604051610514929190611327565b60405180910390a3505050505050565b5f60035f8381526020019081526020015f2090505f73ffffffffffffffffffffffffffffffffffffffff16816001015f9054906101000a900473ffffffffffffffffffffffffffffffffffffffff1673ffffffffffffffffffffffffffffffffffffffff16036105c9576040517f08c379a00000000000000000000000000000000000000000000000000000000081526004016105c090611398565b60405180910390fd5b806001015f9054906101000a900473ffffffffffffffffffffffffffffffffffffffff1673ffffffffffffffffffffffffffffffffffffffff163373ffffffffffffffffffffffffffffffffffffffff1614806106585750610629610b33565b73ffffffffffffffffffffffffffffffffffffffff163373ffffffffffffffffffffffffffffffffffffffff16145b610697576040517f08c379a000000000000000000000000000000000000000000000000000000000815260040161068e90611400565b60405180910390fd5b806004015f9054906101000a900460ff166106e7576040517f08c379a00000000000000000000000000000000000000000000000000000000081526004016106de90611468565b60405180910390fd5b5f816002015490505f82600201819055505f826004015f6101000a81548160ff0219169083151502179055505f81111561081f575f60015f9054906101000a900473ffffffffffffffffffffffffffffffffffffffff1673ffffffffffffffffffffffffffffffffffffffff1663a9059cbb846001015f9054906101000a900473ffffffffffffffffffffffffffffffffffffffff16846040518363ffffffff1660e01b815260040161079b92919061119a565b6020604051808303815f875af11580156107b7573d5f5f3e3d5ffd5b505050506040513d601f19601f820116820180604052508101906107db91906111eb565b90508061081d576040517f08c379a0000000000000000000000000000000000000000000000000000000008152600401610814906114d0565b60405180910390fd5b505b827fc41d93b8bfbf9fd7cf5bfe271fd649ab6a6fec0ea101c23b82a2a28eca2533a960405160405180910390a2505050565b5f8211610893576040517f08c379a000000000000000000000000000000000000000000000000000000000815260040161088a90611538565b60405180910390fd5b5f81116108d5576040517f08c379a00000000000000000000000000000000000000000000000000000000081526004016108cc906115a0565b60405180910390fd5b5f60015f9054906101000a900473ffffffffffffffffffffffffffffffffffffffff1673ffffffffffffffffffffffffffffffffffffffff166323b872dd3330866040518463ffffffff1660e01b8152600401610934939291906115be565b6020604051808303815f875af1158015610950573d5f5f3e3d5ffd5b505050506040513d601f19601f8201168201806040525081019061097491906111eb565b9050806109b6576040517f08c379a00000000000000000000000000000000000000000000000000000000081526004016109ad9061163d565b60405180910390fd5b5f60025490506040518060a001604052808281526020013373ffffffffffffffffffffffffffffffffffffffff1681526020018581526020018481526020016001151581525060035f8381526020019081526020015f205f820151815f01556020820151816001015f6101000a81548173ffffffffffffffffffffffffffffffffffffffff021916908373ffffffffffffffffffffffffffffffffffffffff16021790555060408201518160020155606082015181600301556080820151816004015f6101000a81548160ff0219169083151502179055509050503373ffffffffffffffffffffffffffffffffffffffff16817f98868c46d49b200d82c273c9f28d73265826ca6567690262736450563dfff64c8686604051610ada929190611327565b60405180910390a3600181610aef919061165b565b60028190555050505050565b60015f9054906101000a900473ffffffffffffffffffffffffffffffffffffffff1681565b610b28610c41565b610b315f610cc8565b565b5f5f5f9054906101000a900473ffffffffffffffffffffffffffffffffffffffff16905090565b60025481565b6003602052805f5260405f205f91509050805f015490806001015f9054906101000a900473ffffffffffffffffffffffffffffffffffffffff1690806002015490806003015490806004015f9054906101000a900460ff16905085565b610bc5610c41565b5f73ffffffffffffffffffffffffffffffffffffffff168173ffffffffffffffffffffffffffffffffffffffff1603610c35575f6040517f1e4fbdf7000000000000000000000000000000000000000000000000000000008152600401610c2c9190610ee3565b60405180910390fd5b610c3e81610cc8565b50565b610c49610d89565b73ffffffffffffffffffffffffffffffffffffffff16610c67610b33565b73ffffffffffffffffffffffffffffffffffffffff1614610cc657610c8a610d89565b6040517f118cdaa7000000000000000000000000000000000000000000000000000000008152600401610cbd9190610ee3565b60405180910390fd5b565b5f5f5f9054906101000a900473ffffffffffffffffffffffffffffffffffffffff169050815f5f6101000a81548173ffffffffffffffffffffffffffffffffffffffff021916908373ffffffffffffffffffffffffffffffffffffffff1602179055508173ffffffffffffffffffffffffffffffffffffffff168173ffffffffffffffffffffffffffffffffffffffff167f8be0079c531659141344cd1fd0a4f28419497f9722a3daafe3b4186f6b6457e060405160405180910390a35050565b5f33905090565b5f5ffd5b5f819050919050565b610da681610d94565b8114610db0575f5ffd5b50565b5f81359050610dc181610d9d565b92915050565b5f60208284031215610ddc57610ddb610d90565b5b5f610de984828501610db3565b91505092915050565b5f5f60408385031215610e0857610e07610d90565b5b5f610e1585828601610db3565b9250506020610e2685828601610db3565b9150509250929050565b5f73ffffffffffffffffffffffffffffffffffffffff82169050919050565b5f819050919050565b5f610e72610e6d610e6884610e30565b610e4f565b610e30565b9050919050565b5f610e8382610e58565b9050919050565b5f610e9482610e79565b9050919050565b610ea481610e8a565b82525050565b5f602082019050610ebd5f830184610e9b565b92915050565b5f610ecd82610e30565b9050919050565b610edd81610ec3565b82525050565b5f602082019050610ef65f830184610ed4565b92915050565b610f0581610d94565b82525050565b5f602082019050610f1e5f830184610efc565b92915050565b5f8115159050919050565b610f3881610f24565b82525050565b5f60a082019050610f515f830188610efc565b610f5e6020830187610ed4565b610f6b6040830186610efc565b610f786060830185610efc565b610f856080830184610f2f565b9695505050505050565b610f9881610ec3565b8114610fa2575f5ffd5b50565b5f81359050610fb381610f8f565b92915050565b5f60208284031215610fce57610fcd610d90565b5b5f610fdb84828501610fa5565b91505092915050565b5f82825260208201905092915050565b7f696e616374697665206c697374696e67000000000000000000000000000000005f82015250565b5f611028601083610fe4565b915061103382610ff4565b602082019050919050565b5f6020820190508181035f8301526110558161101c565b9050919050565b7f736f6c64206f75740000000000000000000000000000000000000000000000005f82015250565b5f611090600883610fe4565b915061109b8261105c565b602082019050919050565b5f6020820190508181035f8301526110bd81611084565b9050919050565b7f4e487b71000000000000000000000000000000000000000000000000000000005f52601160045260245ffd5b5f6110fb82610d94565b915061110683610d94565b925082820261111481610d94565b9150828204841483151761112b5761112a6110c4565b5b5092915050565b7f696e73756666696369656e74207061796d656e740000000000000000000000005f82015250565b5f611166601483610fe4565b915061117182611132565b602082019050919050565b5f6020820190508181035f8301526111938161115a565b9050919050565b5f6040820190506111ad5f830185610ed4565b6111ba6020830184610efc565b9392505050565b6111ca81610f24565b81146111d4575f5ffd5b50565b5f815190506111e5816111c1565b92915050565b5f60208284031215611200576111ff610d90565b5b5f61120d848285016111d7565b91505092915050565b7f746f6b656e207061796f7574206661696c6564000000000000000000000000005f82015250565b5f61124a601383610fe4565b915061125582611216565b602082019050919050565b5f6020820190508181035f8301526112778161123e565b9050919050565b5f81905092915050565b50565b5f6112965f8361127e565b91506112a182611288565b5f82019050919050565b5f6112b58261128b565b9150819050919050565b7f657468207061796f7574206661696c65640000000000000000000000000000005f82015250565b5f6112f3601183610fe4565b91506112fe826112bf565b602082019050919050565b5f6020820190508181035f830152611320816112e7565b9050919050565b5f60408201905061133a5f830185610efc565b6113476020830184610efc565b9392505050565b7f6e6f206c697374696e67000000000000000000000000000000000000000000005f82015250565b5f611382600a83610fe4565b915061138d8261134e565b602082019050919050565b5f6020820190508181035f8301526113af81611376565b9050919050565b7f6e6f742073656c6c6572000000000000000000000000000000000000000000005f82015250565b5f6113ea600a83610fe4565b91506113f5826113b6565b602082019050919050565b5f6020820190508181035f830152611417816113de565b9050919050565b7f616c726561647920696e616374697665000000000000000000000000000000005f82015250565b5f611452601083610fe4565b915061145d8261141e565b602082019050919050565b5f6020820190508181035f83015261147f81611446565b9050919050565b7f72657475726e206661696c6564000000000000000000000000000000000000005f82015250565b5f6114ba600d83610fe4565b91506114c582611486565b602082019050919050565b5f6020820190508181035f8301526114e7816114ae565b9050919050565b7f616d6f756e74206d757374206265203e203000000000000000000000000000005f82015250565b5f611522601283610fe4565b915061152d826114ee565b602082019050919050565b5f6020820190508181035f83015261154f81611516565b9050919050565b7f7072696365206d757374206265203e20300000000000000000000000000000005f82015250565b5f61158a601183610fe4565b915061159582611556565b602082019050919050565b5f6020820190508181035f8301526115b78161157e565b9050919050565b5f6060820190506115d15f830186610ed4565b6115de6020830185610ed4565b6115eb6040830184610efc565b949350505050565b7f746f6b656e207472616e73666572206661696c656400000000000000000000005f82015250565b5f611627601583610fe4565b9150611632826115f3565b602082019050919050565b5f6020820190508181035f8301526116548161161b565b9050919050565b5f61166582610d94565b915061167083610d94565b9250828201905080821115611688576116876110c4565b5b9291505056fea26469706673582212206082a2ba43821cc63fe95070514e569d93a7477edba7227cd10d19ea072e92c764736f6c63430008210033","linkReferences":{}},"methodIdentifiers":{"buyCredits(uint256)":"0c4dfe3f","cancelListing(uint256)":"305a67a8","carbonCreditToken()":"66dea358","listCredits(uint256,uint256)":"353395e6","listings(uint256)":"de74e57b","nextListingId()":"aaccf1ec","owner()":"8da5cb5b","renounceOwnership()":"715018a6","transferOwnership(address)":"f2fde38b"},"id":29}