{"abi":[{"type":"constructor","inputs":[],"stateMutability":"nonpayable"},{"type":"function","name":"allowance","inputs":[{"name":"owner","type":"address","internalType":"address"},{"name":"spender","type":"address","internalType":"address"}],"outputs":[{"name":"","type":"uint256","internalType":"uint256"}],"stateMutability":"view"},{"type":"function","name":"approve","inputs":[{"name":"spender","type":"address","internalType":"address"},{"name":"value","type":"uint256","internalType":"uint256"}],"outputs":[{"name":"","type":"bool","internalType":"bool"}],"stateMutability":"nonpayable"},{"type":"function","name":"balanceOf","inputs":[{"name":"account","type":"address","internalType":"address"}],"outputs":[{"name":"","type":"uint256","internalType":"uint256"}],"stateMutability":"view"},{"type":"function","name":"burn","inputs":[{"name":"amount","type":"uint256","internalType":"uint256"}],"outputs":[],"stateMutability":"nonpayable"},{"type":"function","name":"decimals","inputs":[],"outputs":[{"name":"","type":"uint8","internalType":"uint8"}],"stateMutability":"view"},{"type":"function","name":"issueCredits","inputs":[{"name":"to","type":"address","internalType":"address"},{"name":"amount","type":"uint256","internalType":"uint256"}],"outputs":[],"stateMutability":"nonpayable"},{"type":"function","name":"issuer","inputs":[],"outputs":[{"name":"","type":"address","internalType":"address"}],"stateMutability":"view"},{"type":"function","name":"name","inputs":[],"outputs":[{"name":"","type":"string","internalType":"string"}],"stateMutability":"pure"},{"type":"function","name":"retireCredits","inputs":[{"name":"account","type":"address","internalType":"address"},{"name":"amount","type":"uint256","internalType":"uint256"}],"outputs":[],"stateMutability":"nonpayable"},{"type":"function","name":"symbol","inputs":[],"outputs":[{"name":"","type":"string","internalType":"string"}],"stateMutability":"pure"},{"type":"function","name":"totalSupply","inputs":[],"outputs":[{"name":"","type":"uint256","internalType":"uint256"}],"stateMutability":"view"},{"type":"function","name":"transfer","inputs":[{"name":"to","type":"address","internalType":"address"},{"name":"value","type":"uint256","internalType":"uint256"}],"outputs":[{"name":"","type":"bool","internalType":"bool"}],"stateMutability":"nonpayable"},{"type":"function","name":"transferFrom","inputs":[{"name":"from","type":"address","internalType":"address"},{"name":"to","type":"address","internalType":"address"},{"name":"value","type":"uint256","internalType":"uint256"}],"outputs":[{"name":"","type":"bool","internalType":"bool"}],"stateMutability":"nonpayable"},{"type":"event","name":"Approval","inputs":[{"name":"owner","type":"address","indexed":true,"internalType":"address"},{"name":"spender","type":"address","indexed":true,"internalType":"address"},{"name":"value","type":"uint256","indexed":false,"internalType":"uint256"}],"anonymous":false},{"type":"event","name":"Transfer","inputs":[{"name":"from","type":"address","indexed":true,"internalType":"address"},{"name":"to","type":"address","indexed":true,"internalType":"address"},{"name":"value","type":"uint256","indexed":false,"internalType":"uint256"}],"anonymous":false},{"type":"error","name":"ERC20InsufficientAllowance","inputs":[{"name":"spender","type":"address","internalType":"address"},{"name":"allowance","type":"uint256","internalType":"uint256"},{"name":"needed","type":"uint256","internalType":"uint256"}]},{"type":"error","name":"ERC20InsufficientBalance","inputs":[{"name":"sender","type":"address","internalType":"address"},{"name":"balance","type":"uint256","internalType":"uint256"},{"name":"needed","type":"uint256","internalType":"uint256"}]},{"type":"error","name":"ERC20InvalidApprover","inputs":[{"name":"approver","type":"address","internalType":"address"}]},{"type":"error","name":"ERC20InvalidReceiver","inputs":[{"name":"receiver","type":"address","internalType":"address"}]},{"type":"error","name":"ERC20InvalidSender","inputs":[{"name":"sender","type":"address","internalType":"address"}]},{"type":"error","name":"ERC20InvalidSpender","inputs":[{"name":"spender","type":"address","internalType":"address"}]}],"bytecode":{"object":"0x608060405234801561000f575f5ffd5b506040518060400160405280601681526020017f45636f436861696e20436172626f6e20437265646974000000000000000000008152506040518060400160405280600381526020017f4343520000000000000000000000000000000000000000000000000000000000815250816003908161008b9190610331565b50806004908161009b9190610331565b5050503360055f6101000a81548173ffffffffffffffffffffffffffffffffffffffff021916908373ffffffffffffffffffffffffffffffffffffffff160217905550610400565b5f81519050919050565b7f4e487b71000000000000000000000000000000000000000000000000000000005f52604160045260245ffd5b7f4e487b71000000000000000000000000000000000000000000000000000000005f52602260045260245ffd5b5f600282049050600182168061015e57607f821691505b6020821081036101715761017061011a565b5b50919050565b5f819050815f5260205f209050919050565b5f6020601f8301049050919050565b5f82821b905092915050565b5f600883026101d37fffffffffffffffffffffffffffffffffffffffffffffffffffffffffffffffff82610198565b6101dd8683610198565b95508019841693508086168417925050509392505050565b5f819050919050565b5f819050919050565b5f61022161021c610217846101f5565b6101fe565b6101f5565b9050919050565b5f819050919050565b61023a83610207565b61024e61024682610228565b8484546101a4565b825550505050565b5f5f905090565b610265610256565b610270818484610231565b505050565b5f5b828110156102965761028b5f82840161025d565b600181019050610277565b505050565b601f8211156102e957828211156102e8576102b581610177565b6102be83610189565b6102c785610189565b60208610156102d4575f90505b8083016102e382840382610275565b505050505b5b505050565b5f82821c905092915050565b5f6103095f19846008026102ee565b1980831691505092915050565b5f61032183836102fa565b9150826002028217905092915050565b61033a826100e3565b67ffffffffffffffff811115610353576103526100ed565b5b61035d8254610147565b61036882828561029b565b5f60209050601f831160018114610399575f8415610387578287015190505b6103918582610316565b8655506103f8565b601f1984166103a786610177565b5f5b828110156103ce578489015182556001820191506020850194506020810190506103a9565b868310156103eb57848901516103e7601f8916826102fa565b8355505b6001600288020188555050505b505050505050565b6110db8061040d5f395ff3fe608060405234801561000f575f5ffd5b50600436106100cd575f3560e01c8063313ce5671161008a57806370a082311161006457806370a08231146101fd57806395d89b411461022d578063a9059cbb1461024b578063dd62ed3e1461027b576100cd565b8063313ce567146101a757806331b00f7a146101c557806342966c68146101e1576100cd565b806306fdde03146100d1578063095ea7b3146100ef578063177bd9711461011f57806318160ddd1461013b5780631d1438481461015957806323b872dd14610177575b5f5ffd5b6100d96102ab565b6040516100e69190610cb6565b60405180910390f35b61010960048036038101906101049190610d67565b6102e8565b6040516101169190610dbf565b60405180910390f35b61013960048036038101906101349190610d67565b61030a565b005b610143610386565b6040516101509190610de7565b60405180910390f35b61016161038f565b60405161016e9190610e0f565b60405180910390f35b610191600480360381019061018c9190610e28565b6103b4565b60405161019e9190610dbf565b60405180910390f35b6101af6103e2565b6040516101bc9190610e93565b60405180910390f35b6101df60048036038101906101da9190610d67565b6103ea565b005b6101fb60048036038101906101f69190610eac565b610400565b005b61021760048036038101906102129190610ed7565b61040d565b6040516102249190610de7565b60405180910390f35b610235610452565b6040516102429190610cb6565b60405180910390f35b61026560048036038101906102609190610d67565b61048f565b6040516102729190610dbf565b60405180910390f35b61029560048036038101906102909190610f02565b6104b1565b6040516102a29190610de7565b60405180910390f35b60606040518060400160405280601681526020017f45636f436861696e20436172626f6e2043726564697400000000000000000000815250905090565b5f5f6102f2610533565b90506102ff81858561053a565b600191505092915050565b3373ffffffffffffffffffffffffffffffffffffffff168273ffffffffffffffffffffffffffffffffffffffff1614610378576040517f08c379a000000000000000000000000000000000000000000000000000000000815260040161036f90610f8a565b60405180910390fd5b610382828261054c565b5050565b5f600254905090565b60055f9054906101000a900473ffffffffffffffffffffffffffffffffffffffff1681565b5f5f6103be610533565b90506103cb8582856105cb565b6103d685858561065e565b60019150509392505050565b5f6012905090565b6103f261074e565b6103fc82826107df565b5050565b61040a338261054c565b50565b5f5f5f8373ffffffffffffffffffffffffffffffffffffffff1673ffffffffffffffffffffffffffffffffffffffff1681526020019081526020015f20549050919050565b60606040518060400160405280600381526020017f4343520000000000000000000000000000000000000000000000000000000000815250905090565b5f5f610499610533565b90506104a681858561065e565b600191505092915050565b5f60015f8473ffffffffffffffffffffffffffffffffffffffff1673ffffffffffffffffffffffffffffffffffffffff1681526020019081526020015f205f8373ffffffffffffffffffffffffffffffffffffffff1673ffffffffffffffffffffffffffffffffffffffff1681526020019081526020015f2054905092915050565b5f33905090565b610547838383600161085e565b505050565b5f73ffffffffffffffffffffffffffffffffffffffff168273ffffffffffffffffffffffffffffffffffffffff16036105bc575f6040517f96c6fd1e0000000000000000000000000000000000000000000000000000000081526004016105b39190610e0f565b60405180910390fd5b6105c7825f83610a2d565b5050565b5f6105d684846104b1565b90507fffffffffffffffffffffffffffffffffffffffffffffffffffffffffffffffff8110156106585781811015610649578281836040517ffb8f41b200000000000000000000000000000000000000000000000000000000815260040161064093929190610fa8565b60405180910390fd5b61065784848484035f61085e565b5b50505050565b5f73ffffffffffffffffffffffffffffffffffffffff168373ffffffffffffffffffffffffffffffffffffffff16036106ce575f6040517f96c6fd1e0000000000000000000000000000000000000000000000000000000081526004016106c59190610e0f565b60405180910390fd5b5f73ffffffffffffffffffffffffffffffffffffffff168273ffffffffffffffffffffffffffffffffffffffff160361073e575f6040517fec442f050000000000000000000000000000000000000000000000000000000081526004016107359190610e0f565b60405180910390fd5b610749838383610a2d565b505050565b60055f9054906101000a900473ffffffffffffffffffffffffffffffffffffffff1673ffffffffffffffffffffffffffffffffffffffff163373ffffffffffffffffffffffffffffffffffffffff16146107dd576040517f08c379a00000000000000000000000000000000000000000000000000000000081526004016107d490611027565b60405180910390fd5b565b5f73ffffffffffffffffffffffffffffffffffffffff168273ffffffffffffffffffffffffffffffffffffffff160361084f575f6040517fec442f050000000000000000000000000000000000000000000000000000000081526004016108469190610e0f565b60405180910390fd5b61085a5f8383610a2d565b5050565b5f73ffffffffffffffffffffffffffffffffffffffff168473ffffffffffffffffffffffffffffffffffffffff16036108ce575f6040517fe602df050000000000000000000000000000000000000000000000000000000081526004016108c59190610e0f565b60405180910390fd5b5f73ffffffffffffffffffffffffffffffffffffffff168373ffffffffffffffffffffffffffffffffffffffff160361093e575f6040517f94280d620000000000000000000000000000000000000000000000000000000081526004016109359190610e0f565b60405180910390fd5b8160015f8673ffffffffffffffffffffffffffffffffffffffff1673ffffffffffffffffffffffffffffffffffffffff1681526020019081526020015f205f8573ffffffffffffffffffffffffffffffffffffffff1673ffffffffffffffffffffffffffffffffffffffff1681526020019081526020015f20819055508015610a27578273ffffffffffffffffffffffffffffffffffffffff168473ffffffffffffffffffffffffffffffffffffffff167f8c5be1e5ebec7d5bd14f71427d1e84f3dd0314c0f7b2291e5b200ac8c7c3b92584604051610a1e9190610de7565b60405180910390a35b50505050565b5f73ffffffffffffffffffffffffffffffffffffffff168373ffffffffffffffffffffffffffffffffffffffff1603610a7d578060025f828254610a719190611072565b92505081905550610b4b565b5f5f5f8573ffffffffffffffffffffffffffffffffffffffff1673ffffffffffffffffffffffffffffffffffffffff1681526020019081526020015f2054905081811015610b06578381836040517fe450d38c000000000000000000000000000000000000000000000000000000008152600401610afd93929190610fa8565b60405180910390fd5b8181035f5f8673ffffffffffffffffffffffffffffffffffffffff1673ffffffffffffffffffffffffffffffffffffffff1681526020019081526020015f2081905550505b5f73ffffffffffffffffffffffffffffffffffffffff168273ffffffffffffffffffffffffffffffffffffffff1603610b92578060025f8282540392505081905550610bdc565b805f5f8473ffffffffffffffffffffffffffffffffffffffff1673ffffffffffffffffffffffffffffffffffffffff1681526020019081526020015f205f82825401925050819055505b8173ffffffffffffffffffffffffffffffffffffffff168373ffffffffffffffffffffffffffffffffffffffff167fddf252ad1be2c89b69c2b068fc378daa952ba7f163c4a11628f55a4df523b3ef83604051610c399190610de7565b60405180910390a3505050565b5f81519050919050565b5f82825260208201905092915050565b8281835e5f83830152505050565b5f601f19601f8301169050919050565b5f610c8882610c46565b610c928185610c50565b9350610ca2818560208601610c60565b610cab81610c6e565b840191505092915050565b5f6020820190508181035f830152610cce8184610c7e565b905092915050565b5f5ffd5b5f73ffffffffffffffffffffffffffffffffffffffff82169050919050565b5f610d0382610cda565b9050919050565b610d1381610cf9565b8114610d1d575f5ffd5b50565b5f81359050610d2e81610d0a565b92915050565b5f819050919050565b610d4681610d34565b8114610d50575f5ffd5b50565b5f81359050610d6181610d3d565b92915050565b5f5f60408385031215610d7d57610d7c610cd6565b5b5f610d8a85828601610d20565b9250506020610d9b85828601610d53565b9150509250929050565b5f8115159050919050565b610db981610da5565b82525050565b5f602082019050610dd25f830184610db0565b92915050565b610de181610d34565b82525050565b5f602082019050610dfa5f830184610dd8565b92915050565b610e0981610cf9565b82525050565b5f602082019050610e225f830184610e00565b92915050565b5f5f5f60608486031215610e3f57610e3e610cd6565b5b5f610e4c86828701610d20565b9350506020610e5d86828701610d20565b9250506040610e6e86828701610d53565b9150509250925092565b5f60ff82169050919050565b610e8d81610e78565b82525050565b5f602082019050610ea65f830184610e84565b92915050565b5f60208284031215610ec157610ec0610cd6565b5b5f610ece84828501610d53565b91505092915050565b5f60208284031215610eec57610eeb610cd6565b5b5f610ef984828501610d20565b91505092915050565b5f5f60408385031215610f1857610f17610cd6565b5b5f610f2585828601610d20565b9250506020610f3685828601610d20565b9150509250929050565b7f63616e206f6e6c7920726574697265206f776e2062616c616e636500000000005f82015250565b5f610f74601b83610c50565b9150610f7f82610f40565b602082019050919050565b5f6020820190508181035f830152610fa181610f68565b9050919050565b5f606082019050610fbb5f830186610e00565b610fc86020830185610dd8565b610fd56040830184610dd8565b949350505050565b7f6e6f7420697373756572000000000000000000000000000000000000000000005f82015250565b5f611011600a83610c50565b915061101c82610fdd565b602082019050919050565b5f6020820190508181035f83015261103e81611005565b9050919050565b7f4e487b71000000000000000000000000000000000000000000000000000000005f52601160045260245ffd5b5f61107c82610d34565b915061108783610d34565b925082820190508082111561109f5761109e611045565b5b9291505056fea26469706673582212207a70471c87404a3da247c6c121fcef93f9d6361a3a923c9d3d4fe3a77e25896364736f6c63430008210033","linkReferences":{}},"methodIdentifiers":{"allowance(address,address)":"dd62ed3e","approve(address,uint256)":"095ea7b3","balanceOf(address)":"70a08231","burn(uint256)":"42966c68","decimals()":"313ce567","issueCredits(address,uint256)":"31b00f7a","issuer()":"1d143848","name()":"06fdde03","retireCredits(address,uint256)":"177bd971","symbol()":"95d89b41","totalSupply()":"18160ddd","transfer(address,uint256)":"a9059cbb","transferFrom(address,address,uint256)":"23b872dd"},"id":31}