{
  "_format": "hh3-artifact-1",
  "contractName": "CarbonCredit",
  "sourceName": "src/CarbonCredit.sol",
  "abi": [
    {
      "inputs": [],
      "stateMutability": "nonpayable",
      "type": "constructor"
    },
    {
      "inputs": [
        {
          "internalType": "address",
          "name": "spender",
          "type": "address"
        },
        {
          "internalType": "uint256",
          "name": "allowance",
          "type": "uint256"
        },
        {
          "internalType": "uint256",
          "name": "needed",
          "type": "uint256"
        }
      ],
      "name": "ERC20InsufficientAllowance",
      "type": "error"
    },
    {
      "inputs": [
        {
          "internalType": "address",
          "name": "sender",
          "type": "address"
        },
        {
          "internalType": "uint256",
          "name": "balance",
          "type": "uint256"
        },
        {
          "internalType": "uint256",
          "name": "needed",
          "type": "uint256"
        }
      ],
      "name": "ERC20InsufficientBalance",
      "type": "error"
    },
    {
      "inputs": [
        {
          "internalType": "address",
          "name": "approver",
          "type": "address"
        }
      ],
      "name": "ERC20InvalidApprover",
      "type": "error"
    },
    {
      "inputs": [
        {
          "internalType": "address",
          "name": "receiver",
          "type": "address"
        }
      ],
      "name": "ERC20InvalidReceiver",
      "type": "error"
    },
    {
      "inputs": [
        {
          "internalType": "address",
          "name": "sender",
          "type": "address"
        }
      ],
      "name": "ERC20InvalidSender",
      "type": "error"
    },
    {
      "inputs": [
        {
          "internalType": "address",
          "name": "spender",
          "type": "address"
        }
      ],
      "name": "ERC20InvalidSpender",
      "type": "error"
    },
    {
      "anonymous": false,
      "inputs": [
        {
          "indexed": true,
          "internalType": "address",
          "name": "owner",
          "type": "address"
        },
        {
          "indexed": true,
          "internalType": "address",
          "name": "spender",
          "type": "address"
        },
        {
          "indexed": false,
          "internalType": "uint256",
          "name": "value",
          "type": "uint256"
        }
      ],
      "name": "Approval",
      "type": "event"
    },
    {
      "anonymous": false,
      "inputs": [
        {
          "indexed": true,
          "internalType": "address",
          "name": "from",
          "type": "address"
        },
        {
          "indexed": true,
          "internalType": "address",
          "name": "to",
          "type": "address"
        },
        {
          "indexed": false,
          "internalType": "uint256",
          "name": "value",
          "type": "uint256"
        }
      ],
      "name": "Transfer",
      "type": "event"
    },
    {
      "inputs": [
        {
          "internalType": "address",
          "name": "owner",
          "type": "address"
        },
        {
          "internalType": "address",
          "name": "spender",
          "type": "address"
        }
      ],
      "name": "allowance",
      "outputs": [
        {
          "internalType": "uint256",
          "name": "",
          "type": "uint256"
        }
      ],
      "stateMutability": "view",
      "type": "function"
    },
    {
      "inputs": [
        {
          "internalType": "address",
          "name": "spender",
          "type": "address"
        },
        {
          "internalType": "uint256",
          "name": "value",
          "type": "uint256"
        }
      ],
      "name": "approve",
      "outputs": [
        {
          "internalType": "bool",
          "name": "",
          "type": "bool"
        }
      ],
      "stateMutability": "nonpayable",
      "type": "function"
    },
    {
      "inputs": [
        {
          "internalType": "address",
          "name": "account",
          "type": "address"
        }
      ],
      "name": "balanceOf",
      "outputs": [
        {
          "internalType": "uint256",
          "name": "",
          "type": "uint256"
        }
      ],
      "stateMutability": "view",
      "type": "function"
    },
    {
      "inputs": [
        {
          "internalType": "uint256",
          "name": "amount",
          "type": "uint256"
        }
      ],
      "name": "burn",
      "outputs": [],
      "stateMutability": "nonpayable",
      "type": "function"
    },
    {
      "inputs": [],
      "name": "decimals",
      "outputs": [
        {
          "internalType": "uint8",
          "name": "",
          "type": "uint8"
        }
      ],
      "stateMutability": "view",
      "type": "function"
    },
    {
      "inputs": [
        {
          "internalType": "address",
          "name": "to",
          "type": "address"
        },
        {
          "internalType": "uint256",
          "name": "amount",
          "type": "uint256"
        }
      ],
      "name": "issueCredits",
      "outputs": [],
      "stateMutability": "nonpayable",
      "type": "function"
    },
    {
      "inputs": [],
      "name": "issuer",
      "outputs": [
        {
          "internalType": "address",
          "name": "",
          "type": "address"
        }
      ],
      "stateMutability": "view",
      "type": "function"
    },
    {
      "inputs": [],
      "name": "name",
      "outputs": [
        {
          "internalType": "string",
          "name": "",
          "type": "string"
        }
      ],
      "stateMutability": "pure",
      "type": "function"
    },
    {
      "inputs": [
        {
          "internalType": "address",
          "name": "account",
          "type": "address"
        },
        {
          "internalType": "uint256",
          "name": "amount",
          "type": "uint256"
        }
      ],
      "name": "retireCredits",
      "outputs": [],
      "stateMutability": "nonpayable",
      "type": "function"
    },
    {
      "inputs": [],
      "name": "symbol",
      "outputs": [
        {
          "internalType": "string",
          "name": "",
          "type": "string"
        }
      ],
      "stateMutability": "pure",
      "type": "function"
    },
    {
      "inputs": [],
      "name": "totalSupply",
      "outputs": [
        {
          "internalType": "uint256",
          "name": "",
          "type": "uint256"
        }
      ],
      "stateMutability": "view",
      "type": "function"
    },
    {
      "inputs": [
        {
          "internalType": "address",
          "name": "to",
          "type": "address"
        },
        {
          "internalType": "uint256",
          "name": "value",
          "type": "uint256"
        }
      ],
      "name": "transfer",
      "outputs": [
        {
          "internalType": "bool",
          "name": "",
          "type": "bool"
        }
      ],
      "stateMutability": "nonpayable",
      "type": "function"
    },
    {
      "inputs": [
        {
          "internalType": "address",
          "name": "from",
          "type": "address"
        },
        {
          "internalType": "address",
          "name": "to",
          "type": "address"
        },
        {
          "internalType": "uint256",
          "name": "value",
          "type": "uint256"
        }
      ],
      "name": "transferFrom",
      "outputs": [
        {
          "internalType": "bool",
          "name": "",
          "type": "bool"
        }
      ],
      "stateMutability": "nonpayable",
      "type": "function"
    }
  ],
  "bytecode": "0x608060405234801561000f575f5ffd5b506040518060400160405280601681526020017f45636f436861696e20436172626f6e20437265646974000000000000000000008152506040518060400160405280600381526020016221a1a960e91b81525081600390816100719190610130565b50600461007e8282610130565b5050600580546001600160a01b03191633179055506101ea565b634e487b7160e01b5f52604160045260245ffd5b600181811c908216806100c057607f821691505b6020821081036100de57634e487b7160e01b5f52602260045260245ffd5b50919050565b601f82111561012b57805f5260205f20601f840160051c810160208510156101095750805b601f840160051c820191505b81811015610128575f8155600101610115565b50505b505050565b81516001600160401b0381111561014957610149610098565b61015d8161015784546100ac565b846100e4565b6020601f82116001811461018f575f83156101785750848201515b5f19600385901b1c1916600184901b178455610128565b5f84815260208120601f198516915b828110156101be578785015182556020948501946001909201910161019e565b50848210156101db57868401515f19600387901b60f8161c191681555b50505050600190811b01905550565b610838806101f75f395ff3fe608060405234801561000f575f5ffd5b50600436106100cb575f3560e01c8063313ce5671161008857806370a082311161006357806370a08231146101d057806395d89b41146101f8578063a9059cbb14610217578063dd62ed3e1461022a575f5ffd5b8063313ce5671461019b57806331b00f7a146101aa57806342966c68146101bd575f5ffd5b806306fdde03146100cf578063095ea7b314610113578063177bd9711461013657806318160ddd1461014b5780631d1438481461015d57806323b872dd14610188575b5f5ffd5b6040805180820190915260168152751158dbd0da185a5b8810d85c989bdb8810dc99591a5d60521b60208201525b60405161010a91906106c9565b60405180910390f35b610126610121366004610719565b610262565b604051901515815260200161010a565b610149610144366004610719565b61027b565b005b6002545b60405190815260200161010a565b600554610170906001600160a01b031681565b6040516001600160a01b03909116815260200161010a565b610126610196366004610741565b6102e6565b6040516012815260200161010a565b6101496101b8366004610719565b610309565b6101496101cb36600461077b565b61031b565b61014f6101de366004610792565b6001600160a01b03165f9081526020819052604090205490565b60408051808201909152600381526221a1a960e91b60208201526100fd565b610126610225366004610719565b610328565b61014f6102383660046107b2565b6001600160a01b039182165f90815260016020908152604080832093909416825291909152205490565b5f3361026f818585610335565b60019150505b92915050565b6001600160a01b03821633146102d85760405162461bcd60e51b815260206004820152601b60248201527f63616e206f6e6c7920726574697265206f776e2062616c616e6365000000000060448201526064015b60405180910390fd5b6102e28282610347565b5050565b5f336102f385828561037b565b6102fe8585856103f7565b506001949350505050565b610311610454565b6102e2828261049d565b6103253382610347565b50565b5f3361026f8185856103f7565b61034283838360016104d1565b505050565b6001600160a01b03821661037057604051634b637e8f60e11b81525f60048201526024016102cf565b6102e2825f836105a3565b6001600160a01b038381165f908152600160209081526040808320938616835292905220545f198110156103f157818110156103e357604051637dc7a0d960e11b81526001600160a01b038416600482015260248101829052604481018390526064016102cf565b6103f184848484035f6104d1565b50505050565b6001600160a01b03831661042057604051634b637e8f60e11b81525f60048201526024016102cf565b6001600160a01b0382166104495760405163ec442f0560e01b81525f60048201526024016102cf565b6103428383836105a3565b6005546001600160a01b0316331461049b5760405162461bcd60e51b815260206004820152600a6024820152693737ba1034b9b9bab2b960b11b60448201526064016102cf565b565b6001600160a01b0382166104c65760405163ec442f0560e01b81525f60048201526024016102cf565b6102e25f83836105a3565b6001600160a01b0384166104fa5760405163e602df0560e01b81525f60048201526024016102cf565b6001600160a01b03831661052357604051634a1406b160e11b81525f60048201526024016102cf565b6001600160a01b038085165f90815260016020908152604080832093871683529290522082905580156103f157826001600160a01b0316846001600160a01b03167f8c5be1e5ebec7d5bd14f71427d1e84f3dd0314c0f7b2291e5b200ac8c7c3b9258460405161059591815260200190565b60405180910390a350505050565b6001600160a01b0383166105cd578060025f8282546105c291906107e3565b9091555061063d9050565b6001600160a01b0383165f908152602081905260409020548181101561061f5760405163391434e360e21b81526001600160a01b038516600482015260248101829052604481018390526064016102cf565b6001600160a01b0384165f9081526020819052604090209082900390555b6001600160a01b03821661065957600280548290039055610677565b6001600160a01b0382165f9081526020819052604090208054820190555b816001600160a01b0316836001600160a01b03167fddf252ad1be2c89b69c2b068fc378daa952ba7f163c4a11628f55a4df523b3ef836040516106bc91815260200190565b60405180910390a3505050565b602081525f82518060208401528060208501604085015e5f604082850101526040601f19601f83011684010191505092915050565b80356001600160a01b0381168114610714575f5ffd5b919050565b5f5f6040838503121561072a575f5ffd5b610733836106fe565b946020939093013593505050565b5f5f5f60608486031215610753575f5ffd5b61075c846106fe565b925061076a602085016106fe565b929592945050506040919091013590565b5f6020828403121561078b575f5ffd5b5035919050565b5f602082840312156107a2575f5ffd5b6107ab826106fe565b9392505050565b5f5f604083850312156107c3575f5ffd5b6107cc836106fe565b91506107da602084016106fe565b90509250929050565b8082018082111561027557634e487b7160e01b5f52601160045260245ffdfea2646970667358221220ebb97fa46cd31f5525bcc0a7ddacfb020c384deb8dca1d15f16805c74f9d05c864736f6c634300081c0033",
  "linkReferences": {},
  "deployedLinkReferences": {},
  "immutableReferences": {},
  "inputSourceName": "project/src/CarbonCredit.sol",
  "buildInfoId": "solc-0_8_28-59dc24c5d553ddaad665e179775309c33079652c"
}