{
  "_format": "hh3-artifact-1",
  "contractName": "CreditRetirement",
  "sourceName": "src/CreditRetirement.sol",
  "abi": [
    {
      "inputs": [
        {
          "internalType": "address",
          "name": "tokenAddress",
          "type": "address"
        }
      ],
      "stateMutability": "nonpayable",
      "type": "constructor"
    },
    {
      "anonymous": false,
      "inputs": [
        {
          "indexed": false,
          "internalType": "address",
          "name": "user",
          "type": "address"
        },
        {
          "indexed": false,
          "internalType": "uint256",
          "name": "amount",
          "type": "uint256"
        }
      ],
      "name": "Retired",
      "type": "event"
    },
    {
      "inputs": [
        {
          "internalType": "address",
          "name": "user",
          "type": "address"
        }
      ],
      "name": "getRetirementRecord",
      "outputs": [
        {
          "components": [
            {
              "internalType": "address",
              "name": "user",
              "type": "address"
            },
            {
              "internalType": "uint256",
              "name": "amount",
              "type": "uint256"
            },
            {
              "internalType": "string",
              "name": "reason",
              "type": "string"
            },
            {
              "internalType": "uint256",
              "name": "period",
              "type": "uint256"
            },
            {
              "internalType": "uint256",
              "name": "timestamp",
              "type": "uint256"
            }
          ],
          "internalType": "struct CreditRetirement.RetirementRecord[]",
          "name": "",
          "type": "tuple[]"
        }
      ],
      "stateMutability": "view",
      "type": "function"
    },
    {
      "inputs": [
        {
          "internalType": "address",
          "name": "",
          "type": "address"
        },
        {
          "internalType": "uint256",
          "name": "",
          "type": "uint256"
        }
      ],
      "name": "isRetired",
      "outputs": [
        {
          "internalType": "bool",
          "name": "",
          "type": "bool"
        }
      ],
      "stateMutability": "view",
      "type": "function"
    },
    {
      "inputs": [
        {
          "internalType": "uint256",
          "name": "",
          "type": "uint256"
        }
      ],
      "name": "records",
      "outputs": [
        {
          "internalType": "address",
          "name": "user",
          "type": "address"
        },
        {
          "internalType": "uint256",
          "name": "amount",
          "type": "uint256"
        },
        {
          "internalType": "string",
          "name": "reason",
          "type": "string"
        },
        {
          "internalType": "uint256",
          "name": "period",
          "type": "uint256"
        },
        {
          "internalType": "uint256",
          "name": "timestamp",
          "type": "uint256"
        }
      ],
      "stateMutability": "view",
      "type": "function"
    },
    {
      "inputs": [
        {
          "internalType": "uint256",
          "name": "amount",
          "type": "uint256"
        },
        {
          "internalType": "string",
          "name": "reason",
          "type": "string"
        },
        {
          "internalType": "uint256",
          "name": "period",
          "type": "uint256"
        }
      ],
      "name": "retireCredits",
      "outputs": [],
      "stateMutability": "nonpayable",
      "type": "function"
    },
    {
      "inputs": [],
      "name": "token",
      "outputs": [
        {
          "internalType": "contract CarbonCredit",
          "name": "",
          "type": "address"
        }
      ],
      "stateMutability": "view",
      "type": "function"
    }
  ],
  "bytecode": "0x6080604052348015600e575f5ffd5b50604051610bf7380380610bf7833981016040819052602b91604e565b5f80546001600160a01b0319166001600160a01b03929092169190911790556079565b5f60208284031215605d575f5ffd5b81516001600160a01b03811681146072575f5ffd5b9392505050565b610b71806100865f395ff3fe608060405234801561000f575f5ffd5b5060043610610055575f3560e01c80633446106714610059578063c2a94af314610086578063e300d8b11461009b578063fc0c546a146100d8578063fcfde4c214610102575b5f5ffd5b61006c610067366004610749565b610122565b60405161007d95949392919061078e565b60405180910390f35b6100996100943660046107dc565b6101f3565b005b6100c86100a93660046108bd565b600260209081525f928352604080842090915290825290205460ff1681565b604051901515815260200161007d565b5f546100ea906001600160a01b031681565b6040516001600160a01b03909116815260200161007d565b6101156101103660046108e5565b6104d8565b60405161007d9190610905565b60018181548110610131575f80fd5b5f9182526020909120600590910201805460018201546002830180546001600160a01b039093169450909291610166906109a5565b80601f0160208091040260200160405190810160405280929190818152602001828054610192906109a5565b80156101dd5780601f106101b4576101008083540402835291602001916101dd565b820191905f5260205f20905b8154815290600101906020018083116101c057829003601f168201915b5050505050908060030154908060040154905085565b335f90815260026020908152604080832084845290915290205460ff16156102725760405162461bcd60e51b815260206004820152602760248201527f4372656469747320616c7265616479207265746972656420666f722074686973604482015266081c195c9a5bd960ca1b60648201526084015b60405180910390fd5b335f818152600260209081526040808320858452909152808220805460ff19166001179055815490516323b872dd60e01b815260048101939093523060248401526044830186905290916001600160a01b03909116906323b872dd906064016020604051808303815f875af11580156102ed573d5f5f3e3d5ffd5b505050506040513d601f19601f8201168201806040525081019061031191906109dd565b9050806103525760405162461bcd60e51b815260206004820152600f60248201526e151c985b9cd9995c8819985a5b1959608a1b6044820152606401610269565b5f54604051630852cd8d60e31b8152600481018690526001600160a01b03909116906342966c68906024015f604051808303815f87803b158015610394575f5ffd5b505af11580156103a6573d5f5f3e3d5ffd5b50506040805160a08101825233815260208101888152918101878152606082018790524260808301526001805480820182555f9190915282517fb10e2d527612073b26eecdfd717e6a320cf44b4afac2b0732d9fcbe2b7fa0cf6600590920291820180546001600160a01b0319166001600160a01b0390921691909117815593517fb10e2d527612073b26eecdfd717e6a320cf44b4afac2b0732d9fcbe2b7fa0cf782015590519194509192507fb10e2d527612073b26eecdfd717e6a320cf44b4afac2b0732d9fcbe2b7fa0cf8909101906104829082610a48565b506060820151600382015560809091015160049091015560408051338152602081018690527f8dc4b87efb3c82876c566fb305749c81faf4459424134a0470fee3f604048de7910160405180910390a150505050565b60605f805b60015481101561053857836001600160a01b03166001828154811061050457610504610b03565b5f9182526020909120600590910201546001600160a01b031603610530578161052c81610b17565b9250505b6001016104dd565b505f8167ffffffffffffffff811115610553576105536107c8565b6040519080825280602002602001820160405280156105bb57816020015b6105a86040518060a001604052805f6001600160a01b031681526020015f8152602001606081526020015f81526020015f81525090565b8152602001906001900390816105715790505b5090505f805b60015481101561073f57856001600160a01b0316600182815481106105e8576105e8610b03565b5f9182526020909120600590910201546001600160a01b031603610737576001818154811061061957610619610b03565b905f5260205f2090600502016040518060a00160405290815f82015f9054906101000a90046001600160a01b03166001600160a01b03166001600160a01b0316815260200160018201548152602001600282018054610677906109a5565b80601f01602080910402602001604051908101604052809291908181526020018280546106a3906109a5565b80156106ee5780601f106106c5576101008083540402835291602001916106ee565b820191905f5260205f20905b8154815290600101906020018083116106d157829003601f168201915b505050505081526020016003820154815260200160048201548152505083838151811061071d5761071d610b03565b6020026020010181905250818061073390610b17565b9250505b6001016105c1565b5090949350505050565b5f60208284031215610759575f5ffd5b5035919050565b5f81518084528060208401602086015e5f602082860101526020601f19601f83011685010191505092915050565b60018060a01b038616815284602082015260a060408201525f6107b460a0830186610760565b606083019490945250608001529392505050565b634e487b7160e01b5f52604160045260245ffd5b5f5f5f606084860312156107ee575f5ffd5b83359250602084013567ffffffffffffffff81111561080b575f5ffd5b8401601f8101861361081b575f5ffd5b803567ffffffffffffffff811115610835576108356107c8565b604051601f8201601f19908116603f0116810167ffffffffffffffff81118282101715610864576108646107c8565b60405281815282820160200188101561087b575f5ffd5b816020840160208301375f9181016020019190915293969395505050506040919091013590565b80356001600160a01b03811681146108b8575f5ffd5b919050565b5f5f604083850312156108ce575f5ffd5b6108d7836108a2565b946020939093013593505050565b5f602082840312156108f5575f5ffd5b6108fe826108a2565b9392505050565b5f602082016020835280845180835260408501915060408160051b8601019250602086015f5b8281101561099957603f19878603018452815160018060a01b03815116865260208101516020870152604081015160a0604088015261096d60a0880182610760565b60608381015190890152608092830151929097019190915250602093840193919091019060010161092b565b50929695505050505050565b600181811c908216806109b957607f821691505b6020821081036109d757634e487b7160e01b5f52602260045260245ffd5b50919050565b5f602082840312156109ed575f5ffd5b815180151581146108fe575f5ffd5b601f821115610a4357805f5260205f20601f840160051c81016020851015610a215750805b601f840160051c820191505b81811015610a40575f8155600101610a2d565b50505b505050565b815167ffffffffffffffff811115610a6257610a626107c8565b610a7681610a7084546109a5565b846109fc565b6020601f821160018114610aa8575f8315610a915750848201515b5f19600385901b1c1916600184901b178455610a40565b5f84815260208120601f198516915b82811015610ad75787850151825560209485019460019092019101610ab7565b5084821015610af457868401515f19600387901b60f8161c191681555b50505050600190811b01905550565b634e487b7160e01b5f52603260045260245ffd5b5f60018201610b3457634e487b7160e01b5f52601160045260245ffd5b506001019056fea2646970667358221220723b28f2687e310e0a205a3d7ddf89e2a7b8f93f9c250dbfc67def377d15651764736f6c634300081c0033",
  "linkReferences": {},
  "deployedLinkReferences": {},
  "immutableReferences": {},
  "inputSourceName": "project/src/CreditRetirement.sol",
  "buildInfoId": "solc-0_8_28-cbbc5a195244dd76456c244de2c679235a9fb7d4"
}