{
  "_format": "hh3-artifact-1",
  "contractName": "AuditRegistry",
  "sourceName": "src/AuditRegistry.sol",
  "abi": [
    {
      "inputs": [],
      "stateMutability": "nonpayable",
      "type": "constructor"
    },
    {
      "inputs": [],
      "name": "AccessControlBadConfirmation",
      "type": "error"
    },
    {
      "inputs": [
        {
          "internalType": "address",
          "name": "account",
          "type": "address"
        },
        {
          "internalType": "bytes32",
          "name": "neededRole",
          "type": "bytes32"
        }
      ],
      "name": "AccessControlUnauthorizedAccount",
      "type": "error"
    },
    {
      "anonymous": false,
      "inputs": [
        {
          "indexed": true,
          "internalType": "bytes32",
          "name": "role",
          "type": "bytes32"
        },
        {
          "indexed": true,
          "internalType": "bytes32",
          "name": "previousAdminRole",
          "type": "bytes32"
        },
        {
          "indexed": true,
          "internalType": "bytes32",
          "name": "newAdminRole",
          "type": "bytes32"
        }
      ],
      "name": "RoleAdminChanged",
      "type": "event"
    },
    {
      "anonymous": false,
      "inputs": [
        {
          "indexed": true,
          "internalType": "bytes32",
          "name": "role",
          "type": "bytes32"
        },
        {
          "indexed": true,
          "internalType": "address",
          "name": "account",
          "type": "address"
        },
        {
          "indexed": true,
          "internalType": "address",
          "name": "sender",
          "type": "address"
        }
      ],
      "name": "RoleGranted",
      "type": "event"
    },
    {
      "anonymous": false,
      "inputs": [
        {
          "indexed": true,
          "internalType": "bytes32",
          "name": "role",
          "type": "bytes32"
        },
        {
          "indexed": true,
          "internalType": "address",
          "name": "account",
          "type": "address"
        },
        {
          "indexed": true,
          "internalType": "address",
          "name": "sender",
          "type": "address"
        }
      ],
      "name": "RoleRevoked",
      "type": "event"
    },
    {
      "inputs": [],
      "name": "AUDITOR_ROLE",
      "outputs": [
        {
          "internalType": "bytes32",
          "name": "",
          "type": "bytes32"
        }
      ],
      "stateMutability": "view",
      "type": "function"
    },
    {
      "inputs": [],
      "name": "DEFAULT_ADMIN_ROLE",
      "outputs": [
        {
          "internalType": "bytes32",
          "name": "",
          "type": "bytes32"
        }
      ],
      "stateMutability": "view",
      "type": "function"
    },
    {
      "inputs": [
        {
          "internalType": "uint256",
          "name": "id",
          "type": "uint256"
        }
      ],
      "name": "getReport",
      "outputs": [
        {
          "components": [
            {
              "internalType": "uint256",
              "name": "industryId",
              "type": "uint256"
            },
            {
              "internalType": "bytes32",
              "name": "reportHash",
              "type": "bytes32"
            },
            {
              "internalType": "bytes",
              "name": "auditorSignature",
              "type": "bytes"
            },
            {
              "internalType": "uint256",
              "name": "timestamp",
              "type": "uint256"
            },
            {
              "internalType": "string",
              "name": "verificationStatus",
              "type": "string"
            }
          ],
          "internalType": "struct AuditRegistry.Report",
          "name": "",
          "type": "tuple"
        }
      ],
      "stateMutability": "view",
      "type": "function"
    },
    {
      "inputs": [
        {
          "internalType": "bytes32",
          "name": "role",
          "type": "bytes32"
        }
      ],
      "name": "getRoleAdmin",
      "outputs": [
        {
          "internalType": "bytes32",
          "name": "",
          "type": "bytes32"
        }
      ],
      "stateMutability": "view",
      "type": "function"
    },
    {
      "inputs": [
        {
          "internalType": "bytes32",
          "name": "role",
          "type": "bytes32"
        },
        {
          "internalType": "address",
          "name": "account",
          "type": "address"
        }
      ],
      "name": "grantRole",
      "outputs": [],
      "stateMutability": "nonpayable",
      "type": "function"
    },
    {
      "inputs": [
        {
          "internalType": "bytes32",
          "name": "role",
          "type": "bytes32"
        },
        {
          "internalType": "address",
          "name": "account",
          "type": "address"
        }
      ],
      "name": "hasRole",
      "outputs": [
        {
          "internalType": "bool",
          "name": "",
          "type": "bool"
        }
      ],
      "stateMutability": "view",
      "type": "function"
    },
    {
      "inputs": [
        {
          "internalType": "bytes32",
          "name": "role",
          "type": "bytes32"
        },
        {
          "internalType": "address",
          "name": "callerConfirmation",
          "type": "address"
        }
      ],
      "name": "renounceRole",
      "outputs": [],
      "stateMutability": "nonpayable",
      "type": "function"
    },
    {
      "inputs": [
        {
          "internalType": "uint256",
          "name": "",
          "type": "uint256"
        }
      ],
      "name": "reports",
      "outputs": [
        {
          "internalType": "uint256",
          "name": "industryId",
          "type": "uint256"
        },
        {
          "internalType": "bytes32",
          "name": "reportHash",
          "type": "bytes32"
        },
        {
          "internalType": "bytes",
          "name": "auditorSignature",
          "type": "bytes"
        },
        {
          "internalType": "uint256",
          "name": "timestamp",
          "type": "uint256"
        },
        {
          "internalType": "string",
          "name": "verificationStatus",
          "type": "string"
        }
      ],
      "stateMutability": "view",
      "type": "function"
    },
    {
      "inputs": [
        {
          "internalType": "bytes32",
          "name": "role",
          "type": "bytes32"
        },
        {
          "internalType": "address",
          "name": "account",
          "type": "address"
        }
      ],
      "name": "revokeRole",
      "outputs": [],
      "stateMutability": "nonpayable",
      "type": "function"
    },
    {
      "inputs": [
        {
          "internalType": "uint256",
          "name": "industryId",
          "type": "uint256"
        },
        {
          "internalType": "bytes32",
          "name": "reportHash",
          "type": "bytes32"
        },
        {
          "internalType": "bytes",
          "name": "auditorSig",
          "type": "bytes"
        },
        {
          "internalType": "string",
          "name": "verificationStatus",
          "type": "string"
        }
      ],
      "name": "storeReport",
      "outputs": [],
      "stateMutability": "nonpayable",
      "type": "function"
    },
    {
      "inputs": [
        {
          "internalType": "bytes4",
          "name": "interfaceId",
          "type": "bytes4"
        }
      ],
      "name": "supportsInterface",
      "outputs": [
        {
          "internalType": "bool",
          "name": "",
          "type": "bool"
        }
      ],
      "stateMutability": "view",
      "type": "function"
    },
    {
      "inputs": [
        {
          "internalType": "bytes32",
          "name": "hash",
          "type": "bytes32"
        }
      ],
      "name": "verifyReport",
      "outputs": [
        {
          "internalType": "bool",
          "name": "",
          "type": "bool"
        }
      ],
      "stateMutability": "view",
      "type": "function"
    }
  ],
  "bytecode": "0x608060405234801561000f575f5ffd5b5061001a5f3361004b565b506100457f59a1c48e5837ad7a7f3dcedcbe129bf3249ec4fbf651fd4f5e2600ead39fe2f53361004b565b506100f4565b5f828152602081815260408083206001600160a01b038516845290915281205460ff166100eb575f838152602081815260408083206001600160a01b03861684529091529020805460ff191660011790556100a33390565b6001600160a01b0316826001600160a01b0316847f2f8788117e7eff1d82e926ec794901d17c78024a50270940304540a733656f0d60405160405180910390a45060016100ee565b505f5b92915050565b610c63806101015f395ff3fe608060405234801561000f575f5ffd5b50600436106100b1575f3560e01c80634e7f9b191161006e5780634e7f9b191461015b5780636e1d616e1461017b57806391d14854146101a2578063a217fddf146101b5578063c942adf7146101bc578063d547741f146101e0575f5ffd5b806301ffc9a7146100b55780631fd22601146100dd578063248a9ca3146100f05780632f2ff15d1461012057806336568abe1461013557806342477c6d14610148575b5f5ffd5b6100c86100c3366004610866565b6101f3565b60405190151581526020015b60405180910390f35b6100c86100eb366004610894565b610229565b6101126100fe366004610894565b5f9081526020819052604090206001015490565b6040519081526020016100d4565b61013361012e3660046108ab565b610278565b005b6101336101433660046108ab565b6102a2565b61013361015636600461096f565b6102da565b61016e610169366004610894565b6103ea565b6040516100d49190610a3a565b6101127f59a1c48e5837ad7a7f3dcedcbe129bf3249ec4fbf651fd4f5e2600ead39fe2f581565b6100c86101b03660046108ab565b610587565b6101125f81565b6101cf6101ca366004610894565b6105af565b6040516100d4959493929190610a99565b6101336101ee3660046108ab565b6106fc565b5f6001600160e01b03198216637965db0b60e01b148061022357506301ffc9a760e01b6001600160e01b03198316145b92915050565b5f805b60015481101561027057826001828154811061024a5761024a610adb565b905f5260205f20906005020160010154036102685750600192915050565b60010161022c565b505f92915050565b5f8281526020819052604090206001015461029281610720565b61029c838361072d565b50505050565b6001600160a01b03811633146102cb5760405163334bd91960e11b815260040160405180910390fd5b6102d582826107bc565b505050565b7f59a1c48e5837ad7a7f3dcedcbe129bf3249ec4fbf651fd4f5e2600ead39fe2f561030481610720565b6040805160a08101825286815260208101868152918101858152426060830152608082018590526001805480820182555f91909152825160059091027fb10e2d527612073b26eecdfd717e6a320cf44b4afac2b0732d9fcbe2b7fa0cf6810191825593517fb10e2d527612073b26eecdfd717e6a320cf44b4afac2b0732d9fcbe2b7fa0cf78501559051919290917fb10e2d527612073b26eecdfd717e6a320cf44b4afac2b0732d9fcbe2b7fa0cf8909101906103c19082610b72565b5060608201516003820155608082015160048201906103e09082610b72565b5050505050505050565b6104196040518060a001604052805f81526020015f8152602001606081526020015f8152602001606081525090565b6001828154811061042c5761042c610adb565b905f5260205f2090600502016040518060a00160405290815f82015481526020016001820154815260200160028201805461046690610aef565b80601f016020809104026020016040519081016040528092919081815260200182805461049290610aef565b80156104dd5780601f106104b4576101008083540402835291602001916104dd565b820191905f5260205f20905b8154815290600101906020018083116104c057829003601f168201915b505050505081526020016003820154815260200160048201805461050090610aef565b80601f016020809104026020016040519081016040528092919081815260200182805461052c90610aef565b80156105775780601f1061054e57610100808354040283529160200191610577565b820191905f5260205f20905b81548152906001019060200180831161055a57829003601f168201915b5050505050815250509050919050565b5f918252602082815260408084206001600160a01b0393909316845291905290205460ff1690565b600181815481106105be575f80fd5b905f5260205f2090600502015f91509050805f0154908060010154908060020180546105e990610aef565b80601f016020809104026020016040519081016040528092919081815260200182805461061590610aef565b80156106605780601f1061063757610100808354040283529160200191610660565b820191905f5260205f20905b81548152906001019060200180831161064357829003601f168201915b50505050509080600301549080600401805461067b90610aef565b80601f01602080910402602001604051908101604052809291908181526020018280546106a790610aef565b80156106f25780601f106106c9576101008083540402835291602001916106f2565b820191905f5260205f20905b8154815290600101906020018083116106d557829003601f168201915b5050505050905085565b5f8281526020819052604090206001015461071681610720565b61029c83836107bc565b61072a8133610825565b50565b5f6107388383610587565b6107b5575f838152602081815260408083206001600160a01b03861684529091529020805460ff1916600117905561076d3390565b6001600160a01b0316826001600160a01b0316847f2f8788117e7eff1d82e926ec794901d17c78024a50270940304540a733656f0d60405160405180910390a4506001610223565b505f610223565b5f6107c78383610587565b156107b5575f838152602081815260408083206001600160a01b0386168085529252808320805460ff1916905551339286917ff6391f5c32d9c69d2a47ea670b442974b53935d1edc7fd64eb21e047a839171b9190a4506001610223565b61082f8282610587565b6108625760405163e2517d3f60e01b81526001600160a01b03821660048201526024810183905260440160405180910390fd5b5050565b5f60208284031215610876575f5ffd5b81356001600160e01b03198116811461088d575f5ffd5b9392505050565b5f602082840312156108a4575f5ffd5b5035919050565b5f5f604083850312156108bc575f5ffd5b8235915060208301356001600160a01b03811681146108d9575f5ffd5b809150509250929050565b634e487b7160e01b5f52604160045260245ffd5b5f5f67ffffffffffffffff841115610912576109126108e4565b50604051601f19601f85018116603f0116810181811067ffffffffffffffff82111715610941576109416108e4565b604052838152905080828401851015610958575f5ffd5b838360208301375f60208583010152509392505050565b5f5f5f5f60808587031215610982575f5ffd5b8435935060208501359250604085013567ffffffffffffffff8111156109a6575f5ffd5b8501601f810187136109b6575f5ffd5b6109c5878235602084016108f8565b925050606085013567ffffffffffffffff8111156109e1575f5ffd5b8501601f810187136109f1575f5ffd5b610a00878235602084016108f8565b91505092959194509250565b5f81518084528060208401602086015e5f602082860101526020601f19601f83011685010191505092915050565b6020815281516020820152602082015160408201525f604083015160a06060840152610a6960c0840182610a0c565b9050606084015160808401526080840151601f198483030160a0850152610a908282610a0c565b95945050505050565b85815284602082015260a060408201525f610ab760a0830186610a0c565b8460608401528281036080840152610acf8185610a0c565b98975050505050505050565b634e487b7160e01b5f52603260045260245ffd5b600181811c90821680610b0357607f821691505b602082108103610b2157634e487b7160e01b5f52602260045260245ffd5b50919050565b601f8211156102d557805f5260205f20601f840160051c81016020851015610b4c5750805b601f840160051c820191505b81811015610b6b575f8155600101610b58565b5050505050565b815167ffffffffffffffff811115610b8c57610b8c6108e4565b610ba081610b9a8454610aef565b84610b27565b6020601f821160018114610bd2575f8315610bbb5750848201515b5f19600385901b1c1916600184901b178455610b6b565b5f84815260208120601f198516915b82811015610c015787850151825560209485019460019092019101610be1565b5084821015610c1e57868401515f19600387901b60f8161c191681555b50505050600190811b0190555056fea2646970667358221220fe25b990630821f29c18702aad5222a4cf5eb57c140aa953acd8af031e282f0f64736f6c634300081c0033",
  "linkReferences": {},
  "deployedLinkReferences": {},
  "immutableReferences": {},
  "inputSourceName": "project/src/AuditRegistry.sol",
  "buildInfoId": "solc-0_8_28-ebd63905ebd0ce76d471ec52a237bc0c6b756ddc"
}