{
  "_format": "hh3-artifact-1",
  "contractName": "CarbonMarketplace",
  "sourceName": "src/CarbonMarketplace.sol",
  "abi": [
    {
      "inputs": [
        {
          "internalType": "address",
          "name": "_carbonCreditToken",
          "type": "address"
        }
      ],
      "stateMutability": "nonpayable",
      "type": "constructor"
    },
    {
      "inputs": [
        {
          "internalType": "address",
          "name": "owner",
          "type": "address"
        }
      ],
      "name": "OwnableInvalidOwner",
      "type": "error"
    },
    {
      "inputs": [
        {
          "internalType": "address",
          "name": "account",
          "type": "address"
        }
      ],
      "name": "OwnableUnauthorizedAccount",
      "type": "error"
    },
    {
      "anonymous": false,
      "inputs": [
        {
          "indexed": true,
          "internalType": "uint256",
          "name": "listingId",
          "type": "uint256"
        }
      ],
      "name": "Cancelled",
      "type": "event"
    },
    {
      "anonymous": false,
      "inputs": [
        {
          "indexed": true,
          "internalType": "uint256",
          "name": "listingId",
          "type": "uint256"
        },
        {
          "indexed": true,
          "internalType": "address",
          "name": "seller",
          "type": "address"
        },
        {
          "indexed": false,
          "internalType": "uint256",
          "name": "amount",
          "type": "uint256"
        },
        {
          "indexed": false,
          "internalType": "uint256",
          "name": "price",
          "type": "uint256"
        }
      ],
      "name": "Listed",
      "type": "event"
    },
    {
      "anonymous": false,
      "inputs": [
        {
          "indexed": true,
          "internalType": "address",
          "name": "previousOwner",
          "type": "address"
        },
        {
          "indexed": true,
          "internalType": "address",
          "name": "newOwner",
          "type": "address"
        }
      ],
      "name": "OwnershipTransferred",
      "type": "event"
    },
    {
      "anonymous": false,
      "inputs": [
        {
          "indexed": true,
          "internalType": "uint256",
          "name": "listingId",
          "type": "uint256"
        },
        {
          "indexed": true,
          "internalType": "address",
          "name": "buyer",
          "type": "address"
        },
        {
          "indexed": false,
          "internalType": "uint256",
          "name": "amount",
          "type": "uint256"
        },
        {
          "indexed": false,
          "internalType": "uint256",
          "name": "totalCost",
          "type": "uint256"
        }
      ],
      "name": "Purchased",
      "type": "event"
    },
    {
      "inputs": [
        {
          "internalType": "uint256",
          "name": "_listingId",
          "type": "uint256"
        }
      ],
      "name": "buyCredits",
      "outputs": [],
      "stateMutability": "payable",
      "type": "function"
    },
    {
      "inputs": [
        {
          "internalType": "uint256",
          "name": "_listingId",
          "type": "uint256"
        }
      ],
      "name": "cancelListing",
      "outputs": [],
      "stateMutability": "nonpayable",
      "type": "function"
    },
    {
      "inputs": [],
      "name": "carbonCreditToken",
      "outputs": [
        {
          "internalType": "contract IERC20",
          "name": "",
          "type": "address"
        }
      ],
      "stateMutability": "view",
      "type": "function"
    },
    {
      "inputs": [
        {
          "internalType": "uint256",
          "name": "_amount",
          "type": "uint256"
        },
        {
          "internalType": "uint256",
          "name": "_pricePerCredit",
          "type": "uint256"
        }
      ],
      "name": "listCredits",
      "outputs": [],
      "stateMutability": "nonpayable",
      "type": "function"
    },
    {
      "inputs": [
        {
          "internalType": "uint256",
          "name": "",
          "type": "uint256"
        }
      ],
      "name": "listings",
      "outputs": [
        {
          "internalType": "uint256",
          "name": "id",
          "type": "uint256"
        },
        {
          "internalType": "address",
          "name": "seller",
          "type": "address"
        },
        {
          "internalType": "uint256",
          "name": "amount",
          "type": "uint256"
        },
        {
          "internalType": "uint256",
          "name": "pricePerCredit",
          "type": "uint256"
        },
        {
          "internalType": "bool",
          "name": "active",
          "type": "bool"
        }
      ],
      "stateMutability": "view",
      "type": "function"
    },
    {
      "inputs": [],
      "name": "nextListingId",
      "outputs": [
        {
          "internalType": "uint256",
          "name": "",
          "type": "uint256"
        }
      ],
      "stateMutability": "view",
      "type": "function"
    },
    {
      "inputs": [],
      "name": "owner",
      "outputs": [
        {
          "internalType": "address",
          "name": "",
          "type": "address"
        }
      ],
      "stateMutability": "view",
      "type": "function"
    },
    {
      "inputs": [],
      "name": "renounceOwnership",
      "outputs": [],
      "stateMutability": "nonpayable",
      "type": "function"
    },
    {
      "inputs": [
        {
          "internalType": "address",
          "name": "newOwner",
          "type": "address"
        }
      ],
      "name": "transferOwnership",
      "outputs": [],
      "stateMutability": "nonpayable",
      "type": "function"
    }
  ],
  "bytecode": "0x608060405234801561000f575f5ffd5b50604051610beb380380610beb83398101604081905261002e91610118565b338061005457604051631e4fbdf760e01b81525f60048201526024015b60405180910390fd5b61005d816100c9565b506001600160a01b0381166100a45760405162461bcd60e51b815260206004820152600d60248201526c34b73b30b634b2103a37b5b2b760991b604482015260640161004b565b600180546001600160a01b0319166001600160a01b0392909216919091179055610145565b5f80546001600160a01b038381166001600160a01b0319831681178455604051919092169283917f8be0079c531659141344cd1fd0a4f28419497f9722a3daafe3b4186f6b6457e09190a35050565b5f60208284031215610128575f5ffd5b81516001600160a01b038116811461013e575f5ffd5b9392505050565b610a99806101525f395ff3fe608060405260043610610084575f3560e01c8063715018a611610057578063715018a6146101175780638da5cb5b1461012b578063aaccf1ec14610147578063de74e57b1461016a578063f2fde38b146101f2575f5ffd5b80630c4dfe3f14610088578063305a67a81461009d578063353395e6146100bc57806366dea358146100db575b5f5ffd5b61009b61009636600461099c565b610211565b005b3480156100a8575f5ffd5b5061009b6100b736600461099c565b6104b3565b3480156100c7575f5ffd5b5061009b6100d63660046109b3565b6106b3565b3480156100e6575f5ffd5b506001546100fa906001600160a01b031681565b6040516001600160a01b0390911681526020015b60405180910390f35b348015610122575f5ffd5b5061009b6108d1565b348015610136575f5ffd5b505f546001600160a01b03166100fa565b348015610152575f5ffd5b5061015c60025481565b60405190815260200161010e565b348015610175575f5ffd5b506101c061018436600461099c565b600360208190525f91825260409091208054600182015460028301549383015460049093015491936001600160a01b0390911692909160ff1685565b604080519586526001600160a01b0390941660208601529284019190915260608301521515608082015260a00161010e565b3480156101fd575f5ffd5b5061009b61020c3660046109d3565b6108e4565b5f818152600360205260409020600481015460ff1661026a5760405162461bcd60e51b815260206004820152601060248201526f696e616374697665206c697374696e6760801b60448201526064015b60405180910390fd5b5f8160020154116102a85760405162461bcd60e51b81526020600482015260086024820152671cdbdb19081bdd5d60c21b6044820152606401610261565b5f816003015482600201546102bd9190610a14565b9050803410156103065760405162461bcd60e51b81526020600482015260146024820152731a5b9cdd59999a58da595b9d081c185e5b595b9d60621b6044820152606401610261565b6002820180545f918290556004808501805460ff1916905560015460405163a9059cbb60e01b81523392810192909252602482018390529192916001600160a01b03169063a9059cbb906044016020604051808303815f875af115801561036f573d5f5f3e3d5ffd5b505050506040513d601f19601f820116820180604052508101906103939190610a31565b9050806103d85760405162461bcd60e51b81526020600482015260136024820152721d1bdad95b881c185e5bdd5d0819985a5b1959606a1b6044820152606401610261565b60018401546040515f916001600160a01b03169085908381818185875af1925050503d805f8114610424576040519150601f19603f3d011682016040523d82523d5f602084013e610429565b606091505b505090508061046e5760405162461bcd60e51b8152602060048201526011602482015270195d1a081c185e5bdd5d0819985a5b1959607a1b6044820152606401610261565b6040805184815260208101869052339188917f2d422c18b05e66a0b22c1c2b24e242e6c19cff65d89543692b3348f7f7ea18d4910160405180910390a3505050505050565b5f81815260036020526040902060018101546001600160a01b03166105075760405162461bcd60e51b815260206004820152600a6024820152696e6f206c697374696e6760b01b6044820152606401610261565b60018101546001600160a01b031633148061052b57505f546001600160a01b031633145b6105645760405162461bcd60e51b815260206004820152600a6024820152693737ba1039b2b63632b960b11b6044820152606401610261565b600481015460ff166105ab5760405162461bcd60e51b815260206004820152601060248201526f616c726561647920696e61637469766560801b6044820152606401610261565b6002810180545f90915560048201805460ff19169055801561068457600180549083015460405163a9059cbb60e01b81526001600160a01b039182166004820152602481018490525f92919091169063a9059cbb906044016020604051808303815f875af115801561061f573d5f5f3e3d5ffd5b505050506040513d601f19601f820116820180604052508101906106439190610a31565b9050806106825760405162461bcd60e51b815260206004820152600d60248201526c1c995d1d5c9b8819985a5b1959609a1b6044820152606401610261565b505b60405183907fc41d93b8bfbf9fd7cf5bfe271fd649ab6a6fec0ea101c23b82a2a28eca2533a9905f90a2505050565b5f82116106f75760405162461bcd60e51b81526020600482015260126024820152710616d6f756e74206d757374206265203e20360741b6044820152606401610261565b5f811161073a5760405162461bcd60e51b815260206004820152601160248201527007072696365206d757374206265203e203607c1b6044820152606401610261565b6001546040516323b872dd60e01b8152336004820152306024820152604481018490525f916001600160a01b0316906323b872dd906064016020604051808303815f875af115801561078e573d5f5f3e3d5ffd5b505050506040513d601f19601f820116820180604052508101906107b29190610a31565b9050806107f95760405162461bcd60e51b81526020600482015260156024820152741d1bdad95b881d1c985b9cd9995c8819985a5b1959605a1b6044820152606401610261565b600280546040805160a0810182528281523360208083018281528385018a8152606085018a81526001608087018181525f8a81526003808852908a902098518955945191880180546001600160a01b0319166001600160a01b039093169290921790915591519886019890985596519084015594516004909201805460ff1916921515929092179091558151878152938401869052919283917f98868c46d49b200d82c273c9f28d73265826ca6567690262736450563dfff64c910160405180910390a36108c8816001610a50565b60025550505050565b6108d9610921565b6108e25f61094d565b565b6108ec610921565b6001600160a01b03811661091557604051631e4fbdf760e01b81525f6004820152602401610261565b61091e8161094d565b50565b5f546001600160a01b031633146108e25760405163118cdaa760e01b8152336004820152602401610261565b5f80546001600160a01b038381166001600160a01b0319831681178455604051919092169283917f8be0079c531659141344cd1fd0a4f28419497f9722a3daafe3b4186f6b6457e09190a35050565b5f602082840312156109ac575f5ffd5b5035919050565b5f5f604083850312156109c4575f5ffd5b50508035926020909101359150565b5f602082840312156109e3575f5ffd5b81356001600160a01b03811681146109f9575f5ffd5b9392505050565b634e487b7160e01b5f52601160045260245ffd5b8082028115828204841417610a2b57610a2b610a00565b92915050565b5f60208284031215610a41575f5ffd5b815180151581146109f9575f5ffd5b80820180821115610a2b57610a2b610a0056fea2646970667358221220f442ff5434f464f16cbc258a20fa0cf6331b6c72528c35370293a1d7404115fd64736f6c634300081c0033",
  "linkReferences": {},
  "deployedLinkReferences": {},
  "immutableReferences": {},
  "inputSourceName": "project/src/CarbonMarketplace.sol",
  "buildInfoId": "solc-0_8_28-f33c0b682d105c97805f5a219aa80711b7590489"
}