{"abi":[{"type":"constructor","inputs":[{"name":"tokenAddress","type":"address","internalType":"address"}],"stateMutability":"nonpayable"},{"type":"function","name":"getRetirementRecord","inputs":[{"name":"user","type":"address","internalType":"address"}],"outputs":[{"name":"","type":"tuple[]","internalType":"struct CreditRetirement.RetirementRecord[]","components":[{"name":"user","type":"address","internalType":"address"},{"name":"amount","type":"uint256","internalType":"uint256"},{"name":"reason","type":"string","internalType":"string"},{"name":"period","type":"uint256","internalType":"uint256"},{"name":"timestamp","type":"uint256","internalType":"uint256"}]}],"stateMutability":"view"},{"type":"function","name":"isRetired","inputs":[{"name":"","type":"address","internalType":"address"},{"name":"","type":"uint256","internalType":"uint256"}],"outputs":[{"name":"","type":"bool","internalType":"bool"}],"stateMutability":"view"},{"type":"function","name":"records","inputs":[{"name":"","type":"uint256","internalType":"uint256"}],"outputs":[{"name":"user","type":"address","internalType":"address"},{"name":"amount","type":"uint256","internalType":"uint256"},{"name":"reason","type":"string","internalType":"string"},{"name":"period","type":"uint256","internalType":"uint256"},{"name":"timestamp","type":"uint256","internalType":"uint256"}],"stateMutability":"view"},{"type":"function","name":"retireCredits","inputs":[{"name":"amount","type":"uint256","internalType":"uint256"},{"name":"reason","type":"string","internalType":"string"},{"name":"period","type":"uint256","internalType":"uint256"}],"outputs":[],"stateMutability":"nonpayable"},{"type":"function","name":"token","inputs":[],"outputs":[{"name":"","type":"address","internalType":"contract CarbonCredit"}],"stateMutability":"view"},{"type":"event","name":"Retired","inputs":[{"name":"user","type":"address","indexed":false,"internalType":"address"},{"name":"amount","type":"uint256","indexed":false,"internalType":"uint256"}],"anonymous":false}],"bytecode":{"object":"0x608060405234801561000f575f5ffd5b50604051611596380380611596833981810160405281019061003191906100d4565b805f5f6101000a81548173ffffffffffffffffffffffffffffffffffffffff021916908373ffffffffffffffffffffffffffffffffffffffff160217905550506100ff565b5f5ffd5b5f73ffffffffffffffffffffffffffffffffffffffff82169050919050565b5f6100a38261007a565b9050919050565b6100b381610099565b81146100bd575f5ffd5b50565b5f815190506100ce816100aa565b92915050565b5f602082840312156100e9576100e8610076565b5b5f6100f6848285016100c0565b91505092915050565b61148a8061010c5f395ff3fe608060405234801561000f575f5ffd5b5060043610610055575f3560e01c80633446106714610059578063c2a94af31461008d578063e300d8b1146100a9578063fc0c546a146100d9578063fcfde4c2146100f7575b5f5ffd5b610073600480360381019061006e9190610958565b610127565b604051610084959493929190610a41565b60405180910390f35b6100a760048036038101906100a29190610bc5565b61020d565b005b6100c360048036038101906100be9190610c5b565b61058e565b6040516100d09190610cb3565b60405180910390f35b6100e16105b8565b6040516100ee9190610d27565b60405180910390f35b610111600480360381019061010c9190610d40565b6105dc565b60405161011e9190610eff565b60405180910390f35b60018181548110610136575f80fd5b905f5260205f2090600502015f91509050805f015f9054906101000a900473ffffffffffffffffffffffffffffffffffffffff169080600101549080600201805461018090610f4c565b80601f01602080910402602001604051908101604052809291908181526020018280546101ac90610f4c565b80156101f75780601f106101ce576101008083540402835291602001916101f7565b820191905f5260205f20905b8154815290600101906020018083116101da57829003601f168201915b5050505050908060030154908060040154905085565b60025f3373ffffffffffffffffffffffffffffffffffffffff1673ffffffffffffffffffffffffffffffffffffffff1681526020019081526020015f205f8281526020019081526020015f205f9054906101000a900460ff16156102a6576040517f08c379a000000000000000000000000000000000000000000000000000000000815260040161029d90610fec565b60405180910390fd5b600160025f3373ffffffffffffffffffffffffffffffffffffffff1673ffffffffffffffffffffffffffffffffffffffff1681526020019081526020015f205f8381526020019081526020015f205f6101000a81548160ff0219169083151502179055505f5f5f9054906101000a900473ffffffffffffffffffffffffffffffffffffffff1673ffffffffffffffffffffffffffffffffffffffff166323b872dd3330876040518463ffffffff1660e01b81526004016103689392919061100a565b6020604051808303815f875af1158015610384573d5f5f3e3d5ffd5b505050506040513d601f19601f820116820180604052508101906103a89190611069565b9050806103ea576040517f08c379a00000000000000000000000000000000000000000000000000000000081526004016103e1906110de565b60405180910390fd5b5f5f9054906101000a900473ffffffffffffffffffffffffffffffffffffffff1673ffffffffffffffffffffffffffffffffffffffff166342966c68856040518263ffffffff1660e01b815260040161044391906110fc565b5f604051808303815f87803b15801561045a575f5ffd5b505af115801561046c573d5f5f3e3d5ffd5b5050505060016040518060a001604052803373ffffffffffffffffffffffffffffffffffffffff16815260200186815260200185815260200184815260200142815250908060018154018082558091505060019003905f5260205f2090600502015f909190919091505f820151815f015f6101000a81548173ffffffffffffffffffffffffffffffffffffffff021916908373ffffffffffffffffffffffffffffffffffffffff16021790555060208201518160010155604082015181600201908161053891906112bd565b50606082015181600301556080820151816004015550507f8dc4b87efb3c82876c566fb305749c81faf4459424134a0470fee3f604048de7338560405161058092919061138c565b60405180910390a150505050565b6002602052815f5260405f20602052805f5260405f205f915091509054906101000a900460ff1681565b5f5f9054906101000a900473ffffffffffffffffffffffffffffffffffffffff1681565b60605f5f5f90505b600180549050811015610681578373ffffffffffffffffffffffffffffffffffffffff166001828154811061061c5761061b6113b3565b5b905f5260205f2090600502015f015f9054906101000a900473ffffffffffffffffffffffffffffffffffffffff1673ffffffffffffffffffffffffffffffffffffffff16036106745781806106709061140d565b9250505b80806001019150506105e4565b505f8167ffffffffffffffff81111561069d5761069c610aa1565b5b6040519080825280602002602001820160405280156106d657816020015b6106c36108d3565b8152602001906001900390816106bb5790505b5090505f5f5f90505b6001805490508110156108c7578573ffffffffffffffffffffffffffffffffffffffff1660018281548110610717576107166113b3565b5b905f5260205f2090600502015f015f9054906101000a900473ffffffffffffffffffffffffffffffffffffffff1673ffffffffffffffffffffffffffffffffffffffff16036108ba5760018181548110610774576107736113b3565b5b905f5260205f2090600502016040518060a00160405290815f82015f9054906101000a900473ffffffffffffffffffffffffffffffffffffffff1673ffffffffffffffffffffffffffffffffffffffff1673ffffffffffffffffffffffffffffffffffffffff168152602001600182015481526020016002820180546107f990610f4c565b80601f016020809104026020016040519081016040528092919081815260200182805461082590610f4c565b80156108705780601f1061084757610100808354040283529160200191610870565b820191905f5260205f20905b81548152906001019060200180831161085357829003601f168201915b50505050508152602001600382015481526020016004820154815250508383815181106108a05761089f6113b3565b5b602002602001018190525081806108b69061140d565b9250505b80806001019150506106df565b50819350505050919050565b6040518060a001604052805f73ffffffffffffffffffffffffffffffffffffffff1681526020015f8152602001606081526020015f81526020015f81525090565b5f604051905090565b5f5ffd5b5f5ffd5b5f819050919050565b61093781610925565b8114610941575f5ffd5b50565b5f813590506109528161092e565b92915050565b5f6020828403121561096d5761096c61091d565b5b5f61097a84828501610944565b91505092915050565b5f73ffffffffffffffffffffffffffffffffffffffff82169050919050565b5f6109ac82610983565b9050919050565b6109bc816109a2565b82525050565b6109cb81610925565b82525050565b5f81519050919050565b5f82825260208201905092915050565b8281835e5f83830152505050565b5f601f19601f8301169050919050565b5f610a13826109d1565b610a1d81856109db565b9350610a2d8185602086016109eb565b610a36816109f9565b840191505092915050565b5f60a082019050610a545f8301886109b3565b610a6160208301876109c2565b8181036040830152610a738186610a09565b9050610a8260608301856109c2565b610a8f60808301846109c2565b9695505050505050565b5f5ffd5b5f5ffd5b7f4e487b71000000000000000000000000000000000000000000000000000000005f52604160045260245ffd5b610ad7826109f9565b810181811067ffffffffffffffff82111715610af657610af5610aa1565b5b80604052505050565b5f610b08610914565b9050610b148282610ace565b919050565b5f67ffffffffffffffff821115610b3357610b32610aa1565b5b610b3c826109f9565b9050602081019050919050565b828183375f83830152505050565b5f610b69610b6484610b19565b610aff565b905082815260208101848484011115610b8557610b84610a9d565b5b610b90848285610b49565b509392505050565b5f82601f830112610bac57610bab610a99565b5b8135610bbc848260208601610b57565b91505092915050565b5f5f5f60608486031215610bdc57610bdb61091d565b5b5f610be986828701610944565b935050602084013567ffffffffffffffff811115610c0a57610c09610921565b5b610c1686828701610b98565b9250506040610c2786828701610944565b9150509250925092565b610c3a816109a2565b8114610c44575f5ffd5b50565b5f81359050610c5581610c31565b92915050565b5f5f60408385031215610c7157610c7061091d565b5b5f610c7e85828601610c47565b9250506020610c8f85828601610944565b9150509250929050565b5f8115159050919050565b610cad81610c99565b82525050565b5f602082019050610cc65f830184610ca4565b92915050565b5f819050919050565b5f610cef610cea610ce584610983565b610ccc565b610983565b9050919050565b5f610d0082610cd5565b9050919050565b5f610d1182610cf6565b9050919050565b610d2181610d07565b82525050565b5f602082019050610d3a5f830184610d18565b92915050565b5f60208284031215610d5557610d5461091d565b5b5f610d6284828501610c47565b91505092915050565b5f81519050919050565b5f82825260208201905092915050565b5f819050602082019050919050565b610d9d816109a2565b82525050565b610dac81610925565b82525050565b5f82825260208201905092915050565b5f610dcc826109d1565b610dd68185610db2565b9350610de68185602086016109eb565b610def816109f9565b840191505092915050565b5f60a083015f830151610e0f5f860182610d94565b506020830151610e226020860182610da3565b5060408301518482036040860152610e3a8282610dc2565b9150506060830151610e4f6060860182610da3565b506080830151610e626080860182610da3565b508091505092915050565b5f610e788383610dfa565b905092915050565b5f602082019050919050565b5f610e9682610d6b565b610ea08185610d75565b935083602082028501610eb285610d85565b805f5b85811015610eed5784840389528151610ece8582610e6d565b9450610ed983610e80565b925060208a01995050600181019050610eb5565b50829750879550505050505092915050565b5f6020820190508181035f830152610f178184610e8c565b905092915050565b7f4e487b71000000000000000000000000000000000000000000000000000000005f52602260045260245ffd5b5f6002820490506001821680610f6357607f821691505b602082108103610f7657610f75610f1f565b5b50919050565b7f4372656469747320616c7265616479207265746972656420666f7220746869735f8201527f20706572696f6400000000000000000000000000000000000000000000000000602082015250565b5f610fd66027836109db565b9150610fe182610f7c565b604082019050919050565b5f6020820190508181035f83015261100381610fca565b9050919050565b5f60608201905061101d5f8301866109b3565b61102a60208301856109b3565b61103760408301846109c2565b949350505050565b61104881610c99565b8114611052575f5ffd5b50565b5f815190506110638161103f565b92915050565b5f6020828403121561107e5761107d61091d565b5b5f61108b84828501611055565b91505092915050565b7f5472616e73666572206661696c656400000000000000000000000000000000005f82015250565b5f6110c8600f836109db565b91506110d382611094565b602082019050919050565b5f6020820190508181035f8301526110f5816110bc565b9050919050565b5f60208201905061110f5f8301846109c2565b92915050565b5f819050815f5260205f209050919050565b5f6020601f8301049050919050565b5f82821b905092915050565b5f600883026111717fffffffffffffffffffffffffffffffffffffffffffffffffffffffffffffffff82611136565b61117b8683611136565b95508019841693508086168417925050509392505050565b5f6111ad6111a86111a384610925565b610ccc565b610925565b9050919050565b5f819050919050565b6111c683611193565b6111da6111d2826111b4565b848454611142565b825550505050565b5f5f905090565b6111f16111e2565b6111fc8184846111bd565b505050565b5f5b82811015611222576112175f8284016111e9565b600181019050611203565b505050565b601f82111561127557828211156112745761124181611115565b61124a83611127565b61125385611127565b6020861015611260575f90505b80830161126f82840382611201565b505050505b5b505050565b5f82821c905092915050565b5f6112955f198460080261127a565b1980831691505092915050565b5f6112ad8383611286565b9150826002028217905092915050565b6112c6826109d1565b67ffffffffffffffff8111156112df576112de610aa1565b5b6112e98254610f4c565b6112f4828285611227565b5f60209050601f831160018114611325575f8415611313578287015190505b61131d85826112a2565b865550611384565b601f19841661133386611115565b5f5b8281101561135a57848901518255600182019150602085019450602081019050611335565b868310156113775784890151611373601f891682611286565b8355505b6001600288020188555050505b505050505050565b5f60408201905061139f5f8301856109b3565b6113ac60208301846109c2565b9392505050565b7f4e487b71000000000000000000000000000000000000000000000000000000005f52603260045260245ffd5b7f4e487b71000000000000000000000000000000000000000000000000000000005f52601160045260245ffd5b5f61141782610925565b91507fffffffffffffffffffffffffffffffffffffffffffffffffffffffffffffffff8203611449576114486113e0565b5b60018201905091905056fea26469706673582212207048b4f555bd16b4a171599eb008da271769abec464d144e7d249cd78fe0aea064736f6c63430008210033","linkReferences":{}},"methodIdentifiers":{"getRetirementRecord(address)":"fcfde4c2","isRetired(address,uint256)":"e300d8b1","records(uint256)":"34461067","retireCredits(uint256,string,uint256)":"c2a94af3","token()":"fc0c546a"},"id":30}