{"abi":[{"type":"constructor","inputs":[{"name":"tokenAddress","type":"address","internalType":"address"}],"stateMutability":"nonpayable"},{"type":"function","name":"getRetirementRecord","inputs":[{"name":"user","type":"address","internalType":"address"}],"outputs":[{"name":"","type":"tuple[]","internalType":"struct CreditRetirement.RetirementRecord[]","components":[{"name":"user","type":"address","internalType":"address"},{"name":"amount","type":"uint256","internalType":"uint256"},{"name":"reason","type":"string","internalType":"string"},{"name":"period","type":"uint256","internalType":"uint256"},{"name":"timestamp","type":"uint256","internalType":"uint256"}]}],"stateMutability":"view"},{"type":"function","name":"records","inputs":[{"name":"","type":"uint256","internalType":"uint256"}],"outputs":[{"name":"user","type":"address","internalType":"address"},{"name":"amount","type":"uint256","internalType":"uint256"},{"name":"reason","type":"string","internalType":"string"},{"name":"period","type":"uint256","internalType":"uint256"},{"name":"timestamp","type":"uint256","internalType":"uint256"}],"stateMutability":"view"},{"type":"function","name":"retireCredits","inputs":[{"name":"amount","type":"uint256","internalType":"uint256"},{"name":"reason","type":"string","internalType":"string"},{"name":"period","type":"uint256","internalType":"uint256"}],"outputs":[],"stateMutability":"nonpayable"},{"type":"function","name":"token","inputs":[],"outputs":[{"name":"","type":"address","internalType":"contract CarbonCredit"}],"stateMutability":"view"},{"type":"event","name":"Retired","inputs":[{"name":"user","type":"address","indexed":false,"internalType":"address"},{"name":"amount","type":"uint256","indexed":false,"internalType":"uint256"}],"anonymous":false}],"bytecode":{"object":"0x608060405234801561000f575f5ffd5b50604051611340380380611340833981810160405281019061003191906100d4565b805f5f6101000a81548173ffffffffffffffffffffffffffffffffffffffff021916908373ffffffffffffffffffffffffffffffffffffffff160217905550506100ff565b5f5ffd5b5f73ffffffffffffffffffffffffffffffffffffffff82169050919050565b5f6100a38261007a565b9050919050565b6100b381610099565b81146100bd575f5ffd5b50565b5f815190506100ce816100aa565b92915050565b5f602082840312156100e9576100e8610076565b5b5f6100f6848285016100c0565b91505092915050565b6112348061010c5f395ff3fe608060405234801561000f575f5ffd5b506004361061004a575f3560e01c8063344610671461004e578063c2a94af314610082578063fc0c546a1461009e578063fcfde4c2146100bc575b5f5ffd5b610068600480360381019061006391906107f6565b6100ec565b6040516100799594939291906108df565b60405180910390f35b61009c60048036038101906100979190610a63565b6101d2565b005b6100a6610456565b6040516100b39190610b2a565b60405180910390f35b6100d660048036038101906100d19190610b6d565b61047a565b6040516100e39190610d2c565b60405180910390f35b600181815481106100fb575f80fd5b905f5260205f2090600502015f91509050805f015f9054906101000a900473ffffffffffffffffffffffffffffffffffffffff169080600101549080600201805461014590610d79565b80601f016020809104026020016040519081016040528092919081815260200182805461017190610d79565b80156101bc5780601f10610193576101008083540402835291602001916101bc565b820191905f5260205f20905b81548152906001019060200180831161019f57829003601f168201915b5050505050908060030154908060040154905085565b5f5f5f9054906101000a900473ffffffffffffffffffffffffffffffffffffffff1673ffffffffffffffffffffffffffffffffffffffff166323b872dd3330876040518463ffffffff1660e01b815260040161023093929190610da9565b6020604051808303815f875af115801561024c573d5f5f3e3d5ffd5b505050506040513d601f19601f820116820180604052508101906102709190610e13565b9050806102b2576040517f08c379a00000000000000000000000000000000000000000000000000000000081526004016102a990610e88565b60405180910390fd5b5f5f9054906101000a900473ffffffffffffffffffffffffffffffffffffffff1673ffffffffffffffffffffffffffffffffffffffff166342966c68856040518263ffffffff1660e01b815260040161030b9190610ea6565b5f604051808303815f87803b158015610322575f5ffd5b505af1158015610334573d5f5f3e3d5ffd5b5050505060016040518060a001604052803373ffffffffffffffffffffffffffffffffffffffff16815260200186815260200185815260200184815260200142815250908060018154018082558091505060019003905f5260205f2090600502015f909190919091505f820151815f015f6101000a81548173ffffffffffffffffffffffffffffffffffffffff021916908373ffffffffffffffffffffffffffffffffffffffff1602179055506020820151816001015560408201518160020190816104009190611067565b50606082015181600301556080820151816004015550507f8dc4b87efb3c82876c566fb305749c81faf4459424134a0470fee3f604048de73385604051610448929190611136565b60405180910390a150505050565b5f5f9054906101000a900473ffffffffffffffffffffffffffffffffffffffff1681565b60605f5f5f90505b60018054905081101561051f578373ffffffffffffffffffffffffffffffffffffffff16600182815481106104ba576104b961115d565b5b905f5260205f2090600502015f015f9054906101000a900473ffffffffffffffffffffffffffffffffffffffff1673ffffffffffffffffffffffffffffffffffffffff160361051257818061050e906111b7565b9250505b8080600101915050610482565b505f8167ffffffffffffffff81111561053b5761053a61093f565b5b60405190808252806020026020018201604052801561057457816020015b610561610771565b8152602001906001900390816105595790505b5090505f5f5f90505b600180549050811015610765578573ffffffffffffffffffffffffffffffffffffffff16600182815481106105b5576105b461115d565b5b905f5260205f2090600502015f015f9054906101000a900473ffffffffffffffffffffffffffffffffffffffff1673ffffffffffffffffffffffffffffffffffffffff160361075857600181815481106106125761061161115d565b5b905f5260205f2090600502016040518060a00160405290815f82015f9054906101000a900473ffffffffffffffffffffffffffffffffffffffff1673ffffffffffffffffffffffffffffffffffffffff1673ffffffffffffffffffffffffffffffffffffffff1681526020016001820154815260200160028201805461069790610d79565b80601f01602080910402602001604051908101604052809291908181526020018280546106c390610d79565b801561070e5780601f106106e55761010080835404028352916020019161070e565b820191905f5260205f20905b8154815290600101906020018083116106f157829003601f168201915b505050505081526020016003820154815260200160048201548152505083838151811061073e5761073d61115d565b5b60200260200101819052508180610754906111b7565b9250505b808060010191505061057d565b50819350505050919050565b6040518060a001604052805f73ffffffffffffffffffffffffffffffffffffffff1681526020015f8152602001606081526020015f81526020015f81525090565b5f604051905090565b5f5ffd5b5f5ffd5b5f819050919050565b6107d5816107c3565b81146107df575f5ffd5b50565b5f813590506107f0816107cc565b92915050565b5f6020828403121561080b5761080a6107bb565b5b5f610818848285016107e2565b91505092915050565b5f73ffffffffffffffffffffffffffffffffffffffff82169050919050565b5f61084a82610821565b9050919050565b61085a81610840565b82525050565b610869816107c3565b82525050565b5f81519050919050565b5f82825260208201905092915050565b8281835e5f83830152505050565b5f601f19601f8301169050919050565b5f6108b18261086f565b6108bb8185610879565b93506108cb818560208601610889565b6108d481610897565b840191505092915050565b5f60a0820190506108f25f830188610851565b6108ff6020830187610860565b818103604083015261091181866108a7565b90506109206060830185610860565b61092d6080830184610860565b9695505050505050565b5f5ffd5b5f5ffd5b7f4e487b71000000000000000000000000000000000000000000000000000000005f52604160045260245ffd5b61097582610897565b810181811067ffffffffffffffff821117156109945761099361093f565b5b80604052505050565b5f6109a66107b2565b90506109b2828261096c565b919050565b5f67ffffffffffffffff8211156109d1576109d061093f565b5b6109da82610897565b9050602081019050919050565b828183375f83830152505050565b5f610a07610a02846109b7565b61099d565b905082815260208101848484011115610a2357610a2261093b565b5b610a2e8482856109e7565b509392505050565b5f82601f830112610a4a57610a49610937565b5b8135610a5a8482602086016109f5565b91505092915050565b5f5f5f60608486031215610a7a57610a796107bb565b5b5f610a87868287016107e2565b935050602084013567ffffffffffffffff811115610aa857610aa76107bf565b5b610ab486828701610a36565b9250506040610ac5868287016107e2565b9150509250925092565b5f819050919050565b5f610af2610aed610ae884610821565b610acf565b610821565b9050919050565b5f610b0382610ad8565b9050919050565b5f610b1482610af9565b9050919050565b610b2481610b0a565b82525050565b5f602082019050610b3d5f830184610b1b565b92915050565b610b4c81610840565b8114610b56575f5ffd5b50565b5f81359050610b6781610b43565b92915050565b5f60208284031215610b8257610b816107bb565b5b5f610b8f84828501610b59565b91505092915050565b5f81519050919050565b5f82825260208201905092915050565b5f819050602082019050919050565b610bca81610840565b82525050565b610bd9816107c3565b82525050565b5f82825260208201905092915050565b5f610bf98261086f565b610c038185610bdf565b9350610c13818560208601610889565b610c1c81610897565b840191505092915050565b5f60a083015f830151610c3c5f860182610bc1565b506020830151610c4f6020860182610bd0565b5060408301518482036040860152610c678282610bef565b9150506060830151610c7c6060860182610bd0565b506080830151610c8f6080860182610bd0565b508091505092915050565b5f610ca58383610c27565b905092915050565b5f602082019050919050565b5f610cc382610b98565b610ccd8185610ba2565b935083602082028501610cdf85610bb2565b805f5b85811015610d1a5784840389528151610cfb8582610c9a565b9450610d0683610cad565b925060208a01995050600181019050610ce2565b50829750879550505050505092915050565b5f6020820190508181035f830152610d448184610cb9565b905092915050565b7f4e487b71000000000000000000000000000000000000000000000000000000005f52602260045260245ffd5b5f6002820490506001821680610d9057607f821691505b602082108103610da357610da2610d4c565b5b50919050565b5f606082019050610dbc5f830186610851565b610dc96020830185610851565b610dd66040830184610860565b949350505050565b5f8115159050919050565b610df281610dde565b8114610dfc575f5ffd5b50565b5f81519050610e0d81610de9565b92915050565b5f60208284031215610e2857610e276107bb565b5b5f610e3584828501610dff565b91505092915050565b7f5472616e73666572206661696c656400000000000000000000000000000000005f82015250565b5f610e72600f83610879565b9150610e7d82610e3e565b602082019050919050565b5f6020820190508181035f830152610e9f81610e66565b9050919050565b5f602082019050610eb95f830184610860565b92915050565b5f819050815f5260205f209050919050565b5f6020601f8301049050919050565b5f82821b905092915050565b5f60088302610f1b7fffffffffffffffffffffffffffffffffffffffffffffffffffffffffffffffff82610ee0565b610f258683610ee0565b95508019841693508086168417925050509392505050565b5f610f57610f52610f4d846107c3565b610acf565b6107c3565b9050919050565b5f819050919050565b610f7083610f3d565b610f84610f7c82610f5e565b848454610eec565b825550505050565b5f5f905090565b610f9b610f8c565b610fa6818484610f67565b505050565b5f5b82811015610fcc57610fc15f828401610f93565b600181019050610fad565b505050565b601f82111561101f578282111561101e57610feb81610ebf565b610ff483610ed1565b610ffd85610ed1565b602086101561100a575f90505b80830161101982840382610fab565b505050505b5b505050565b5f82821c905092915050565b5f61103f5f1984600802611024565b1980831691505092915050565b5f6110578383611030565b9150826002028217905092915050565b6110708261086f565b67ffffffffffffffff8111156110895761108861093f565b5b6110938254610d79565b61109e828285610fd1565b5f60209050601f8311600181146110cf575f84156110bd578287015190505b6110c7858261104c565b86555061112e565b601f1984166110dd86610ebf565b5f5b82811015611104578489015182556001820191506020850194506020810190506110df565b86831015611121578489015161111d601f891682611030565b8355505b6001600288020188555050505b505050505050565b5f6040820190506111495f830185610851565b6111566020830184610860565b9392505050565b7f4e487b71000000000000000000000000000000000000000000000000000000005f52603260045260245ffd5b7f4e487b71000000000000000000000000000000000000000000000000000000005f52601160045260245ffd5b5f6111c1826107c3565b91507fffffffffffffffffffffffffffffffffffffffffffffffffffffffffffffffff82036111f3576111f261118a565b5b60018201905091905056fea2646970667358221220764898632a48363db1114900a6f1cfb04e94e7e24909df33c41853bba1511a6564736f6c63430008210033","linkReferences":{}},"methodIdentifiers":{"getRetirementRecord(address)":"fcfde4c2","records(uint256)":"34461067","retireCredits(uint256,string,uint256)":"c2a94af3","token()":"fc0c546a"},"id":33}